{
	"SafeMathTester.sol": {
		"SafeMathTester": {
			"abi": [
				{
					"inputs": [],
					"name": "add",
					"outputs": [],
					"stateMutability": "nonpayable",
					"type": "function"
				},
				{
					"inputs": [],
					"name": "addWithUncheckedKeyword",
					"outputs": [],
					"stateMutability": "nonpayable",
					"type": "function"
				},
				{
					"inputs": [],
					"name": "bigNumber",
					"outputs": [
						{
							"internalType": "uint8",
							"name": "",
							"type": "uint8"
						}
					],
					"stateMutability": "view",
					"type": "function"
				}
			],
			"devdoc": {
				"kind": "dev",
				"methods": {},
				"version": 1
			},
			"evm": {
				"assembly": "    /* \"SafeMathTester.sol\":308:685  contract SafeMathTester{\r... */\n  mstore(0x40, 0x80)\n    /* \"SafeMathTester.sol\":363:366  255 */\n  0xff\n    /* \"SafeMathTester.sol\":339:366  uint8 public bigNumber =255 */\n  0x00\n  dup1\n  0x0100\n  exp\n  dup2\n  sload\n  dup2\n  0xff\n  mul\n  not\n  and\n  swap1\n  dup4\n  0xff\n  and\n  mul\n  or\n  swap1\n  sstore\n  pop\n    /* \"SafeMathTester.sol\":308:685  contract SafeMathTester{\r... */\n  callvalue\n  dup1\n  iszero\n  tag_1\n  jumpi\n  0x00\n  dup1\n  revert\ntag_1:\n  pop\n  dataSize(sub_0)\n  dup1\n  dataOffset(sub_0)\n  0x00\n  codecopy\n  0x00\n  return\nstop\n\nsub_0: assembly {\n        /* \"SafeMathTester.sol\":308:685  contract SafeMathTester{\r... */\n      mstore(0x40, 0x80)\n      callvalue\n      dup1\n      iszero\n      tag_1\n      jumpi\n      0x00\n      dup1\n      revert\n    tag_1:\n      pop\n      jumpi(tag_2, lt(calldatasize, 0x04))\n      shr(0xe0, calldataload(0x00))\n      dup1\n      0x3f556af7\n      eq\n      tag_3\n      jumpi\n      dup1\n      0x45964e9e\n      eq\n      tag_4\n      jumpi\n      dup1\n      0x4f2be91f\n      eq\n      tag_5\n      jumpi\n    tag_2:\n      0x00\n      dup1\n      revert\n        /* \"SafeMathTester.sol\":560:682  function addWithUncheckedKeyword()public{\r... */\n    tag_3:\n      tag_6\n      tag_7\n      jump\t// in\n    tag_6:\n      stop\n        /* \"SafeMathTester.sol\":339:366  uint8 public bigNumber =255 */\n    tag_4:\n      tag_8\n      tag_9\n      jump\t// in\n    tag_8:\n      mload(0x40)\n      tag_10\n      swap2\n      swap1\n      tag_11\n      jump\t// in\n    tag_10:\n      mload(0x40)\n      dup1\n      swap2\n      sub\n      swap1\n      return\n        /* \"SafeMathTester.sol\":439:554  function add()public{\r... */\n    tag_5:\n      tag_12\n      tag_13\n      jump\t// in\n    tag_12:\n      stop\n        /* \"SafeMathTester.sol\":560:682  function addWithUncheckedKeyword()public{\r... */\n    tag_7:\n        /* \"SafeMathTester.sol\":642:643  1 */\n      0x01\n        /* \"SafeMathTester.sol\":632:641  bigNumber */\n      0x00\n      dup1\n      sload\n      swap1\n      0x0100\n      exp\n      swap1\n      div\n      0xff\n      and\n        /* \"SafeMathTester.sol\":632:643  bigNumber+1 */\n      add\n        /* \"SafeMathTester.sol\":622:631  bigNumber */\n      0x00\n      dup1\n        /* \"SafeMathTester.sol\":622:643  bigNumber=bigNumber+1 */\n      0x0100\n      exp\n      dup2\n      sload\n      dup2\n      0xff\n      mul\n      not\n      and\n      swap1\n      dup4\n      0xff\n      and\n      mul\n      or\n      swap1\n      sstore\n      pop\n        /* \"SafeMathTester.sol\":560:682  function addWithUncheckedKeyword()public{\r... */\n      jump\t// out\n        /* \"SafeMathTester.sol\":339:366  uint8 public bigNumber =255 */\n    tag_9:\n      0x00\n      dup1\n      sload\n      swap1\n      0x0100\n      exp\n      swap1\n      div\n      0xff\n      and\n      dup2\n      jump\t// out\n        /* \"SafeMathTester.sol\":439:554  function add()public{\r... */\n    tag_13:\n        /* \"SafeMathTester.sol\":491:492  1 */\n      0x01\n        /* \"SafeMathTester.sol\":481:490  bigNumber */\n      0x00\n      dup1\n      sload\n      swap1\n      0x0100\n      exp\n      swap1\n      div\n      0xff\n      and\n        /* \"SafeMathTester.sol\":481:492  bigNumber+1 */\n      tag_16\n      swap2\n      swap1\n      tag_17\n      jump\t// in\n    tag_16:\n        /* \"SafeMathTester.sol\":471:480  bigNumber */\n      0x00\n      dup1\n        /* \"SafeMathTester.sol\":471:492  bigNumber=bigNumber+1 */\n      0x0100\n      exp\n      dup2\n      sload\n      dup2\n      0xff\n      mul\n      not\n      and\n      swap1\n      dup4\n      0xff\n      and\n      mul\n      or\n      swap1\n      sstore\n      pop\n        /* \"SafeMathTester.sol\":439:554  function add()public{\r... */\n      jump\t// out\n        /* \"#utility.yul\":7:119   */\n    tag_19:\n        /* \"#utility.yul\":90:112   */\n      tag_21\n        /* \"#utility.yul\":106:111   */\n      dup2\n        /* \"#utility.yul\":90:112   */\n      tag_22\n      jump\t// in\n    tag_21:\n        /* \"#utility.yul\":85:88   */\n      dup3\n        /* \"#utility.yul\":78:113   */\n      mstore\n        /* \"#utility.yul\":68:119   */\n      pop\n      pop\n      jump\t// out\n        /* \"#utility.yul\":125:339   */\n    tag_11:\n      0x00\n        /* \"#utility.yul\":252:254   */\n      0x20\n        /* \"#utility.yul\":241:250   */\n      dup3\n        /* \"#utility.yul\":237:255   */\n      add\n        /* \"#utility.yul\":229:255   */\n      swap1\n      pop\n        /* \"#utility.yul\":265:332   */\n      tag_24\n        /* \"#utility.yul\":329:330   */\n      0x00\n        /* \"#utility.yul\":318:327   */\n      dup4\n        /* \"#utility.yul\":314:331   */\n      add\n        /* \"#utility.yul\":305:311   */\n      dup5\n        /* \"#utility.yul\":265:332   */\n      tag_19\n      jump\t// in\n    tag_24:\n        /* \"#utility.yul\":219:339   */\n      swap3\n      swap2\n      pop\n      pop\n      jump\t// out\n        /* \"#utility.yul\":345:582   */\n    tag_17:\n      0x00\n        /* \"#utility.yul\":402:420   */\n      tag_26\n        /* \"#utility.yul\":418:419   */\n      dup3\n        /* \"#utility.yul\":402:420   */\n      tag_22\n      jump\t// in\n    tag_26:\n        /* \"#utility.yul\":397:420   */\n      swap2\n      pop\n        /* \"#utility.yul\":434:452   */\n      tag_27\n        /* \"#utility.yul\":450:451   */\n      dup4\n        /* \"#utility.yul\":434:452   */\n      tag_22\n      jump\t// in\n    tag_27:\n        /* \"#utility.yul\":429:452   */\n      swap3\n      pop\n        /* \"#utility.yul\":524:525   */\n      dup3\n        /* \"#utility.yul\":518:522   */\n      0xff\n        /* \"#utility.yul\":514:526   */\n      sub\n        /* \"#utility.yul\":511:512   */\n      dup3\n        /* \"#utility.yul\":508:527   */\n      gt\n        /* \"#utility.yul\":505:507   */\n      iszero\n      tag_28\n      jumpi\n        /* \"#utility.yul\":530:548   */\n      tag_29\n      tag_30\n      jump\t// in\n    tag_29:\n        /* \"#utility.yul\":505:507   */\n    tag_28:\n        /* \"#utility.yul\":574:575   */\n      dup3\n        /* \"#utility.yul\":571:572   */\n      dup3\n        /* \"#utility.yul\":567:576   */\n      add\n        /* \"#utility.yul\":560:576   */\n      swap1\n      pop\n        /* \"#utility.yul\":387:582   */\n      swap3\n      swap2\n      pop\n      pop\n      jump\t// out\n        /* \"#utility.yul\":588:674   */\n    tag_22:\n      0x00\n        /* \"#utility.yul\":663:667   */\n      0xff\n        /* \"#utility.yul\":656:661   */\n      dup3\n        /* \"#utility.yul\":652:668   */\n      and\n        /* \"#utility.yul\":641:668   */\n      swap1\n      pop\n        /* \"#utility.yul\":631:674   */\n      swap2\n      swap1\n      pop\n      jump\t// out\n        /* \"#utility.yul\":680:860   */\n    tag_30:\n        /* \"#utility.yul\":728:805   */\n      0x4e487b7100000000000000000000000000000000000000000000000000000000\n        /* \"#utility.yul\":725:726   */\n      0x00\n        /* \"#utility.yul\":718:806   */\n      mstore\n        /* \"#utility.yul\":825:829   */\n      0x11\n        /* \"#utility.yul\":822:823   */\n      0x04\n        /* \"#utility.yul\":815:830   */\n      mstore\n        /* \"#utility.yul\":849:853   */\n      0x24\n        /* \"#utility.yul\":846:847   */\n      0x00\n        /* \"#utility.yul\":839:854   */\n      revert\n\n    auxdata: 0xa26469706673582212201bbac4273b880c6be98cdbc1272a81c799c8a5a0aed6956c6b0387b877dfae0e64736f6c63430008000033\n}\n",
				"bytecode": {
					"linkReferences": {},
					"object": "608060405260ff6000806101000a81548160ff021916908360ff16021790555034801561002b57600080fd5b506101bd8061003b6000396000f3fe608060405234801561001057600080fd5b50600436106100415760003560e01c80633f556af71461004657806345964e9e146100505780634f2be91f1461006e575b600080fd5b61004e610078565b005b6100586100a4565b60405161006591906100f9565b60405180910390f35b6100766100b5565b005b600160008054906101000a900460ff16016000806101000a81548160ff021916908360ff160217905550565b60008054906101000a900460ff1681565b600160008054906101000a900460ff166100cf9190610114565b6000806101000a81548160ff021916908360ff160217905550565b6100f38161014b565b82525050565b600060208201905061010e60008301846100ea565b92915050565b600061011f8261014b565b915061012a8361014b565b92508260ff038211156101405761013f610158565b5b828201905092915050565b600060ff82169050919050565b7f4e487b7100000000000000000000000000000000000000000000000000000000600052601160045260246000fdfea26469706673582212201bbac4273b880c6be98cdbc1272a81c799c8a5a0aed6956c6b0387b877dfae0e64736f6c63430008000033",
					"opcodes": "PUSH1 0x80 PUSH1 0x40 MSTORE PUSH1 0xFF PUSH1 0x0 DUP1 PUSH2 0x100 EXP DUP2 SLOAD DUP2 PUSH1 0xFF MUL NOT AND SWAP1 DUP4 PUSH1 0xFF AND MUL OR SWAP1 SSTORE POP CALLVALUE DUP1 ISZERO PUSH2 0x2B JUMPI PUSH1 0x0 DUP1 REVERT JUMPDEST POP PUSH2 0x1BD DUP1 PUSH2 0x3B PUSH1 0x0 CODECOPY PUSH1 0x0 RETURN INVALID PUSH1 0x80 PUSH1 0x40 MSTORE CALLVALUE DUP1 ISZERO PUSH2 0x10 JUMPI PUSH1 0x0 DUP1 REVERT JUMPDEST POP PUSH1 0x4 CALLDATASIZE LT PUSH2 0x41 JUMPI PUSH1 0x0 CALLDATALOAD PUSH1 0xE0 SHR DUP1 PUSH4 0x3F556AF7 EQ PUSH2 0x46 JUMPI DUP1 PUSH4 0x45964E9E EQ PUSH2 0x50 JUMPI DUP1 PUSH4 0x4F2BE91F EQ PUSH2 0x6E JUMPI JUMPDEST PUSH1 0x0 DUP1 REVERT JUMPDEST PUSH2 0x4E PUSH2 0x78 JUMP JUMPDEST STOP JUMPDEST PUSH2 0x58 PUSH2 0xA4 JUMP JUMPDEST PUSH1 0x40 MLOAD PUSH2 0x65 SWAP2 SWAP1 PUSH2 0xF9 JUMP JUMPDEST PUSH1 0x40 MLOAD DUP1 SWAP2 SUB SWAP1 RETURN JUMPDEST PUSH2 0x76 PUSH2 0xB5 JUMP JUMPDEST STOP JUMPDEST PUSH1 0x1 PUSH1 0x0 DUP1 SLOAD SWAP1 PUSH2 0x100 EXP SWAP1 DIV PUSH1 0xFF AND ADD PUSH1 0x0 DUP1 PUSH2 0x100 EXP DUP2 SLOAD DUP2 PUSH1 0xFF MUL NOT AND SWAP1 DUP4 PUSH1 0xFF AND MUL OR SWAP1 SSTORE POP JUMP JUMPDEST PUSH1 0x0 DUP1 SLOAD SWAP1 PUSH2 0x100 EXP SWAP1 DIV PUSH1 0xFF AND DUP2 JUMP JUMPDEST PUSH1 0x1 PUSH1 0x0 DUP1 SLOAD SWAP1 PUSH2 0x100 EXP SWAP1 DIV PUSH1 0xFF AND PUSH2 0xCF SWAP2 SWAP1 PUSH2 0x114 JUMP JUMPDEST PUSH1 0x0 DUP1 PUSH2 0x100 EXP DUP2 SLOAD DUP2 PUSH1 0xFF MUL NOT AND SWAP1 DUP4 PUSH1 0xFF AND MUL OR SWAP1 SSTORE POP JUMP JUMPDEST PUSH2 0xF3 DUP2 PUSH2 0x14B JUMP JUMPDEST DUP3 MSTORE POP POP JUMP JUMPDEST PUSH1 0x0 PUSH1 0x20 DUP3 ADD SWAP1 POP PUSH2 0x10E PUSH1 0x0 DUP4 ADD DUP5 PUSH2 0xEA JUMP JUMPDEST SWAP3 SWAP2 POP POP JUMP JUMPDEST PUSH1 0x0 PUSH2 0x11F DUP3 PUSH2 0x14B JUMP JUMPDEST SWAP2 POP PUSH2 0x12A DUP4 PUSH2 0x14B JUMP JUMPDEST SWAP3 POP DUP3 PUSH1 0xFF SUB DUP3 GT ISZERO PUSH2 0x140 JUMPI PUSH2 0x13F PUSH2 0x158 JUMP JUMPDEST JUMPDEST DUP3 DUP3 ADD SWAP1 POP SWAP3 SWAP2 POP POP JUMP JUMPDEST PUSH1 0x0 PUSH1 0xFF DUP3 AND SWAP1 POP SWAP2 SWAP1 POP JUMP JUMPDEST PUSH32 0x4E487B7100000000000000000000000000000000000000000000000000000000 PUSH1 0x0 MSTORE PUSH1 0x11 PUSH1 0x4 MSTORE PUSH1 0x24 PUSH1 0x0 REVERT INVALID LOG2 PUSH5 0x6970667358 0x22 SLT KECCAK256 SHL 0xBA 0xC4 0x27 EXTCODESIZE DUP9 0xC PUSH12 0xE98CDBC1272A81C799C8A5A0 0xAE 0xD6 SWAP6 PUSH13 0x6B0387B877DFAE0E64736F6C63 NUMBER STOP ADDMOD STOP STOP CALLER "
				},
				"gasEstimates": {
					"creation": {
						"codeDepositCost": "89000",
						"executionCost": "21002",
						"totalCost": "110002"
					},
					"external": {
						"add()": "infinite",
						"addWithUncheckedKeyword()": "21828",
						"bigNumber()": "1168"
					}
				},
				"methodIdentifiers": {
					"add()": "4f2be91f",
					"addWithUncheckedKeyword()": "3f556af7",
					"bigNumber()": "45964e9e"
				}
			},
			"storageLayout": {
				"storage": [
					{
						"astId": 4,
						"contract": "SafeMathTester.sol:SafeMathTester",
						"label": "bigNumber",
						"offset": 0,
						"slot": "0",
						"type": "t_uint8"
					}
				],
				"types": {
					"t_uint8": {
						"encoding": "inplace",
						"label": "uint8",
						"numberOfBytes": "1"
					}
				}
			},
			"userdoc": {
				"kind": "user",
				"methods": {},
				"version": 1
			}
		}
	}
}