{
	"Fundme.sol": {
		"FundMe": {
			"abi": [
				{
					"inputs": [],
					"stateMutability": "nonpayable",
					"type": "constructor"
				},
				{
					"inputs": [
						{
							"internalType": "address",
							"name": "",
							"type": "address"
						}
					],
					"name": "addressToAmountFunded",
					"outputs": [
						{
							"internalType": "uint256",
							"name": "",
							"type": "uint256"
						}
					],
					"stateMutability": "view",
					"type": "function"
				},
				{
					"inputs": [],
					"name": "fund",
					"outputs": [],
					"stateMutability": "payable",
					"type": "function"
				},
				{
					"inputs": [
						{
							"internalType": "uint256",
							"name": "",
							"type": "uint256"
						}
					],
					"name": "funders",
					"outputs": [
						{
							"internalType": "address",
							"name": "",
							"type": "address"
						}
					],
					"stateMutability": "view",
					"type": "function"
				},
				{
					"inputs": [],
					"name": "minimumUsd",
					"outputs": [
						{
							"internalType": "uint256",
							"name": "",
							"type": "uint256"
						}
					],
					"stateMutability": "view",
					"type": "function"
				},
				{
					"inputs": [],
					"name": "owner",
					"outputs": [
						{
							"internalType": "address",
							"name": "",
							"type": "address"
						}
					],
					"stateMutability": "view",
					"type": "function"
				},
				{
					"inputs": [],
					"name": "withdraw",
					"outputs": [],
					"stateMutability": "nonpayable",
					"type": "function"
				}
			],
			"devdoc": {
				"kind": "dev",
				"methods": {},
				"version": 1
			},
			"evm": {
				"assembly": "    /* \"Fundme.sol\":171:2943  contract FundMe{... */\n  mstore(0x40, 0x80)\n    /* \"Fundme.sol\":264:273  50 * 1e18 */\n  0x02b5e3af16b1880000\n    /* \"Fundme.sol\":236:273  uint256 public minimumUsd=  50 * 1e18 */\n  0x00\n  sstore\n    /* \"Fundme.sol\":863:911  constructor(){... */\n  callvalue\n  dup1\n  iszero\n  tag_1\n  jumpi\n  0x00\n  dup1\n  revert\ntag_1:\n  pop\n    /* \"Fundme.sol\":893:903  msg.sender */\n  caller\n    /* \"Fundme.sol\":887:892  owner */\n  0x03\n  0x00\n    /* \"Fundme.sol\":887:903  owner=msg.sender */\n  0x0100\n  exp\n  dup2\n  sload\n  dup2\n  0xffffffffffffffffffffffffffffffffffffffff\n  mul\n  not\n  and\n  swap1\n  dup4\n  0xffffffffffffffffffffffffffffffffffffffff\n  and\n  mul\n  or\n  swap1\n  sstore\n  pop\n    /* \"Fundme.sol\":171:2943  contract FundMe{... */\n  dataSize(sub_0)\n  dup1\n  dataOffset(sub_0)\n  0x00\n  codecopy\n  0x00\n  return\nstop\n\nsub_0: assembly {\n        /* \"Fundme.sol\":171:2943  contract FundMe{... */\n      mstore(0x40, 0x80)\n      jumpi(tag_1, lt(calldatasize, 0x04))\n      shr(0xe0, calldataload(0x00))\n      dup1\n      0x098de820\n      eq\n      tag_2\n      jumpi\n      dup1\n      0x3ccfd60b\n      eq\n      tag_3\n      jumpi\n      dup1\n      0x3e47d6f3\n      eq\n      tag_4\n      jumpi\n      dup1\n      0x8da5cb5b\n      eq\n      tag_5\n      jumpi\n      dup1\n      0xb60d4288\n      eq\n      tag_6\n      jumpi\n      dup1\n      0xdc0d3dff\n      eq\n      tag_7\n      jumpi\n    tag_1:\n      0x00\n      dup1\n      revert\n        /* \"Fundme.sol\":236:273  uint256 public minimumUsd=  50 * 1e18 */\n    tag_2:\n      callvalue\n      dup1\n      iszero\n      tag_8\n      jumpi\n      0x00\n      dup1\n      revert\n    tag_8:\n      pop\n      tag_9\n      tag_10\n      jump\t// in\n    tag_9:\n      mload(0x40)\n      tag_11\n      swap2\n      swap1\n      tag_12\n      jump\t// in\n    tag_11:\n      mload(0x40)\n      dup1\n      swap2\n      sub\n      swap1\n      return\n        /* \"Fundme.sol\":1290:2924  function withdraw() public {... */\n    tag_3:\n      callvalue\n      dup1\n      iszero\n      tag_13\n      jumpi\n      0x00\n      dup1\n      revert\n    tag_13:\n      pop\n      tag_14\n      tag_15\n      jump\t// in\n    tag_14:\n      stop\n        /* \"Fundme.sol\":764:821  mapping( address => uint256 )public addressToAmountFunded */\n    tag_4:\n      callvalue\n      dup1\n      iszero\n      tag_16\n      jumpi\n      0x00\n      dup1\n      revert\n    tag_16:\n      pop\n      tag_17\n      0x04\n      dup1\n      calldatasize\n      sub\n      dup2\n      add\n      swap1\n      tag_18\n      swap2\n      swap1\n      tag_19\n      jump\t// in\n    tag_18:\n      tag_20\n      jump\t// in\n    tag_17:\n      mload(0x40)\n      tag_21\n      swap2\n      swap1\n      tag_12\n      jump\t// in\n    tag_21:\n      mload(0x40)\n      dup1\n      swap2\n      sub\n      swap1\n      return\n        /* \"Fundme.sol\":834:854  address public owner */\n    tag_5:\n      callvalue\n      dup1\n      iszero\n      tag_22\n      jumpi\n      0x00\n      dup1\n      revert\n    tag_22:\n      pop\n      tag_23\n      tag_24\n      jump\t// in\n    tag_23:\n      mload(0x40)\n      tag_25\n      swap2\n      swap1\n      tag_26\n      jump\t// in\n    tag_25:\n      mload(0x40)\n      dup1\n      swap2\n      sub\n      swap1\n      return\n        /* \"Fundme.sol\":923:1282  function fund()public payable {... */\n    tag_6:\n      tag_27\n      tag_28\n      jump\t// in\n    tag_27:\n      stop\n        /* \"Fundme.sol\":733:757  address[] public funders */\n    tag_7:\n      callvalue\n      dup1\n      iszero\n      tag_29\n      jumpi\n      0x00\n      dup1\n      revert\n    tag_29:\n      pop\n      tag_30\n      0x04\n      dup1\n      calldatasize\n      sub\n      dup2\n      add\n      swap1\n      tag_31\n      swap2\n      swap1\n      tag_32\n      jump\t// in\n    tag_31:\n      tag_33\n      jump\t// in\n    tag_30:\n      mload(0x40)\n      tag_34\n      swap2\n      swap1\n      tag_26\n      jump\t// in\n    tag_34:\n      mload(0x40)\n      dup1\n      swap2\n      sub\n      swap1\n      return\n        /* \"Fundme.sol\":236:273  uint256 public minimumUsd=  50 * 1e18 */\n    tag_10:\n      sload(0x00)\n      dup2\n      jump\t// out\n        /* \"Fundme.sol\":1290:2924  function withdraw() public {... */\n    tag_15:\n        /* \"Fundme.sol\":1469:1488  uint256 funderIndex */\n      0x00\n        /* \"Fundme.sol\":1465:1720  for(uint256 funderIndex=0;funderIndex < funders.length;funderIndex=funderIndex+1 /* or we can use this for incrementation   funderIndex++ */){... */\n    tag_36:\n        /* \"Fundme.sol\":1505:1512  funders */\n      0x01\n        /* \"Fundme.sol\":1505:1519  funders.length */\n      dup1\n      sload\n      swap1\n      pop\n        /* \"Fundme.sol\":1491:1502  funderIndex */\n      dup2\n        /* \"Fundme.sol\":1491:1519  funderIndex < funders.length */\n      lt\n        /* \"Fundme.sol\":1465:1720  for(uint256 funderIndex=0;funderIndex < funders.length;funderIndex=funderIndex+1 /* or we can use this for incrementation   funderIndex++ */){... */\n      iszero\n      tag_37\n      jumpi\n        /* \"Fundme.sol\":1623:1637  address funder */\n      0x00\n        /* \"Fundme.sol\":1640:1647  funders */\n      0x01\n        /* \"Fundme.sol\":1648:1659  funderIndex */\n      dup3\n        /* \"Fundme.sol\":1640:1660  funders[funderIndex] */\n      dup2\n      sload\n      dup2\n      lt\n      tag_39\n      jumpi\n      tag_40\n      tag_41\n      jump\t// in\n    tag_40:\n    tag_39:\n      swap1\n      0x00\n      mstore\n      keccak256(0x00, 0x20)\n      add\n      0x00\n      swap1\n      sload\n      swap1\n      0x0100\n      exp\n      swap1\n      div\n      0xffffffffffffffffffffffffffffffffffffffff\n      and\n        /* \"Fundme.sol\":1623:1660  address funder = funders[funderIndex] */\n      swap1\n      pop\n        /* \"Fundme.sol\":1705:1706  0 */\n      0x00\n        /* \"Fundme.sol\":1675:1696  addressToAmountFunded */\n      0x02\n        /* \"Fundme.sol\":1675:1704  addressToAmountFunded[funder] */\n      0x00\n        /* \"Fundme.sol\":1697:1703  funder */\n      dup4\n        /* \"Fundme.sol\":1675:1704  addressToAmountFunded[funder] */\n      0xffffffffffffffffffffffffffffffffffffffff\n      and\n      0xffffffffffffffffffffffffffffffffffffffff\n      and\n      dup2\n      mstore\n      0x20\n      add\n      swap1\n      dup2\n      mstore\n      0x20\n      add\n      0x00\n      keccak256\n        /* \"Fundme.sol\":1675:1706  addressToAmountFunded[funder]=0 */\n      dup2\n      swap1\n      sstore\n      pop\n        /* \"Fundme.sol\":1606:1720  {... */\n      pop\n        /* \"Fundme.sol\":1544:1545  1 */\n      0x01\n        /* \"Fundme.sol\":1532:1543  funderIndex */\n      dup2\n        /* \"Fundme.sol\":1532:1545  funderIndex+1 */\n      tag_43\n      swap2\n      swap1\n      tag_44\n      jump\t// in\n    tag_43:\n        /* \"Fundme.sol\":1520:1545  funderIndex=funderIndex+1 */\n      swap1\n      pop\n        /* \"Fundme.sol\":1465:1720  for(uint256 funderIndex=0;funderIndex < funders.length;funderIndex=funderIndex+1 /* or we can use this for incrementation   funderIndex++ */){... */\n      jump(tag_36)\n    tag_37:\n      pop\n        /* \"Fundme.sol\":1784:1785  0 */\n      0x00\n        /* \"Fundme.sol\":1769:1786  new  address[](0) */\n      0xffffffffffffffff\n      dup2\n      gt\n      iszero\n      tag_45\n      jumpi\n      tag_46\n      tag_47\n      jump\t// in\n    tag_46:\n    tag_45:\n      mload(0x40)\n      swap1\n      dup1\n      dup3\n      mstore\n      dup1\n      0x20\n      mul\n      0x20\n      add\n      dup3\n      add\n      0x40\n      mstore\n      dup1\n      iszero\n      tag_48\n      jumpi\n      dup2\n      0x20\n      add\n      0x20\n      dup3\n      mul\n      dup1\n      calldatasize\n      dup4\n      calldatacopy\n      dup1\n      dup3\n      add\n      swap2\n      pop\n      pop\n      swap1\n      pop\n    tag_48:\n      pop\n        /* \"Fundme.sol\":1759:1766  funders */\n      0x01\n        /* \"Fundme.sol\":1759:1786  funders = new  address[](0) */\n      swap1\n      dup1\n      mload\n      swap1\n      0x20\n      add\n      swap1\n      tag_49\n      swap3\n      swap2\n      swap1\n      tag_50\n      jump\t// in\n    tag_49:\n      pop\n        /* \"Fundme.sol\":2219:2229  msg.sender */\n      caller\n        /* \"Fundme.sol\":2210:2239  payable (msg.sender).transfer */\n      0xffffffffffffffffffffffffffffffffffffffff\n      and\n        /* \"Fundme.sol\":2210:2262  payable (msg.sender).transfer(address(this).balance) */\n      0x08fc\n        /* \"Fundme.sol\":2240:2261  address(this).balance */\n      selfbalance\n        /* \"Fundme.sol\":2210:2262  payable (msg.sender).transfer(address(this).balance) */\n      swap1\n      dup2\n      iszero\n      mul\n      swap1\n      mload(0x40)\n      0x00\n      mload(0x40)\n      dup1\n      dup4\n      sub\n      dup2\n      dup6\n      dup9\n      dup9\n      call\n      swap4\n      pop\n      pop\n      pop\n      pop\n      iszero\n      dup1\n      iszero\n      tag_52\n      jumpi\n      returndatasize\n      0x00\n      dup1\n      returndatacopy\n      revert(0x00, returndatasize)\n    tag_52:\n      pop\n        /* \"Fundme.sol\":2335:2351  bool sendSuccess */\n      0x00\n        /* \"Fundme.sol\":2360:2370  msg.sender */\n      caller\n        /* \"Fundme.sol\":2352:2376  payable(msg.sender).send */\n      0xffffffffffffffffffffffffffffffffffffffff\n      and\n        /* \"Fundme.sol\":2352:2399  payable(msg.sender).send(address(this).balance) */\n      0x08fc\n        /* \"Fundme.sol\":2377:2398  address(this).balance */\n      selfbalance\n        /* \"Fundme.sol\":2352:2399  payable(msg.sender).send(address(this).balance) */\n      swap1\n      dup2\n      iszero\n      mul\n      swap1\n      mload(0x40)\n      0x00\n      mload(0x40)\n      dup1\n      dup4\n      sub\n      dup2\n      dup6\n      dup9\n      dup9\n      call\n      swap4\n      pop\n      pop\n      pop\n      pop\n        /* \"Fundme.sol\":2335:2399  bool sendSuccess=payable(msg.sender).send(address(this).balance) */\n      swap1\n      pop\n        /* \"Fundme.sol\":2419:2430  sendSuccess */\n      dup1\n        /* \"Fundme.sol\":2410:2445  require (sendSuccess,\"SEnd Failed\") */\n      tag_54\n      jumpi\n      mload(0x40)\n      0x08c379a000000000000000000000000000000000000000000000000000000000\n      dup2\n      mstore\n      0x04\n      add\n      tag_55\n      swap1\n      tag_56\n      jump\t// in\n    tag_55:\n      mload(0x40)\n      dup1\n      swap2\n      sub\n      swap1\n      revert\n    tag_54:\n        /* \"Fundme.sol\":2693:2709  bool callSuccess */\n      0x00\n        /* \"Fundme.sol\":2722:2732  msg.sender */\n      caller\n        /* \"Fundme.sol\":2714:2738  payable(msg.sender).call */\n      0xffffffffffffffffffffffffffffffffffffffff\n      and\n        /* \"Fundme.sol\":2745:2766  address(this).balance */\n      selfbalance\n        /* \"Fundme.sol\":2714:2771  payable(msg.sender).call{value:address(this).balance}(\"\") */\n      mload(0x40)\n      tag_57\n      swap1\n      tag_58\n      jump\t// in\n    tag_57:\n      0x00\n      mload(0x40)\n      dup1\n      dup4\n      sub\n      dup2\n      dup6\n      dup8\n      gas\n      call\n      swap3\n      pop\n      pop\n      pop\n      returndatasize\n      dup1\n      0x00\n      dup2\n      eq\n      tag_61\n      jumpi\n      mload(0x40)\n      swap2\n      pop\n      and(add(returndatasize, 0x3f), not(0x1f))\n      dup3\n      add\n      0x40\n      mstore\n      returndatasize\n      dup3\n      mstore\n      returndatasize\n      0x00\n      0x20\n      dup5\n      add\n      returndatacopy\n      jump(tag_60)\n    tag_61:\n      0x60\n      swap2\n      pop\n    tag_60:\n      pop\n        /* \"Fundme.sol\":2692:2771  (bool callSuccess , )=payable(msg.sender).call{value:address(this).balance}(\"\") */\n      pop\n      swap1\n      pop\n        /* \"Fundme.sol\":2851:2862  callSuccess */\n      dup1\n        /* \"Fundme.sol\":2842:2877  require (callSuccess,\"call Failed\") */\n      tag_62\n      jumpi\n      mload(0x40)\n      0x08c379a000000000000000000000000000000000000000000000000000000000\n      dup2\n      mstore\n      0x04\n      add\n      tag_63\n      swap1\n      tag_64\n      jump\t// in\n    tag_63:\n      mload(0x40)\n      dup1\n      swap2\n      sub\n      swap1\n      revert\n    tag_62:\n        /* \"Fundme.sol\":1317:2924  {... */\n      pop\n      pop\n        /* \"Fundme.sol\":1290:2924  function withdraw() public {... */\n      jump\t// out\n        /* \"Fundme.sol\":764:821  mapping( address => uint256 )public addressToAmountFunded */\n    tag_20:\n      mstore(0x20, 0x02)\n      dup1\n      0x00\n      mstore\n      keccak256(0x00, 0x40)\n      0x00\n      swap2\n      pop\n      swap1\n      pop\n      sload\n      dup2\n      jump\t// out\n        /* \"Fundme.sol\":834:854  address public owner */\n    tag_24:\n      0x03\n      0x00\n      swap1\n      sload\n      swap1\n      0x0100\n      exp\n      swap1\n      div\n      0xffffffffffffffffffffffffffffffffffffffff\n      and\n      dup2\n      jump\t// out\n        /* \"Fundme.sol\":923:1282  function fund()public payable {... */\n    tag_28:\n        /* \"Fundme.sol\":1003:1013  minimumUsd */\n      sload(0x00)\n        /* \"Fundme.sol\":972:1001  msg.value.getConversionRate() */\n      tag_66\n        /* \"Fundme.sol\":972:981  msg.value */\n      callvalue\n        /* \"Fundme.sol\":972:999  msg.value.getConversionRate */\n      tag_67\n        /* \"Fundme.sol\":972:1001  msg.value.getConversionRate() */\n      jump\t// in\n    tag_66:\n        /* \"Fundme.sol\":972:1013  msg.value.getConversionRate()>=minimumUsd */\n      lt\n      iszero\n        /* \"Fundme.sol\":964:1039  require(msg.value.getConversionRate()>=minimumUsd,\"did'nt send enough eth\") */\n      tag_68\n      jumpi\n      mload(0x40)\n      0x08c379a000000000000000000000000000000000000000000000000000000000\n      dup2\n      mstore\n      0x04\n      add\n      tag_69\n      swap1\n      tag_70\n      jump\t// in\n    tag_69:\n      mload(0x40)\n      dup1\n      swap2\n      sub\n      swap1\n      revert\n    tag_68:\n        /* \"Fundme.sol\":1196:1203  funders */\n      0x01\n        /* \"Fundme.sol\":1209:1219  msg.sender */\n      caller\n        /* \"Fundme.sol\":1196:1220  funders.push(msg.sender) */\n      swap1\n      dup1\n      0x01\n      dup2\n      sload\n      add\n      dup1\n      dup3\n      sstore\n      dup1\n      swap2\n      pop\n      pop\n      0x01\n      swap1\n      sub\n      swap1\n      0x00\n      mstore\n      keccak256(0x00, 0x20)\n      add\n      0x00\n      swap1\n      swap2\n      swap1\n      swap2\n      swap1\n      swap2\n      0x0100\n      exp\n      dup2\n      sload\n      dup2\n      0xffffffffffffffffffffffffffffffffffffffff\n      mul\n      not\n      and\n      swap1\n      dup4\n      0xffffffffffffffffffffffffffffffffffffffff\n      and\n      mul\n      or\n      swap1\n      sstore\n      pop\n        /* \"Fundme.sol\":1265:1274  msg.value */\n      callvalue\n        /* \"Fundme.sol\":1231:1252  addressToAmountFunded */\n      0x02\n        /* \"Fundme.sol\":1231:1264  addressToAmountFunded[msg.sender] */\n      0x00\n        /* \"Fundme.sol\":1253:1263  msg.sender */\n      caller\n        /* \"Fundme.sol\":1231:1264  addressToAmountFunded[msg.sender] */\n      0xffffffffffffffffffffffffffffffffffffffff\n      and\n      0xffffffffffffffffffffffffffffffffffffffff\n      and\n      dup2\n      mstore\n      0x20\n      add\n      swap1\n      dup2\n      mstore\n      0x20\n      add\n      0x00\n      keccak256\n        /* \"Fundme.sol\":1231:1274  addressToAmountFunded[msg.sender]=msg.value */\n      dup2\n      swap1\n      sstore\n      pop\n        /* \"Fundme.sol\":923:1282  function fund()public payable {... */\n      jump\t// out\n        /* \"Fundme.sol\":733:757  address[] public funders */\n    tag_33:\n      0x01\n      dup2\n      dup2\n      sload\n      dup2\n      lt\n      tag_72\n      jumpi\n      0x00\n      dup1\n      revert\n    tag_72:\n      swap1\n      0x00\n      mstore\n      keccak256(0x00, 0x20)\n      add\n      0x00\n      swap2\n      pop\n      sload\n      swap1\n      0x0100\n      exp\n      swap1\n      div\n      0xffffffffffffffffffffffffffffffffffffffff\n      and\n      dup2\n      jump\t// out\n        /* \"PriceConverter.sol\":1304:1675  function getConversionRate(uint256 ethAmount )internal view returns (uint256){... */\n    tag_67:\n        /* \"PriceConverter.sol\":1373:1380  uint256 */\n      0x00\n        /* \"PriceConverter.sol\":1392:1408  uint256 ethPrice */\n      dup1\n        /* \"PriceConverter.sol\":1409:1419  getPrice() */\n      tag_75\n        /* \"PriceConverter.sol\":1409:1417  getPrice */\n      tag_76\n        /* \"PriceConverter.sol\":1409:1419  getPrice() */\n      jump\t// in\n    tag_75:\n        /* \"PriceConverter.sol\":1392:1419  uint256 ethPrice=getPrice() */\n      swap1\n      pop\n        /* \"PriceConverter.sol\":1585:1607  uint256 ethAmountInUsd */\n      0x00\n        /* \"PriceConverter.sol\":1629:1633  1e18 */\n      0x0de0b6b3a7640000\n        /* \"PriceConverter.sol\":1618:1627  ethAmount */\n      dup5\n        /* \"PriceConverter.sol\":1609:1617  ethPrice */\n      dup4\n        /* \"PriceConverter.sol\":1609:1627  ethPrice*ethAmount */\n      tag_77\n      swap2\n      swap1\n      tag_78\n      jump\t// in\n    tag_77:\n        /* \"PriceConverter.sol\":1608:1633  (ethPrice*ethAmount)/1e18 */\n      tag_79\n      swap2\n      swap1\n      tag_80\n      jump\t// in\n    tag_79:\n        /* \"PriceConverter.sol\":1585:1633  uint256 ethAmountInUsd=(ethPrice*ethAmount)/1e18 */\n      swap1\n      pop\n        /* \"PriceConverter.sol\":1651:1665  ethAmountInUsd */\n      dup1\n        /* \"PriceConverter.sol\":1644:1665  return ethAmountInUsd */\n      swap3\n      pop\n      pop\n      pop\n        /* \"PriceConverter.sol\":1304:1675  function getConversionRate(uint256 ethAmount )internal view returns (uint256){... */\n      swap2\n      swap1\n      pop\n      jump\t// out\n        /* \"PriceConverter.sol\":250:1027  function getPrice()internal view returns (uint256){... */\n    tag_76:\n        /* \"PriceConverter.sol\":292:299  uint256 */\n      0x00\n        /* \"PriceConverter.sol\":311:342  AggregatorV3Interface priceFeed */\n      dup1\n        /* \"PriceConverter.sol\":365:407  0x694AA1769357215DE4FAC081bf1f309aDC325306 */\n      0x694aa1769357215de4fac081bf1f309adc325306\n        /* \"PriceConverter.sol\":311:408  AggregatorV3Interface priceFeed=AggregatorV3Interface(0x694AA1769357215DE4FAC081bf1f309aDC325306) */\n      swap1\n      pop\n        /* \"PriceConverter.sol\":421:433  int256 price */\n      0x00\n        /* \"PriceConverter.sol\":438:447  priceFeed */\n      dup2\n        /* \"PriceConverter.sol\":438:463  priceFeed.latestRoundData */\n      0xffffffffffffffffffffffffffffffffffffffff\n      and\n      0xfeaf968c\n        /* \"PriceConverter.sol\":438:465  priceFeed.latestRoundData() */\n      mload(0x40)\n      dup2\n      0xffffffff\n      and\n      0xe0\n      shl\n      dup2\n      mstore\n      0x04\n      add\n      0xa0\n      mload(0x40)\n      dup1\n      dup4\n      sub\n      dup2\n      dup7\n      dup1\n      extcodesize\n      iszero\n      dup1\n      iszero\n      tag_82\n      jumpi\n      0x00\n      dup1\n      revert\n    tag_82:\n      pop\n      gas\n      staticcall\n      iszero\n      dup1\n      iszero\n      tag_84\n      jumpi\n      returndatasize\n      0x00\n      dup1\n      returndatacopy\n      revert(0x00, returndatasize)\n    tag_84:\n      pop\n      pop\n      pop\n      pop\n      mload(0x40)\n      returndatasize\n      not(0x1f)\n      0x1f\n      dup3\n      add\n      and\n      dup3\n      add\n      dup1\n      0x40\n      mstore\n      pop\n      dup2\n      add\n      swap1\n      tag_85\n      swap2\n      swap1\n      tag_86\n      jump\t// in\n    tag_85:\n        /* \"PriceConverter.sol\":419:465  (,int256 price,,,)=priceFeed.latestRoundData() */\n      pop\n      pop\n      pop\n      swap2\n      pop\n      pop\n        /* \"PriceConverter.sol\":737:741  1e10 */\n      0x02540be400\n        /* \"PriceConverter.sol\":731:736  price */\n      dup2\n        /* \"PriceConverter.sol\":731:741  price*1e10 */\n      tag_87\n      swap2\n      swap1\n      tag_88\n      jump\t// in\n    tag_87:\n        /* \"PriceConverter.sol\":716:742  return uint256(price*1e10) */\n      swap3\n      pop\n      pop\n      pop\n        /* \"PriceConverter.sol\":250:1027  function getPrice()internal view returns (uint256){... */\n      swap1\n      jump\t// out\n    tag_50:\n      dup3\n      dup1\n      sload\n      dup3\n      dup3\n      sstore\n      swap1\n      0x00\n      mstore\n      keccak256(0x00, 0x20)\n      swap1\n      dup2\n      add\n      swap3\n      dup3\n      iszero\n      tag_89\n      jumpi\n      swap2\n      0x20\n      mul\n      dup3\n      add\n    tag_90:\n      dup3\n      dup2\n      gt\n      iszero\n      tag_91\n      jumpi\n      dup3\n      mload\n      dup3\n      exp(0x0100, 0x00)\n      dup2\n      sload\n      dup2\n      0xffffffffffffffffffffffffffffffffffffffff\n      mul\n      not\n      and\n      swap1\n      dup4\n      0xffffffffffffffffffffffffffffffffffffffff\n      and\n      mul\n      or\n      swap1\n      sstore\n      pop\n      swap2\n      0x20\n      add\n      swap2\n      swap1\n      0x01\n      add\n      swap1\n      jump(tag_90)\n    tag_91:\n    tag_89:\n      pop\n      swap1\n      pop\n      tag_92\n      swap2\n      swap1\n      tag_93\n      jump\t// in\n    tag_92:\n      pop\n      swap1\n      jump\t// out\n    tag_93:\n    tag_94:\n      dup1\n      dup3\n      gt\n      iszero\n      tag_95\n      jumpi\n      0x00\n      dup2\n      0x00\n      swap1\n      sstore\n      pop\n      0x01\n      add\n      jump(tag_94)\n    tag_95:\n      pop\n      swap1\n      jump\t// out\n        /* \"#utility.yul\":7:84   */\n    tag_96:\n        /* \"#utility.yul\":44:51   */\n      0x00\n        /* \"#utility.yul\":73:78   */\n      dup2\n        /* \"#utility.yul\":62:78   */\n      swap1\n      pop\n        /* \"#utility.yul\":7:84   */\n      swap2\n      swap1\n      pop\n      jump\t// out\n        /* \"#utility.yul\":90:208   */\n    tag_97:\n        /* \"#utility.yul\":177:201   */\n      tag_130\n        /* \"#utility.yul\":195:200   */\n      dup2\n        /* \"#utility.yul\":177:201   */\n      tag_96\n      jump\t// in\n    tag_130:\n        /* \"#utility.yul\":172:175   */\n      dup3\n        /* \"#utility.yul\":165:202   */\n      mstore\n        /* \"#utility.yul\":90:208   */\n      pop\n      pop\n      jump\t// out\n        /* \"#utility.yul\":214:436   */\n    tag_12:\n        /* \"#utility.yul\":307:311   */\n      0x00\n        /* \"#utility.yul\":345:347   */\n      0x20\n        /* \"#utility.yul\":334:343   */\n      dup3\n        /* \"#utility.yul\":330:348   */\n      add\n        /* \"#utility.yul\":322:348   */\n      swap1\n      pop\n        /* \"#utility.yul\":358:429   */\n      tag_132\n        /* \"#utility.yul\":426:427   */\n      0x00\n        /* \"#utility.yul\":415:424   */\n      dup4\n        /* \"#utility.yul\":411:428   */\n      add\n        /* \"#utility.yul\":402:408   */\n      dup5\n        /* \"#utility.yul\":358:429   */\n      tag_97\n      jump\t// in\n    tag_132:\n        /* \"#utility.yul\":214:436   */\n      swap3\n      swap2\n      pop\n      pop\n      jump\t// out\n        /* \"#utility.yul\":523:640   */\n    tag_99:\n        /* \"#utility.yul\":632:633   */\n      0x00\n        /* \"#utility.yul\":629:630   */\n      dup1\n        /* \"#utility.yul\":622:634   */\n      revert\n        /* \"#utility.yul\":769:895   */\n    tag_101:\n        /* \"#utility.yul\":806:813   */\n      0x00\n        /* \"#utility.yul\":846:888   */\n      0xffffffffffffffffffffffffffffffffffffffff\n        /* \"#utility.yul\":839:844   */\n      dup3\n        /* \"#utility.yul\":835:889   */\n      and\n        /* \"#utility.yul\":824:889   */\n      swap1\n      pop\n        /* \"#utility.yul\":769:895   */\n      swap2\n      swap1\n      pop\n      jump\t// out\n        /* \"#utility.yul\":901:997   */\n    tag_102:\n        /* \"#utility.yul\":938:945   */\n      0x00\n        /* \"#utility.yul\":967:991   */\n      tag_138\n        /* \"#utility.yul\":985:990   */\n      dup3\n        /* \"#utility.yul\":967:991   */\n      tag_101\n      jump\t// in\n    tag_138:\n        /* \"#utility.yul\":956:991   */\n      swap1\n      pop\n        /* \"#utility.yul\":901:997   */\n      swap2\n      swap1\n      pop\n      jump\t// out\n        /* \"#utility.yul\":1003:1125   */\n    tag_103:\n        /* \"#utility.yul\":1076:1100   */\n      tag_140\n        /* \"#utility.yul\":1094:1099   */\n      dup2\n        /* \"#utility.yul\":1076:1100   */\n      tag_102\n      jump\t// in\n    tag_140:\n        /* \"#utility.yul\":1069:1074   */\n      dup2\n        /* \"#utility.yul\":1066:1101   */\n      eq\n        /* \"#utility.yul\":1056:1119   */\n      tag_141\n      jumpi\n        /* \"#utility.yul\":1115:1116   */\n      0x00\n        /* \"#utility.yul\":1112:1113   */\n      dup1\n        /* \"#utility.yul\":1105:1117   */\n      revert\n        /* \"#utility.yul\":1056:1119   */\n    tag_141:\n        /* \"#utility.yul\":1003:1125   */\n      pop\n      jump\t// out\n        /* \"#utility.yul\":1131:1270   */\n    tag_104:\n        /* \"#utility.yul\":1177:1182   */\n      0x00\n        /* \"#utility.yul\":1215:1221   */\n      dup2\n        /* \"#utility.yul\":1202:1222   */\n      calldataload\n        /* \"#utility.yul\":1193:1222   */\n      swap1\n      pop\n        /* \"#utility.yul\":1231:1264   */\n      tag_143\n        /* \"#utility.yul\":1258:1263   */\n      dup2\n        /* \"#utility.yul\":1231:1264   */\n      tag_103\n      jump\t// in\n    tag_143:\n        /* \"#utility.yul\":1131:1270   */\n      swap3\n      swap2\n      pop\n      pop\n      jump\t// out\n        /* \"#utility.yul\":1276:1605   */\n    tag_19:\n        /* \"#utility.yul\":1335:1341   */\n      0x00\n        /* \"#utility.yul\":1384:1386   */\n      0x20\n        /* \"#utility.yul\":1372:1381   */\n      dup3\n        /* \"#utility.yul\":1363:1370   */\n      dup5\n        /* \"#utility.yul\":1359:1382   */\n      sub\n        /* \"#utility.yul\":1355:1387   */\n      slt\n        /* \"#utility.yul\":1352:1471   */\n      iszero\n      tag_145\n      jumpi\n        /* \"#utility.yul\":1390:1469   */\n      tag_146\n      tag_99\n      jump\t// in\n    tag_146:\n        /* \"#utility.yul\":1352:1471   */\n    tag_145:\n        /* \"#utility.yul\":1510:1511   */\n      0x00\n        /* \"#utility.yul\":1535:1588   */\n      tag_147\n        /* \"#utility.yul\":1580:1587   */\n      dup5\n        /* \"#utility.yul\":1571:1577   */\n      dup3\n        /* \"#utility.yul\":1560:1569   */\n      dup6\n        /* \"#utility.yul\":1556:1578   */\n      add\n        /* \"#utility.yul\":1535:1588   */\n      tag_104\n      jump\t// in\n    tag_147:\n        /* \"#utility.yul\":1525:1588   */\n      swap2\n      pop\n        /* \"#utility.yul\":1481:1598   */\n      pop\n        /* \"#utility.yul\":1276:1605   */\n      swap3\n      swap2\n      pop\n      pop\n      jump\t// out\n        /* \"#utility.yul\":1611:1729   */\n    tag_105:\n        /* \"#utility.yul\":1698:1722   */\n      tag_149\n        /* \"#utility.yul\":1716:1721   */\n      dup2\n        /* \"#utility.yul\":1698:1722   */\n      tag_102\n      jump\t// in\n    tag_149:\n        /* \"#utility.yul\":1693:1696   */\n      dup3\n        /* \"#utility.yul\":1686:1723   */\n      mstore\n        /* \"#utility.yul\":1611:1729   */\n      pop\n      pop\n      jump\t// out\n        /* \"#utility.yul\":1735:1957   */\n    tag_26:\n        /* \"#utility.yul\":1828:1832   */\n      0x00\n        /* \"#utility.yul\":1866:1868   */\n      0x20\n        /* \"#utility.yul\":1855:1864   */\n      dup3\n        /* \"#utility.yul\":1851:1869   */\n      add\n        /* \"#utility.yul\":1843:1869   */\n      swap1\n      pop\n        /* \"#utility.yul\":1879:1950   */\n      tag_151\n        /* \"#utility.yul\":1947:1948   */\n      0x00\n        /* \"#utility.yul\":1936:1945   */\n      dup4\n        /* \"#utility.yul\":1932:1949   */\n      add\n        /* \"#utility.yul\":1923:1929   */\n      dup5\n        /* \"#utility.yul\":1879:1950   */\n      tag_105\n      jump\t// in\n    tag_151:\n        /* \"#utility.yul\":1735:1957   */\n      swap3\n      swap2\n      pop\n      pop\n      jump\t// out\n        /* \"#utility.yul\":1963:2085   */\n    tag_106:\n        /* \"#utility.yul\":2036:2060   */\n      tag_153\n        /* \"#utility.yul\":2054:2059   */\n      dup2\n        /* \"#utility.yul\":2036:2060   */\n      tag_96\n      jump\t// in\n    tag_153:\n        /* \"#utility.yul\":2029:2034   */\n      dup2\n        /* \"#utility.yul\":2026:2061   */\n      eq\n        /* \"#utility.yul\":2016:2079   */\n      tag_154\n      jumpi\n        /* \"#utility.yul\":2075:2076   */\n      0x00\n        /* \"#utility.yul\":2072:2073   */\n      dup1\n        /* \"#utility.yul\":2065:2077   */\n      revert\n        /* \"#utility.yul\":2016:2079   */\n    tag_154:\n        /* \"#utility.yul\":1963:2085   */\n      pop\n      jump\t// out\n        /* \"#utility.yul\":2091:2230   */\n    tag_107:\n        /* \"#utility.yul\":2137:2142   */\n      0x00\n        /* \"#utility.yul\":2175:2181   */\n      dup2\n        /* \"#utility.yul\":2162:2182   */\n      calldataload\n        /* \"#utility.yul\":2153:2182   */\n      swap1\n      pop\n        /* \"#utility.yul\":2191:2224   */\n      tag_156\n        /* \"#utility.yul\":2218:2223   */\n      dup2\n        /* \"#utility.yul\":2191:2224   */\n      tag_106\n      jump\t// in\n    tag_156:\n        /* \"#utility.yul\":2091:2230   */\n      swap3\n      swap2\n      pop\n      pop\n      jump\t// out\n        /* \"#utility.yul\":2236:2565   */\n    tag_32:\n        /* \"#utility.yul\":2295:2301   */\n      0x00\n        /* \"#utility.yul\":2344:2346   */\n      0x20\n        /* \"#utility.yul\":2332:2341   */\n      dup3\n        /* \"#utility.yul\":2323:2330   */\n      dup5\n        /* \"#utility.yul\":2319:2342   */\n      sub\n        /* \"#utility.yul\":2315:2347   */\n      slt\n        /* \"#utility.yul\":2312:2431   */\n      iszero\n      tag_158\n      jumpi\n        /* \"#utility.yul\":2350:2429   */\n      tag_159\n      tag_99\n      jump\t// in\n    tag_159:\n        /* \"#utility.yul\":2312:2431   */\n    tag_158:\n        /* \"#utility.yul\":2470:2471   */\n      0x00\n        /* \"#utility.yul\":2495:2548   */\n      tag_160\n        /* \"#utility.yul\":2540:2547   */\n      dup5\n        /* \"#utility.yul\":2531:2537   */\n      dup3\n        /* \"#utility.yul\":2520:2529   */\n      dup6\n        /* \"#utility.yul\":2516:2538   */\n      add\n        /* \"#utility.yul\":2495:2548   */\n      tag_107\n      jump\t// in\n    tag_160:\n        /* \"#utility.yul\":2485:2548   */\n      swap2\n      pop\n        /* \"#utility.yul\":2441:2558   */\n      pop\n        /* \"#utility.yul\":2236:2565   */\n      swap3\n      swap2\n      pop\n      pop\n      jump\t// out\n        /* \"#utility.yul\":2571:2751   */\n    tag_41:\n        /* \"#utility.yul\":2619:2696   */\n      0x4e487b7100000000000000000000000000000000000000000000000000000000\n        /* \"#utility.yul\":2616:2617   */\n      0x00\n        /* \"#utility.yul\":2609:2697   */\n      mstore\n        /* \"#utility.yul\":2716:2720   */\n      0x32\n        /* \"#utility.yul\":2713:2714   */\n      0x04\n        /* \"#utility.yul\":2706:2721   */\n      mstore\n        /* \"#utility.yul\":2740:2744   */\n      0x24\n        /* \"#utility.yul\":2737:2738   */\n      0x00\n        /* \"#utility.yul\":2730:2745   */\n      revert\n        /* \"#utility.yul\":2757:2937   */\n    tag_108:\n        /* \"#utility.yul\":2805:2882   */\n      0x4e487b7100000000000000000000000000000000000000000000000000000000\n        /* \"#utility.yul\":2802:2803   */\n      0x00\n        /* \"#utility.yul\":2795:2883   */\n      mstore\n        /* \"#utility.yul\":2902:2906   */\n      0x11\n        /* \"#utility.yul\":2899:2900   */\n      0x04\n        /* \"#utility.yul\":2892:2907   */\n      mstore\n        /* \"#utility.yul\":2926:2930   */\n      0x24\n        /* \"#utility.yul\":2923:2924   */\n      0x00\n        /* \"#utility.yul\":2916:2931   */\n      revert\n        /* \"#utility.yul\":2943:3248   */\n    tag_44:\n        /* \"#utility.yul\":2983:2986   */\n      0x00\n        /* \"#utility.yul\":3002:3022   */\n      tag_164\n        /* \"#utility.yul\":3020:3021   */\n      dup3\n        /* \"#utility.yul\":3002:3022   */\n      tag_96\n      jump\t// in\n    tag_164:\n        /* \"#utility.yul\":2997:3022   */\n      swap2\n      pop\n        /* \"#utility.yul\":3036:3056   */\n      tag_165\n        /* \"#utility.yul\":3054:3055   */\n      dup4\n        /* \"#utility.yul\":3036:3056   */\n      tag_96\n      jump\t// in\n    tag_165:\n        /* \"#utility.yul\":3031:3056   */\n      swap3\n      pop\n        /* \"#utility.yul\":3190:3191   */\n      dup3\n        /* \"#utility.yul\":3122:3188   */\n      0xffffffffffffffffffffffffffffffffffffffffffffffffffffffffffffffff\n        /* \"#utility.yul\":3118:3192   */\n      sub\n        /* \"#utility.yul\":3115:3116   */\n      dup3\n        /* \"#utility.yul\":3112:3193   */\n      gt\n        /* \"#utility.yul\":3109:3216   */\n      iszero\n      tag_166\n      jumpi\n        /* \"#utility.yul\":3196:3214   */\n      tag_167\n      tag_108\n      jump\t// in\n    tag_167:\n        /* \"#utility.yul\":3109:3216   */\n    tag_166:\n        /* \"#utility.yul\":3240:3241   */\n      dup3\n        /* \"#utility.yul\":3237:3238   */\n      dup3\n        /* \"#utility.yul\":3233:3242   */\n      add\n        /* \"#utility.yul\":3226:3242   */\n      swap1\n      pop\n        /* \"#utility.yul\":2943:3248   */\n      swap3\n      swap2\n      pop\n      pop\n      jump\t// out\n        /* \"#utility.yul\":3254:3434   */\n    tag_47:\n        /* \"#utility.yul\":3302:3379   */\n      0x4e487b7100000000000000000000000000000000000000000000000000000000\n        /* \"#utility.yul\":3299:3300   */\n      0x00\n        /* \"#utility.yul\":3292:3380   */\n      mstore\n        /* \"#utility.yul\":3399:3403   */\n      0x41\n        /* \"#utility.yul\":3396:3397   */\n      0x04\n        /* \"#utility.yul\":3389:3404   */\n      mstore\n        /* \"#utility.yul\":3423:3427   */\n      0x24\n        /* \"#utility.yul\":3420:3421   */\n      0x00\n        /* \"#utility.yul\":3413:3428   */\n      revert\n        /* \"#utility.yul\":3440:3609   */\n    tag_109:\n        /* \"#utility.yul\":3524:3535   */\n      0x00\n        /* \"#utility.yul\":3558:3564   */\n      dup3\n        /* \"#utility.yul\":3553:3556   */\n      dup3\n        /* \"#utility.yul\":3546:3565   */\n      mstore\n        /* \"#utility.yul\":3598:3602   */\n      0x20\n        /* \"#utility.yul\":3593:3596   */\n      dup3\n        /* \"#utility.yul\":3589:3603   */\n      add\n        /* \"#utility.yul\":3574:3603   */\n      swap1\n      pop\n        /* \"#utility.yul\":3440:3609   */\n      swap3\n      swap2\n      pop\n      pop\n      jump\t// out\n        /* \"#utility.yul\":3615:3776   */\n    tag_110:\n        /* \"#utility.yul\":3755:3768   */\n      0x53456e64204661696c6564000000000000000000000000000000000000000000\n        /* \"#utility.yul\":3751:3752   */\n      0x00\n        /* \"#utility.yul\":3743:3749   */\n      dup3\n        /* \"#utility.yul\":3739:3753   */\n      add\n        /* \"#utility.yul\":3732:3769   */\n      mstore\n        /* \"#utility.yul\":3615:3776   */\n      pop\n      jump\t// out\n        /* \"#utility.yul\":3782:4148   */\n    tag_111:\n        /* \"#utility.yul\":3924:3927   */\n      0x00\n        /* \"#utility.yul\":3945:4012   */\n      tag_172\n        /* \"#utility.yul\":4009:4011   */\n      0x0b\n        /* \"#utility.yul\":4004:4007   */\n      dup4\n        /* \"#utility.yul\":3945:4012   */\n      tag_109\n      jump\t// in\n    tag_172:\n        /* \"#utility.yul\":3938:4012   */\n      swap2\n      pop\n        /* \"#utility.yul\":4021:4114   */\n      tag_173\n        /* \"#utility.yul\":4110:4113   */\n      dup3\n        /* \"#utility.yul\":4021:4114   */\n      tag_110\n      jump\t// in\n    tag_173:\n        /* \"#utility.yul\":4139:4141   */\n      0x20\n        /* \"#utility.yul\":4134:4137   */\n      dup3\n        /* \"#utility.yul\":4130:4142   */\n      add\n        /* \"#utility.yul\":4123:4142   */\n      swap1\n      pop\n        /* \"#utility.yul\":3782:4148   */\n      swap2\n      swap1\n      pop\n      jump\t// out\n        /* \"#utility.yul\":4154:4573   */\n    tag_56:\n        /* \"#utility.yul\":4320:4324   */\n      0x00\n        /* \"#utility.yul\":4358:4360   */\n      0x20\n        /* \"#utility.yul\":4347:4356   */\n      dup3\n        /* \"#utility.yul\":4343:4361   */\n      add\n        /* \"#utility.yul\":4335:4361   */\n      swap1\n      pop\n        /* \"#utility.yul\":4407:4416   */\n      dup2\n        /* \"#utility.yul\":4401:4405   */\n      dup2\n        /* \"#utility.yul\":4397:4417   */\n      sub\n        /* \"#utility.yul\":4393:4394   */\n      0x00\n        /* \"#utility.yul\":4382:4391   */\n      dup4\n        /* \"#utility.yul\":4378:4395   */\n      add\n        /* \"#utility.yul\":4371:4418   */\n      mstore\n        /* \"#utility.yul\":4435:4566   */\n      tag_175\n        /* \"#utility.yul\":4561:4565   */\n      dup2\n        /* \"#utility.yul\":4435:4566   */\n      tag_111\n      jump\t// in\n    tag_175:\n        /* \"#utility.yul\":4427:4566   */\n      swap1\n      pop\n        /* \"#utility.yul\":4154:4573   */\n      swap2\n      swap1\n      pop\n      jump\t// out\n        /* \"#utility.yul\":4579:4726   */\n    tag_112:\n        /* \"#utility.yul\":4680:4691   */\n      0x00\n        /* \"#utility.yul\":4717:4720   */\n      dup2\n        /* \"#utility.yul\":4702:4720   */\n      swap1\n      pop\n        /* \"#utility.yul\":4579:4726   */\n      swap3\n      swap2\n      pop\n      pop\n      jump\t// out\n        /* \"#utility.yul\":4732:4846   */\n    tag_113:\n      pop\n      jump\t// out\n        /* \"#utility.yul\":4852:5250   */\n    tag_114:\n        /* \"#utility.yul\":5011:5014   */\n      0x00\n        /* \"#utility.yul\":5032:5115   */\n      tag_179\n        /* \"#utility.yul\":5113:5114   */\n      0x00\n        /* \"#utility.yul\":5108:5111   */\n      dup4\n        /* \"#utility.yul\":5032:5115   */\n      tag_112\n      jump\t// in\n    tag_179:\n        /* \"#utility.yul\":5025:5115   */\n      swap2\n      pop\n        /* \"#utility.yul\":5124:5217   */\n      tag_180\n        /* \"#utility.yul\":5213:5216   */\n      dup3\n        /* \"#utility.yul\":5124:5217   */\n      tag_113\n      jump\t// in\n    tag_180:\n        /* \"#utility.yul\":5242:5243   */\n      0x00\n        /* \"#utility.yul\":5237:5240   */\n      dup3\n        /* \"#utility.yul\":5233:5244   */\n      add\n        /* \"#utility.yul\":5226:5244   */\n      swap1\n      pop\n        /* \"#utility.yul\":4852:5250   */\n      swap2\n      swap1\n      pop\n      jump\t// out\n        /* \"#utility.yul\":5256:5635   */\n    tag_58:\n        /* \"#utility.yul\":5440:5443   */\n      0x00\n        /* \"#utility.yul\":5462:5609   */\n      tag_182\n        /* \"#utility.yul\":5605:5608   */\n      dup3\n        /* \"#utility.yul\":5462:5609   */\n      tag_114\n      jump\t// in\n    tag_182:\n        /* \"#utility.yul\":5455:5609   */\n      swap2\n      pop\n        /* \"#utility.yul\":5626:5629   */\n      dup2\n        /* \"#utility.yul\":5619:5629   */\n      swap1\n      pop\n        /* \"#utility.yul\":5256:5635   */\n      swap2\n      swap1\n      pop\n      jump\t// out\n        /* \"#utility.yul\":5641:5802   */\n    tag_115:\n        /* \"#utility.yul\":5781:5794   */\n      0x63616c6c204661696c6564000000000000000000000000000000000000000000\n        /* \"#utility.yul\":5777:5778   */\n      0x00\n        /* \"#utility.yul\":5769:5775   */\n      dup3\n        /* \"#utility.yul\":5765:5779   */\n      add\n        /* \"#utility.yul\":5758:5795   */\n      mstore\n        /* \"#utility.yul\":5641:5802   */\n      pop\n      jump\t// out\n        /* \"#utility.yul\":5808:6174   */\n    tag_116:\n        /* \"#utility.yul\":5950:5953   */\n      0x00\n        /* \"#utility.yul\":5971:6038   */\n      tag_185\n        /* \"#utility.yul\":6035:6037   */\n      0x0b\n        /* \"#utility.yul\":6030:6033   */\n      dup4\n        /* \"#utility.yul\":5971:6038   */\n      tag_109\n      jump\t// in\n    tag_185:\n        /* \"#utility.yul\":5964:6038   */\n      swap2\n      pop\n        /* \"#utility.yul\":6047:6140   */\n      tag_186\n        /* \"#utility.yul\":6136:6139   */\n      dup3\n        /* \"#utility.yul\":6047:6140   */\n      tag_115\n      jump\t// in\n    tag_186:\n        /* \"#utility.yul\":6165:6167   */\n      0x20\n        /* \"#utility.yul\":6160:6163   */\n      dup3\n        /* \"#utility.yul\":6156:6168   */\n      add\n        /* \"#utility.yul\":6149:6168   */\n      swap1\n      pop\n        /* \"#utility.yul\":5808:6174   */\n      swap2\n      swap1\n      pop\n      jump\t// out\n        /* \"#utility.yul\":6180:6599   */\n    tag_64:\n        /* \"#utility.yul\":6346:6350   */\n      0x00\n        /* \"#utility.yul\":6384:6386   */\n      0x20\n        /* \"#utility.yul\":6373:6382   */\n      dup3\n        /* \"#utility.yul\":6369:6387   */\n      add\n        /* \"#utility.yul\":6361:6387   */\n      swap1\n      pop\n        /* \"#utility.yul\":6433:6442   */\n      dup2\n        /* \"#utility.yul\":6427:6431   */\n      dup2\n        /* \"#utility.yul\":6423:6443   */\n      sub\n        /* \"#utility.yul\":6419:6420   */\n      0x00\n        /* \"#utility.yul\":6408:6417   */\n      dup4\n        /* \"#utility.yul\":6404:6421   */\n      add\n        /* \"#utility.yul\":6397:6444   */\n      mstore\n        /* \"#utility.yul\":6461:6592   */\n      tag_188\n        /* \"#utility.yul\":6587:6591   */\n      dup2\n        /* \"#utility.yul\":6461:6592   */\n      tag_116\n      jump\t// in\n    tag_188:\n        /* \"#utility.yul\":6453:6592   */\n      swap1\n      pop\n        /* \"#utility.yul\":6180:6599   */\n      swap2\n      swap1\n      pop\n      jump\t// out\n        /* \"#utility.yul\":6605:6777   */\n    tag_117:\n        /* \"#utility.yul\":6745:6769   */\n      0x646964276e742073656e6420656e6f7567682065746800000000000000000000\n        /* \"#utility.yul\":6741:6742   */\n      0x00\n        /* \"#utility.yul\":6733:6739   */\n      dup3\n        /* \"#utility.yul\":6729:6743   */\n      add\n        /* \"#utility.yul\":6722:6770   */\n      mstore\n        /* \"#utility.yul\":6605:6777   */\n      pop\n      jump\t// out\n        /* \"#utility.yul\":6783:7149   */\n    tag_118:\n        /* \"#utility.yul\":6925:6928   */\n      0x00\n        /* \"#utility.yul\":6946:7013   */\n      tag_191\n        /* \"#utility.yul\":7010:7012   */\n      0x16\n        /* \"#utility.yul\":7005:7008   */\n      dup4\n        /* \"#utility.yul\":6946:7013   */\n      tag_109\n      jump\t// in\n    tag_191:\n        /* \"#utility.yul\":6939:7013   */\n      swap2\n      pop\n        /* \"#utility.yul\":7022:7115   */\n      tag_192\n        /* \"#utility.yul\":7111:7114   */\n      dup3\n        /* \"#utility.yul\":7022:7115   */\n      tag_117\n      jump\t// in\n    tag_192:\n        /* \"#utility.yul\":7140:7142   */\n      0x20\n        /* \"#utility.yul\":7135:7138   */\n      dup3\n        /* \"#utility.yul\":7131:7143   */\n      add\n        /* \"#utility.yul\":7124:7143   */\n      swap1\n      pop\n        /* \"#utility.yul\":6783:7149   */\n      swap2\n      swap1\n      pop\n      jump\t// out\n        /* \"#utility.yul\":7155:7574   */\n    tag_70:\n        /* \"#utility.yul\":7321:7325   */\n      0x00\n        /* \"#utility.yul\":7359:7361   */\n      0x20\n        /* \"#utility.yul\":7348:7357   */\n      dup3\n        /* \"#utility.yul\":7344:7362   */\n      add\n        /* \"#utility.yul\":7336:7362   */\n      swap1\n      pop\n        /* \"#utility.yul\":7408:7417   */\n      dup2\n        /* \"#utility.yul\":7402:7406   */\n      dup2\n        /* \"#utility.yul\":7398:7418   */\n      sub\n        /* \"#utility.yul\":7394:7395   */\n      0x00\n        /* \"#utility.yul\":7383:7392   */\n      dup4\n        /* \"#utility.yul\":7379:7396   */\n      add\n        /* \"#utility.yul\":7372:7419   */\n      mstore\n        /* \"#utility.yul\":7436:7567   */\n      tag_194\n        /* \"#utility.yul\":7562:7566   */\n      dup2\n        /* \"#utility.yul\":7436:7567   */\n      tag_118\n      jump\t// in\n    tag_194:\n        /* \"#utility.yul\":7428:7567   */\n      swap1\n      pop\n        /* \"#utility.yul\":7155:7574   */\n      swap2\n      swap1\n      pop\n      jump\t// out\n        /* \"#utility.yul\":7580:7928   */\n    tag_78:\n        /* \"#utility.yul\":7620:7627   */\n      0x00\n        /* \"#utility.yul\":7643:7663   */\n      tag_196\n        /* \"#utility.yul\":7661:7662   */\n      dup3\n        /* \"#utility.yul\":7643:7663   */\n      tag_96\n      jump\t// in\n    tag_196:\n        /* \"#utility.yul\":7638:7663   */\n      swap2\n      pop\n        /* \"#utility.yul\":7677:7697   */\n      tag_197\n        /* \"#utility.yul\":7695:7696   */\n      dup4\n        /* \"#utility.yul\":7677:7697   */\n      tag_96\n      jump\t// in\n    tag_197:\n        /* \"#utility.yul\":7672:7697   */\n      swap3\n      pop\n        /* \"#utility.yul\":7865:7866   */\n      dup2\n        /* \"#utility.yul\":7797:7863   */\n      0xffffffffffffffffffffffffffffffffffffffffffffffffffffffffffffffff\n        /* \"#utility.yul\":7793:7867   */\n      div\n        /* \"#utility.yul\":7790:7791   */\n      dup4\n        /* \"#utility.yul\":7787:7868   */\n      gt\n        /* \"#utility.yul\":7782:7783   */\n      dup3\n        /* \"#utility.yul\":7775:7784   */\n      iszero\n        /* \"#utility.yul\":7768:7785   */\n      iszero\n        /* \"#utility.yul\":7764:7869   */\n      and\n        /* \"#utility.yul\":7761:7892   */\n      iszero\n      tag_198\n      jumpi\n        /* \"#utility.yul\":7872:7890   */\n      tag_199\n      tag_108\n      jump\t// in\n    tag_199:\n        /* \"#utility.yul\":7761:7892   */\n    tag_198:\n        /* \"#utility.yul\":7920:7921   */\n      dup3\n        /* \"#utility.yul\":7917:7918   */\n      dup3\n        /* \"#utility.yul\":7913:7922   */\n      mul\n        /* \"#utility.yul\":7902:7922   */\n      swap1\n      pop\n        /* \"#utility.yul\":7580:7928   */\n      swap3\n      swap2\n      pop\n      pop\n      jump\t// out\n        /* \"#utility.yul\":7934:8114   */\n    tag_119:\n        /* \"#utility.yul\":7982:8059   */\n      0x4e487b7100000000000000000000000000000000000000000000000000000000\n        /* \"#utility.yul\":7979:7980   */\n      0x00\n        /* \"#utility.yul\":7972:8060   */\n      mstore\n        /* \"#utility.yul\":8079:8083   */\n      0x12\n        /* \"#utility.yul\":8076:8077   */\n      0x04\n        /* \"#utility.yul\":8069:8084   */\n      mstore\n        /* \"#utility.yul\":8103:8107   */\n      0x24\n        /* \"#utility.yul\":8100:8101   */\n      0x00\n        /* \"#utility.yul\":8093:8108   */\n      revert\n        /* \"#utility.yul\":8120:8305   */\n    tag_80:\n        /* \"#utility.yul\":8160:8161   */\n      0x00\n        /* \"#utility.yul\":8177:8197   */\n      tag_202\n        /* \"#utility.yul\":8195:8196   */\n      dup3\n        /* \"#utility.yul\":8177:8197   */\n      tag_96\n      jump\t// in\n    tag_202:\n        /* \"#utility.yul\":8172:8197   */\n      swap2\n      pop\n        /* \"#utility.yul\":8211:8231   */\n      tag_203\n        /* \"#utility.yul\":8229:8230   */\n      dup4\n        /* \"#utility.yul\":8211:8231   */\n      tag_96\n      jump\t// in\n    tag_203:\n        /* \"#utility.yul\":8206:8231   */\n      swap3\n      pop\n        /* \"#utility.yul\":8250:8251   */\n      dup3\n        /* \"#utility.yul\":8240:8275   */\n      tag_204\n      jumpi\n        /* \"#utility.yul\":8255:8273   */\n      tag_205\n      tag_119\n      jump\t// in\n    tag_205:\n        /* \"#utility.yul\":8240:8275   */\n    tag_204:\n        /* \"#utility.yul\":8297:8298   */\n      dup3\n        /* \"#utility.yul\":8294:8295   */\n      dup3\n        /* \"#utility.yul\":8290:8299   */\n      div\n        /* \"#utility.yul\":8285:8299   */\n      swap1\n      pop\n        /* \"#utility.yul\":8120:8305   */\n      swap3\n      swap2\n      pop\n      pop\n      jump\t// out\n        /* \"#utility.yul\":8311:8416   */\n    tag_120:\n        /* \"#utility.yul\":8347:8354   */\n      0x00\n        /* \"#utility.yul\":8387:8409   */\n      0xffffffffffffffffffff\n        /* \"#utility.yul\":8380:8385   */\n      dup3\n        /* \"#utility.yul\":8376:8410   */\n      and\n        /* \"#utility.yul\":8365:8410   */\n      swap1\n      pop\n        /* \"#utility.yul\":8311:8416   */\n      swap2\n      swap1\n      pop\n      jump\t// out\n        /* \"#utility.yul\":8422:8542   */\n    tag_121:\n        /* \"#utility.yul\":8494:8517   */\n      tag_208\n        /* \"#utility.yul\":8511:8516   */\n      dup2\n        /* \"#utility.yul\":8494:8517   */\n      tag_120\n      jump\t// in\n    tag_208:\n        /* \"#utility.yul\":8487:8492   */\n      dup2\n        /* \"#utility.yul\":8484:8518   */\n      eq\n        /* \"#utility.yul\":8474:8536   */\n      tag_209\n      jumpi\n        /* \"#utility.yul\":8532:8533   */\n      0x00\n        /* \"#utility.yul\":8529:8530   */\n      dup1\n        /* \"#utility.yul\":8522:8534   */\n      revert\n        /* \"#utility.yul\":8474:8536   */\n    tag_209:\n        /* \"#utility.yul\":8422:8542   */\n      pop\n      jump\t// out\n        /* \"#utility.yul\":8548:8689   */\n    tag_122:\n        /* \"#utility.yul\":8604:8609   */\n      0x00\n        /* \"#utility.yul\":8635:8641   */\n      dup2\n        /* \"#utility.yul\":8629:8642   */\n      mload\n        /* \"#utility.yul\":8620:8642   */\n      swap1\n      pop\n        /* \"#utility.yul\":8651:8683   */\n      tag_211\n        /* \"#utility.yul\":8677:8682   */\n      dup2\n        /* \"#utility.yul\":8651:8683   */\n      tag_121\n      jump\t// in\n    tag_211:\n        /* \"#utility.yul\":8548:8689   */\n      swap3\n      swap2\n      pop\n      pop\n      jump\t// out\n        /* \"#utility.yul\":8695:8771   */\n    tag_123:\n        /* \"#utility.yul\":8731:8738   */\n      0x00\n        /* \"#utility.yul\":8760:8765   */\n      dup2\n        /* \"#utility.yul\":8749:8765   */\n      swap1\n      pop\n        /* \"#utility.yul\":8695:8771   */\n      swap2\n      swap1\n      pop\n      jump\t// out\n        /* \"#utility.yul\":8777:8897   */\n    tag_124:\n        /* \"#utility.yul\":8849:8872   */\n      tag_214\n        /* \"#utility.yul\":8866:8871   */\n      dup2\n        /* \"#utility.yul\":8849:8872   */\n      tag_123\n      jump\t// in\n    tag_214:\n        /* \"#utility.yul\":8842:8847   */\n      dup2\n        /* \"#utility.yul\":8839:8873   */\n      eq\n        /* \"#utility.yul\":8829:8891   */\n      tag_215\n      jumpi\n        /* \"#utility.yul\":8887:8888   */\n      0x00\n        /* \"#utility.yul\":8884:8885   */\n      dup1\n        /* \"#utility.yul\":8877:8889   */\n      revert\n        /* \"#utility.yul\":8829:8891   */\n    tag_215:\n        /* \"#utility.yul\":8777:8897   */\n      pop\n      jump\t// out\n        /* \"#utility.yul\":8903:9044   */\n    tag_125:\n        /* \"#utility.yul\":8959:8964   */\n      0x00\n        /* \"#utility.yul\":8990:8996   */\n      dup2\n        /* \"#utility.yul\":8984:8997   */\n      mload\n        /* \"#utility.yul\":8975:8997   */\n      swap1\n      pop\n        /* \"#utility.yul\":9006:9038   */\n      tag_217\n        /* \"#utility.yul\":9032:9037   */\n      dup2\n        /* \"#utility.yul\":9006:9038   */\n      tag_124\n      jump\t// in\n    tag_217:\n        /* \"#utility.yul\":8903:9044   */\n      swap3\n      swap2\n      pop\n      pop\n      jump\t// out\n        /* \"#utility.yul\":9050:9193   */\n    tag_126:\n        /* \"#utility.yul\":9107:9112   */\n      0x00\n        /* \"#utility.yul\":9138:9144   */\n      dup2\n        /* \"#utility.yul\":9132:9145   */\n      mload\n        /* \"#utility.yul\":9123:9145   */\n      swap1\n      pop\n        /* \"#utility.yul\":9154:9187   */\n      tag_219\n        /* \"#utility.yul\":9181:9186   */\n      dup2\n        /* \"#utility.yul\":9154:9187   */\n      tag_106\n      jump\t// in\n    tag_219:\n        /* \"#utility.yul\":9050:9193   */\n      swap3\n      swap2\n      pop\n      pop\n      jump\t// out\n        /* \"#utility.yul\":9199:10170   */\n    tag_86:\n        /* \"#utility.yul\":9302:9308   */\n      0x00\n        /* \"#utility.yul\":9310:9316   */\n      dup1\n        /* \"#utility.yul\":9318:9324   */\n      0x00\n        /* \"#utility.yul\":9326:9332   */\n      dup1\n        /* \"#utility.yul\":9334:9340   */\n      0x00\n        /* \"#utility.yul\":9383:9386   */\n      0xa0\n        /* \"#utility.yul\":9371:9380   */\n      dup7\n        /* \"#utility.yul\":9362:9369   */\n      dup9\n        /* \"#utility.yul\":9358:9381   */\n      sub\n        /* \"#utility.yul\":9354:9387   */\n      slt\n        /* \"#utility.yul\":9351:9471   */\n      iszero\n      tag_221\n      jumpi\n        /* \"#utility.yul\":9390:9469   */\n      tag_222\n      tag_99\n      jump\t// in\n    tag_222:\n        /* \"#utility.yul\":9351:9471   */\n    tag_221:\n        /* \"#utility.yul\":9510:9511   */\n      0x00\n        /* \"#utility.yul\":9535:9598   */\n      tag_223\n        /* \"#utility.yul\":9590:9597   */\n      dup9\n        /* \"#utility.yul\":9581:9587   */\n      dup3\n        /* \"#utility.yul\":9570:9579   */\n      dup10\n        /* \"#utility.yul\":9566:9588   */\n      add\n        /* \"#utility.yul\":9535:9598   */\n      tag_122\n      jump\t// in\n    tag_223:\n        /* \"#utility.yul\":9525:9598   */\n      swap6\n      pop\n        /* \"#utility.yul\":9481:9608   */\n      pop\n        /* \"#utility.yul\":9647:9649   */\n      0x20\n        /* \"#utility.yul\":9673:9736   */\n      tag_224\n        /* \"#utility.yul\":9728:9735   */\n      dup9\n        /* \"#utility.yul\":9719:9725   */\n      dup3\n        /* \"#utility.yul\":9708:9717   */\n      dup10\n        /* \"#utility.yul\":9704:9726   */\n      add\n        /* \"#utility.yul\":9673:9736   */\n      tag_125\n      jump\t// in\n    tag_224:\n        /* \"#utility.yul\":9663:9736   */\n      swap5\n      pop\n        /* \"#utility.yul\":9618:9746   */\n      pop\n        /* \"#utility.yul\":9785:9787   */\n      0x40\n        /* \"#utility.yul\":9811:9875   */\n      tag_225\n        /* \"#utility.yul\":9867:9874   */\n      dup9\n        /* \"#utility.yul\":9858:9864   */\n      dup3\n        /* \"#utility.yul\":9847:9856   */\n      dup10\n        /* \"#utility.yul\":9843:9865   */\n      add\n        /* \"#utility.yul\":9811:9875   */\n      tag_126\n      jump\t// in\n    tag_225:\n        /* \"#utility.yul\":9801:9875   */\n      swap4\n      pop\n        /* \"#utility.yul\":9756:9885   */\n      pop\n        /* \"#utility.yul\":9924:9926   */\n      0x60\n        /* \"#utility.yul\":9950:10014   */\n      tag_226\n        /* \"#utility.yul\":10006:10013   */\n      dup9\n        /* \"#utility.yul\":9997:10003   */\n      dup3\n        /* \"#utility.yul\":9986:9995   */\n      dup10\n        /* \"#utility.yul\":9982:10004   */\n      add\n        /* \"#utility.yul\":9950:10014   */\n      tag_126\n      jump\t// in\n    tag_226:\n        /* \"#utility.yul\":9940:10014   */\n      swap3\n      pop\n        /* \"#utility.yul\":9895:10024   */\n      pop\n        /* \"#utility.yul\":10063:10066   */\n      0x80\n        /* \"#utility.yul\":10090:10153   */\n      tag_227\n        /* \"#utility.yul\":10145:10152   */\n      dup9\n        /* \"#utility.yul\":10136:10142   */\n      dup3\n        /* \"#utility.yul\":10125:10134   */\n      dup10\n        /* \"#utility.yul\":10121:10143   */\n      add\n        /* \"#utility.yul\":10090:10153   */\n      tag_122\n      jump\t// in\n    tag_227:\n        /* \"#utility.yul\":10080:10153   */\n      swap2\n      pop\n        /* \"#utility.yul\":10034:10163   */\n      pop\n        /* \"#utility.yul\":9199:10170   */\n      swap3\n      swap6\n      pop\n      swap3\n      swap6\n      swap1\n      swap4\n      pop\n      jump\t// out\n        /* \"#utility.yul\":10176:11167   */\n    tag_88:\n        /* \"#utility.yul\":10215:10222   */\n      0x00\n        /* \"#utility.yul\":10238:10257   */\n      tag_229\n        /* \"#utility.yul\":10255:10256   */\n      dup3\n        /* \"#utility.yul\":10238:10257   */\n      tag_123\n      jump\t// in\n    tag_229:\n        /* \"#utility.yul\":10233:10257   */\n      swap2\n      pop\n        /* \"#utility.yul\":10271:10290   */\n      tag_230\n        /* \"#utility.yul\":10288:10289   */\n      dup4\n        /* \"#utility.yul\":10271:10290   */\n      tag_123\n      jump\t// in\n    tag_230:\n        /* \"#utility.yul\":10266:10290   */\n      swap3\n      pop\n        /* \"#utility.yul\":10472:10473   */\n      dup3\n        /* \"#utility.yul\":10404:10470   */\n      0x7fffffffffffffffffffffffffffffffffffffffffffffffffffffffffffffff\n        /* \"#utility.yul\":10400:10474   */\n      div\n        /* \"#utility.yul\":10397:10398   */\n      dup3\n        /* \"#utility.yul\":10394:10475   */\n      gt\n        /* \"#utility.yul\":10389:10390   */\n      0x00\n        /* \"#utility.yul\":10386:10387   */\n      dup5\n        /* \"#utility.yul\":10382:10391   */\n      sgt\n        /* \"#utility.yul\":10378:10379   */\n      0x00\n        /* \"#utility.yul\":10375:10376   */\n      dup5\n        /* \"#utility.yul\":10371:10380   */\n      sgt\n        /* \"#utility.yul\":10367:10392   */\n      and\n        /* \"#utility.yul\":10363:10476   */\n      and\n        /* \"#utility.yul\":10360:10499   */\n      iszero\n      tag_231\n      jumpi\n        /* \"#utility.yul\":10479:10497   */\n      tag_232\n      tag_108\n      jump\t// in\n    tag_232:\n        /* \"#utility.yul\":10360:10499   */\n    tag_231:\n        /* \"#utility.yul\":10683:10684   */\n      dup2\n        /* \"#utility.yul\":10615:10681   */\n      0x8000000000000000000000000000000000000000000000000000000000000000\n        /* \"#utility.yul\":10610:10685   */\n      sdiv\n        /* \"#utility.yul\":10607:10608   */\n      dup4\n        /* \"#utility.yul\":10603:10686   */\n      slt\n        /* \"#utility.yul\":10598:10599   */\n      0x00\n        /* \"#utility.yul\":10595:10596   */\n      dup5\n        /* \"#utility.yul\":10591:10600   */\n      slt\n        /* \"#utility.yul\":10587:10588   */\n      0x00\n        /* \"#utility.yul\":10584:10585   */\n      dup5\n        /* \"#utility.yul\":10580:10589   */\n      sgt\n        /* \"#utility.yul\":10576:10601   */\n      and\n        /* \"#utility.yul\":10572:10687   */\n      and\n        /* \"#utility.yul\":10569:10710   */\n      iszero\n      tag_233\n      jumpi\n        /* \"#utility.yul\":10690:10708   */\n      tag_234\n      tag_108\n      jump\t// in\n    tag_234:\n        /* \"#utility.yul\":10569:10710   */\n    tag_233:\n        /* \"#utility.yul\":10894:10895   */\n      dup3\n        /* \"#utility.yul\":10826:10892   */\n      0x8000000000000000000000000000000000000000000000000000000000000000\n        /* \"#utility.yul\":10821:10896   */\n      sdiv\n        /* \"#utility.yul\":10818:10819   */\n      dup3\n        /* \"#utility.yul\":10814:10897   */\n      slt\n        /* \"#utility.yul\":10809:10810   */\n      0x00\n        /* \"#utility.yul\":10806:10807   */\n      dup5\n        /* \"#utility.yul\":10802:10811   */\n      sgt\n        /* \"#utility.yul\":10798:10799   */\n      0x00\n        /* \"#utility.yul\":10795:10796   */\n      dup5\n        /* \"#utility.yul\":10791:10800   */\n      slt\n        /* \"#utility.yul\":10787:10812   */\n      and\n        /* \"#utility.yul\":10783:10898   */\n      and\n        /* \"#utility.yul\":10780:10921   */\n      iszero\n      tag_235\n      jumpi\n        /* \"#utility.yul\":10901:10919   */\n      tag_236\n      tag_108\n      jump\t// in\n    tag_236:\n        /* \"#utility.yul\":10780:10921   */\n    tag_235:\n        /* \"#utility.yul\":11104:11105   */\n      dup3\n        /* \"#utility.yul\":11036:11102   */\n      0x7fffffffffffffffffffffffffffffffffffffffffffffffffffffffffffffff\n        /* \"#utility.yul\":11031:11106   */\n      sdiv\n        /* \"#utility.yul\":11028:11029   */\n      dup3\n        /* \"#utility.yul\":11024:11107   */\n      slt\n        /* \"#utility.yul\":11019:11020   */\n      0x00\n        /* \"#utility.yul\":11016:11017   */\n      dup5\n        /* \"#utility.yul\":11012:11021   */\n      slt\n        /* \"#utility.yul\":11008:11009   */\n      0x00\n        /* \"#utility.yul\":11005:11006   */\n      dup5\n        /* \"#utility.yul\":11001:11010   */\n      slt\n        /* \"#utility.yul\":10997:11022   */\n      and\n        /* \"#utility.yul\":10993:11108   */\n      and\n        /* \"#utility.yul\":10990:11131   */\n      iszero\n      tag_237\n      jumpi\n        /* \"#utility.yul\":11111:11129   */\n      tag_238\n      tag_108\n      jump\t// in\n    tag_238:\n        /* \"#utility.yul\":10990:11131   */\n    tag_237:\n        /* \"#utility.yul\":11159:11160   */\n      dup3\n        /* \"#utility.yul\":11156:11157   */\n      dup3\n        /* \"#utility.yul\":11152:11161   */\n      mul\n        /* \"#utility.yul\":11141:11161   */\n      swap1\n      pop\n        /* \"#utility.yul\":10176:11167   */\n      swap3\n      swap2\n      pop\n      pop\n      jump\t// out\n\n    auxdata: 0xa264697066735822122029c5170ec676c72a7ed927f4f1cf9f2e1b2a7cc6dae8e0d23e1ebd88fec1621464736f6c63430008080033\n}\n",
				"bytecode": {
					"linkReferences": {},
					"object": "60806040526802b5e3af16b188000060005534801561001d57600080fd5b5033600360006101000a81548173ffffffffffffffffffffffffffffffffffffffff021916908373ffffffffffffffffffffffffffffffffffffffff160217905550610daf8061006e6000396000f3fe6080604052600436106100555760003560e01c8063098de8201461005a5780633ccfd60b146100855780633e47d6f31461009c5780638da5cb5b146100d9578063b60d428814610104578063dc0d3dff1461010e575b600080fd5b34801561006657600080fd5b5061006f61014b565b60405161007c91906106f4565b60405180910390f35b34801561009157600080fd5b5061009a610151565b005b3480156100a857600080fd5b506100c360048036038101906100be9190610772565b6103cf565b6040516100d091906106f4565b60405180910390f35b3480156100e557600080fd5b506100ee6103e7565b6040516100fb91906107ae565b60405180910390f35b61010c61040d565b005b34801561011a57600080fd5b50610135600480360381019061013091906107f5565b610503565b60405161014291906107ae565b60405180910390f35b60005481565b60005b6001805490508110156101fe5760006001828154811061017757610176610822565b5b9060005260206000200160009054906101000a900473ffffffffffffffffffffffffffffffffffffffff1690506000600260008373ffffffffffffffffffffffffffffffffffffffff1673ffffffffffffffffffffffffffffffffffffffff16815260200190815260200160002081905550506001816101f79190610880565b9050610154565b50600067ffffffffffffffff81111561021a576102196108d6565b5b6040519080825280602002602001820160405280156102485781602001602082028036833780820191505090505b506001908051906020019061025e929190610634565b503373ffffffffffffffffffffffffffffffffffffffff166108fc479081150290604051600060405180830381858888f193505050501580156102a5573d6000803e3d6000fd5b5060003373ffffffffffffffffffffffffffffffffffffffff166108fc479081150290604051600060405180830381858888f1935050505090508061031f576040517f08c379a000000000000000000000000000000000000000000000000000000000815260040161031690610962565b60405180910390fd5b60003373ffffffffffffffffffffffffffffffffffffffff1647604051610345906109b3565b60006040518083038185875af1925050503d8060008114610382576040519150601f19603f3d011682016040523d82523d6000602084013e610387565b606091505b50509050806103cb576040517f08c379a00000000000000000000000000000000000000000000000000000000081526004016103c290610a14565b60405180910390fd5b5050565b60026020528060005260406000206000915090505481565b600360009054906101000a900473ffffffffffffffffffffffffffffffffffffffff1681565b60005461041934610542565b101561045a576040517f08c379a000000000000000000000000000000000000000000000000000000000815260040161045190610a80565b60405180910390fd5b6001339080600181540180825580915050600190039060005260206000200160009091909190916101000a81548173ffffffffffffffffffffffffffffffffffffffff021916908373ffffffffffffffffffffffffffffffffffffffff16021790555034600260003373ffffffffffffffffffffffffffffffffffffffff1673ffffffffffffffffffffffffffffffffffffffff16815260200190815260200160002081905550565b6001818154811061051357600080fd5b906000526020600020016000915054906101000a900473ffffffffffffffffffffffffffffffffffffffff1681565b60008061054d61057c565b90506000670de0b6b3a764000084836105669190610aa0565b6105709190610b29565b90508092505050919050565b60008073694aa1769357215de4fac081bf1f309adc325306905060008173ffffffffffffffffffffffffffffffffffffffff1663feaf968c6040518163ffffffff1660e01b815260040160a06040518083038186803b1580156105de57600080fd5b505afa1580156105f2573d6000803e3d6000fd5b505050506040513d601f19601f820116820180604052508101906106169190610be7565b5050509150506402540be4008161062d9190610c62565b9250505090565b8280548282559060005260206000209081019282156106ad579160200282015b828111156106ac5782518260006101000a81548173ffffffffffffffffffffffffffffffffffffffff021916908373ffffffffffffffffffffffffffffffffffffffff16021790555091602001919060010190610654565b5b5090506106ba91906106be565b5090565b5b808211156106d75760008160009055506001016106bf565b5090565b6000819050919050565b6106ee816106db565b82525050565b600060208201905061070960008301846106e5565b92915050565b600080fd5b600073ffffffffffffffffffffffffffffffffffffffff82169050919050565b600061073f82610714565b9050919050565b61074f81610734565b811461075a57600080fd5b50565b60008135905061076c81610746565b92915050565b6000602082840312156107885761078761070f565b5b60006107968482850161075d565b91505092915050565b6107a881610734565b82525050565b60006020820190506107c3600083018461079f565b92915050565b6107d2816106db565b81146107dd57600080fd5b50565b6000813590506107ef816107c9565b92915050565b60006020828403121561080b5761080a61070f565b5b6000610819848285016107e0565b91505092915050565b7f4e487b7100000000000000000000000000000000000000000000000000000000600052603260045260246000fd5b7f4e487b7100000000000000000000000000000000000000000000000000000000600052601160045260246000fd5b600061088b826106db565b9150610896836106db565b9250827fffffffffffffffffffffffffffffffffffffffffffffffffffffffffffffffff038211156108cb576108ca610851565b5b828201905092915050565b7f4e487b7100000000000000000000000000000000000000000000000000000000600052604160045260246000fd5b600082825260208201905092915050565b7f53456e64204661696c6564000000000000000000000000000000000000000000600082015250565b600061094c600b83610905565b915061095782610916565b602082019050919050565b6000602082019050818103600083015261097b8161093f565b9050919050565b600081905092915050565b50565b600061099d600083610982565b91506109a88261098d565b600082019050919050565b60006109be82610990565b9150819050919050565b7f63616c6c204661696c6564000000000000000000000000000000000000000000600082015250565b60006109fe600b83610905565b9150610a09826109c8565b602082019050919050565b60006020820190508181036000830152610a2d816109f1565b9050919050565b7f646964276e742073656e6420656e6f7567682065746800000000000000000000600082015250565b6000610a6a601683610905565b9150610a7582610a34565b602082019050919050565b60006020820190508181036000830152610a9981610a5d565b9050919050565b6000610aab826106db565b9150610ab6836106db565b9250817fffffffffffffffffffffffffffffffffffffffffffffffffffffffffffffffff0483118215151615610aef57610aee610851565b5b828202905092915050565b7f4e487b7100000000000000000000000000000000000000000000000000000000600052601260045260246000fd5b6000610b34826106db565b9150610b3f836106db565b925082610b4f57610b4e610afa565b5b828204905092915050565b600069ffffffffffffffffffff82169050919050565b610b7981610b5a565b8114610b8457600080fd5b50565b600081519050610b9681610b70565b92915050565b6000819050919050565b610baf81610b9c565b8114610bba57600080fd5b50565b600081519050610bcc81610ba6565b92915050565b600081519050610be1816107c9565b92915050565b600080600080600060a08688031215610c0357610c0261070f565b5b6000610c1188828901610b87565b9550506020610c2288828901610bbd565b9450506040610c3388828901610bd2565b9350506060610c4488828901610bd2565b9250506080610c5588828901610b87565b9150509295509295909350565b6000610c6d82610b9c565b9150610c7883610b9c565b9250827f7fffffffffffffffffffffffffffffffffffffffffffffffffffffffffffffff0482116000841360008413161615610cb757610cb6610851565b5b817f80000000000000000000000000000000000000000000000000000000000000000583126000841260008413161615610cf457610cf3610851565b5b827f80000000000000000000000000000000000000000000000000000000000000000582126000841360008412161615610d3157610d30610851565b5b827f7fffffffffffffffffffffffffffffffffffffffffffffffffffffffffffffff0582126000841260008412161615610d6e57610d6d610851565b5b82820290509291505056fea264697066735822122029c5170ec676c72a7ed927f4f1cf9f2e1b2a7cc6dae8e0d23e1ebd88fec1621464736f6c63430008080033",
					"opcodes": "PUSH1 0x80 PUSH1 0x40 MSTORE PUSH9 0x2B5E3AF16B1880000 PUSH1 0x0 SSTORE CALLVALUE DUP1 ISZERO PUSH2 0x1D JUMPI PUSH1 0x0 DUP1 REVERT JUMPDEST POP CALLER PUSH1 0x3 PUSH1 0x0 PUSH2 0x100 EXP DUP2 SLOAD DUP2 PUSH20 0xFFFFFFFFFFFFFFFFFFFFFFFFFFFFFFFFFFFFFFFF MUL NOT AND SWAP1 DUP4 PUSH20 0xFFFFFFFFFFFFFFFFFFFFFFFFFFFFFFFFFFFFFFFF AND MUL OR SWAP1 SSTORE POP PUSH2 0xDAF DUP1 PUSH2 0x6E PUSH1 0x0 CODECOPY PUSH1 0x0 RETURN INVALID PUSH1 0x80 PUSH1 0x40 MSTORE PUSH1 0x4 CALLDATASIZE LT PUSH2 0x55 JUMPI PUSH1 0x0 CALLDATALOAD PUSH1 0xE0 SHR DUP1 PUSH4 0x98DE820 EQ PUSH2 0x5A JUMPI DUP1 PUSH4 0x3CCFD60B EQ PUSH2 0x85 JUMPI DUP1 PUSH4 0x3E47D6F3 EQ PUSH2 0x9C JUMPI DUP1 PUSH4 0x8DA5CB5B EQ PUSH2 0xD9 JUMPI DUP1 PUSH4 0xB60D4288 EQ PUSH2 0x104 JUMPI DUP1 PUSH4 0xDC0D3DFF EQ PUSH2 0x10E JUMPI JUMPDEST PUSH1 0x0 DUP1 REVERT JUMPDEST CALLVALUE DUP1 ISZERO PUSH2 0x66 JUMPI PUSH1 0x0 DUP1 REVERT JUMPDEST POP PUSH2 0x6F PUSH2 0x14B JUMP JUMPDEST PUSH1 0x40 MLOAD PUSH2 0x7C SWAP2 SWAP1 PUSH2 0x6F4 JUMP JUMPDEST PUSH1 0x40 MLOAD DUP1 SWAP2 SUB SWAP1 RETURN JUMPDEST CALLVALUE DUP1 ISZERO PUSH2 0x91 JUMPI PUSH1 0x0 DUP1 REVERT JUMPDEST POP PUSH2 0x9A PUSH2 0x151 JUMP JUMPDEST STOP JUMPDEST CALLVALUE DUP1 ISZERO PUSH2 0xA8 JUMPI PUSH1 0x0 DUP1 REVERT JUMPDEST POP PUSH2 0xC3 PUSH1 0x4 DUP1 CALLDATASIZE SUB DUP2 ADD SWAP1 PUSH2 0xBE SWAP2 SWAP1 PUSH2 0x772 JUMP JUMPDEST PUSH2 0x3CF JUMP JUMPDEST PUSH1 0x40 MLOAD PUSH2 0xD0 SWAP2 SWAP1 PUSH2 0x6F4 JUMP JUMPDEST PUSH1 0x40 MLOAD DUP1 SWAP2 SUB SWAP1 RETURN JUMPDEST CALLVALUE DUP1 ISZERO PUSH2 0xE5 JUMPI PUSH1 0x0 DUP1 REVERT JUMPDEST POP PUSH2 0xEE PUSH2 0x3E7 JUMP JUMPDEST PUSH1 0x40 MLOAD PUSH2 0xFB SWAP2 SWAP1 PUSH2 0x7AE JUMP JUMPDEST PUSH1 0x40 MLOAD DUP1 SWAP2 SUB SWAP1 RETURN JUMPDEST PUSH2 0x10C PUSH2 0x40D JUMP JUMPDEST STOP JUMPDEST CALLVALUE DUP1 ISZERO PUSH2 0x11A JUMPI PUSH1 0x0 DUP1 REVERT JUMPDEST POP PUSH2 0x135 PUSH1 0x4 DUP1 CALLDATASIZE SUB DUP2 ADD SWAP1 PUSH2 0x130 SWAP2 SWAP1 PUSH2 0x7F5 JUMP JUMPDEST PUSH2 0x503 JUMP JUMPDEST PUSH1 0x40 MLOAD PUSH2 0x142 SWAP2 SWAP1 PUSH2 0x7AE JUMP JUMPDEST PUSH1 0x40 MLOAD DUP1 SWAP2 SUB SWAP1 RETURN JUMPDEST PUSH1 0x0 SLOAD DUP2 JUMP JUMPDEST PUSH1 0x0 JUMPDEST PUSH1 0x1 DUP1 SLOAD SWAP1 POP DUP2 LT ISZERO PUSH2 0x1FE JUMPI PUSH1 0x0 PUSH1 0x1 DUP3 DUP2 SLOAD DUP2 LT PUSH2 0x177 JUMPI PUSH2 0x176 PUSH2 0x822 JUMP JUMPDEST JUMPDEST SWAP1 PUSH1 0x0 MSTORE PUSH1 0x20 PUSH1 0x0 KECCAK256 ADD PUSH1 0x0 SWAP1 SLOAD SWAP1 PUSH2 0x100 EXP SWAP1 DIV PUSH20 0xFFFFFFFFFFFFFFFFFFFFFFFFFFFFFFFFFFFFFFFF AND SWAP1 POP PUSH1 0x0 PUSH1 0x2 PUSH1 0x0 DUP4 PUSH20 0xFFFFFFFFFFFFFFFFFFFFFFFFFFFFFFFFFFFFFFFF AND PUSH20 0xFFFFFFFFFFFFFFFFFFFFFFFFFFFFFFFFFFFFFFFF AND DUP2 MSTORE PUSH1 0x20 ADD SWAP1 DUP2 MSTORE PUSH1 0x20 ADD PUSH1 0x0 KECCAK256 DUP2 SWAP1 SSTORE POP POP PUSH1 0x1 DUP2 PUSH2 0x1F7 SWAP2 SWAP1 PUSH2 0x880 JUMP JUMPDEST SWAP1 POP PUSH2 0x154 JUMP JUMPDEST POP PUSH1 0x0 PUSH8 0xFFFFFFFFFFFFFFFF DUP2 GT ISZERO PUSH2 0x21A JUMPI PUSH2 0x219 PUSH2 0x8D6 JUMP JUMPDEST JUMPDEST PUSH1 0x40 MLOAD SWAP1 DUP1 DUP3 MSTORE DUP1 PUSH1 0x20 MUL PUSH1 0x20 ADD DUP3 ADD PUSH1 0x40 MSTORE DUP1 ISZERO PUSH2 0x248 JUMPI DUP2 PUSH1 0x20 ADD PUSH1 0x20 DUP3 MUL DUP1 CALLDATASIZE DUP4 CALLDATACOPY DUP1 DUP3 ADD SWAP2 POP POP SWAP1 POP JUMPDEST POP PUSH1 0x1 SWAP1 DUP1 MLOAD SWAP1 PUSH1 0x20 ADD SWAP1 PUSH2 0x25E SWAP3 SWAP2 SWAP1 PUSH2 0x634 JUMP JUMPDEST POP CALLER PUSH20 0xFFFFFFFFFFFFFFFFFFFFFFFFFFFFFFFFFFFFFFFF AND PUSH2 0x8FC SELFBALANCE SWAP1 DUP2 ISZERO MUL SWAP1 PUSH1 0x40 MLOAD PUSH1 0x0 PUSH1 0x40 MLOAD DUP1 DUP4 SUB DUP2 DUP6 DUP9 DUP9 CALL SWAP4 POP POP POP POP ISZERO DUP1 ISZERO PUSH2 0x2A5 JUMPI RETURNDATASIZE PUSH1 0x0 DUP1 RETURNDATACOPY RETURNDATASIZE PUSH1 0x0 REVERT JUMPDEST POP PUSH1 0x0 CALLER PUSH20 0xFFFFFFFFFFFFFFFFFFFFFFFFFFFFFFFFFFFFFFFF AND PUSH2 0x8FC SELFBALANCE SWAP1 DUP2 ISZERO MUL SWAP1 PUSH1 0x40 MLOAD PUSH1 0x0 PUSH1 0x40 MLOAD DUP1 DUP4 SUB DUP2 DUP6 DUP9 DUP9 CALL SWAP4 POP POP POP POP SWAP1 POP DUP1 PUSH2 0x31F JUMPI PUSH1 0x40 MLOAD PUSH32 0x8C379A000000000000000000000000000000000000000000000000000000000 DUP2 MSTORE PUSH1 0x4 ADD PUSH2 0x316 SWAP1 PUSH2 0x962 JUMP JUMPDEST PUSH1 0x40 MLOAD DUP1 SWAP2 SUB SWAP1 REVERT JUMPDEST PUSH1 0x0 CALLER PUSH20 0xFFFFFFFFFFFFFFFFFFFFFFFFFFFFFFFFFFFFFFFF AND SELFBALANCE PUSH1 0x40 MLOAD PUSH2 0x345 SWAP1 PUSH2 0x9B3 JUMP JUMPDEST PUSH1 0x0 PUSH1 0x40 MLOAD DUP1 DUP4 SUB DUP2 DUP6 DUP8 GAS CALL SWAP3 POP POP POP RETURNDATASIZE DUP1 PUSH1 0x0 DUP2 EQ PUSH2 0x382 JUMPI PUSH1 0x40 MLOAD SWAP2 POP PUSH1 0x1F NOT PUSH1 0x3F RETURNDATASIZE ADD AND DUP3 ADD PUSH1 0x40 MSTORE RETURNDATASIZE DUP3 MSTORE RETURNDATASIZE PUSH1 0x0 PUSH1 0x20 DUP5 ADD RETURNDATACOPY PUSH2 0x387 JUMP JUMPDEST PUSH1 0x60 SWAP2 POP JUMPDEST POP POP SWAP1 POP DUP1 PUSH2 0x3CB JUMPI PUSH1 0x40 MLOAD PUSH32 0x8C379A000000000000000000000000000000000000000000000000000000000 DUP2 MSTORE PUSH1 0x4 ADD PUSH2 0x3C2 SWAP1 PUSH2 0xA14 JUMP JUMPDEST PUSH1 0x40 MLOAD DUP1 SWAP2 SUB SWAP1 REVERT JUMPDEST POP POP JUMP JUMPDEST PUSH1 0x2 PUSH1 0x20 MSTORE DUP1 PUSH1 0x0 MSTORE PUSH1 0x40 PUSH1 0x0 KECCAK256 PUSH1 0x0 SWAP2 POP SWAP1 POP SLOAD DUP2 JUMP JUMPDEST PUSH1 0x3 PUSH1 0x0 SWAP1 SLOAD SWAP1 PUSH2 0x100 EXP SWAP1 DIV PUSH20 0xFFFFFFFFFFFFFFFFFFFFFFFFFFFFFFFFFFFFFFFF AND DUP2 JUMP JUMPDEST PUSH1 0x0 SLOAD PUSH2 0x419 CALLVALUE PUSH2 0x542 JUMP JUMPDEST LT ISZERO PUSH2 0x45A JUMPI PUSH1 0x40 MLOAD PUSH32 0x8C379A000000000000000000000000000000000000000000000000000000000 DUP2 MSTORE PUSH1 0x4 ADD PUSH2 0x451 SWAP1 PUSH2 0xA80 JUMP JUMPDEST PUSH1 0x40 MLOAD DUP1 SWAP2 SUB SWAP1 REVERT JUMPDEST PUSH1 0x1 CALLER SWAP1 DUP1 PUSH1 0x1 DUP2 SLOAD ADD DUP1 DUP3 SSTORE DUP1 SWAP2 POP POP PUSH1 0x1 SWAP1 SUB SWAP1 PUSH1 0x0 MSTORE PUSH1 0x20 PUSH1 0x0 KECCAK256 ADD PUSH1 0x0 SWAP1 SWAP2 SWAP1 SWAP2 SWAP1 SWAP2 PUSH2 0x100 EXP DUP2 SLOAD DUP2 PUSH20 0xFFFFFFFFFFFFFFFFFFFFFFFFFFFFFFFFFFFFFFFF MUL NOT AND SWAP1 DUP4 PUSH20 0xFFFFFFFFFFFFFFFFFFFFFFFFFFFFFFFFFFFFFFFF AND MUL OR SWAP1 SSTORE POP CALLVALUE PUSH1 0x2 PUSH1 0x0 CALLER PUSH20 0xFFFFFFFFFFFFFFFFFFFFFFFFFFFFFFFFFFFFFFFF AND PUSH20 0xFFFFFFFFFFFFFFFFFFFFFFFFFFFFFFFFFFFFFFFF AND DUP2 MSTORE PUSH1 0x20 ADD SWAP1 DUP2 MSTORE PUSH1 0x20 ADD PUSH1 0x0 KECCAK256 DUP2 SWAP1 SSTORE POP JUMP JUMPDEST PUSH1 0x1 DUP2 DUP2 SLOAD DUP2 LT PUSH2 0x513 JUMPI PUSH1 0x0 DUP1 REVERT JUMPDEST SWAP1 PUSH1 0x0 MSTORE PUSH1 0x20 PUSH1 0x0 KECCAK256 ADD PUSH1 0x0 SWAP2 POP SLOAD SWAP1 PUSH2 0x100 EXP SWAP1 DIV PUSH20 0xFFFFFFFFFFFFFFFFFFFFFFFFFFFFFFFFFFFFFFFF AND DUP2 JUMP JUMPDEST PUSH1 0x0 DUP1 PUSH2 0x54D PUSH2 0x57C JUMP JUMPDEST SWAP1 POP PUSH1 0x0 PUSH8 0xDE0B6B3A7640000 DUP5 DUP4 PUSH2 0x566 SWAP2 SWAP1 PUSH2 0xAA0 JUMP JUMPDEST PUSH2 0x570 SWAP2 SWAP1 PUSH2 0xB29 JUMP JUMPDEST SWAP1 POP DUP1 SWAP3 POP POP POP SWAP2 SWAP1 POP JUMP JUMPDEST PUSH1 0x0 DUP1 PUSH20 0x694AA1769357215DE4FAC081BF1F309ADC325306 SWAP1 POP PUSH1 0x0 DUP2 PUSH20 0xFFFFFFFFFFFFFFFFFFFFFFFFFFFFFFFFFFFFFFFF AND PUSH4 0xFEAF968C PUSH1 0x40 MLOAD DUP2 PUSH4 0xFFFFFFFF AND PUSH1 0xE0 SHL DUP2 MSTORE PUSH1 0x4 ADD PUSH1 0xA0 PUSH1 0x40 MLOAD DUP1 DUP4 SUB DUP2 DUP7 DUP1 EXTCODESIZE ISZERO DUP1 ISZERO PUSH2 0x5DE JUMPI PUSH1 0x0 DUP1 REVERT JUMPDEST POP GAS STATICCALL ISZERO DUP1 ISZERO PUSH2 0x5F2 JUMPI RETURNDATASIZE PUSH1 0x0 DUP1 RETURNDATACOPY RETURNDATASIZE PUSH1 0x0 REVERT JUMPDEST POP POP POP POP PUSH1 0x40 MLOAD RETURNDATASIZE PUSH1 0x1F NOT PUSH1 0x1F DUP3 ADD AND DUP3 ADD DUP1 PUSH1 0x40 MSTORE POP DUP2 ADD SWAP1 PUSH2 0x616 SWAP2 SWAP1 PUSH2 0xBE7 JUMP JUMPDEST POP POP POP SWAP2 POP POP PUSH5 0x2540BE400 DUP2 PUSH2 0x62D SWAP2 SWAP1 PUSH2 0xC62 JUMP JUMPDEST SWAP3 POP POP POP SWAP1 JUMP JUMPDEST DUP3 DUP1 SLOAD DUP3 DUP3 SSTORE SWAP1 PUSH1 0x0 MSTORE PUSH1 0x20 PUSH1 0x0 KECCAK256 SWAP1 DUP2 ADD SWAP3 DUP3 ISZERO PUSH2 0x6AD JUMPI SWAP2 PUSH1 0x20 MUL DUP3 ADD JUMPDEST DUP3 DUP2 GT ISZERO PUSH2 0x6AC JUMPI DUP3 MLOAD DUP3 PUSH1 0x0 PUSH2 0x100 EXP DUP2 SLOAD DUP2 PUSH20 0xFFFFFFFFFFFFFFFFFFFFFFFFFFFFFFFFFFFFFFFF MUL NOT AND SWAP1 DUP4 PUSH20 0xFFFFFFFFFFFFFFFFFFFFFFFFFFFFFFFFFFFFFFFF AND MUL OR SWAP1 SSTORE POP SWAP2 PUSH1 0x20 ADD SWAP2 SWAP1 PUSH1 0x1 ADD SWAP1 PUSH2 0x654 JUMP JUMPDEST JUMPDEST POP SWAP1 POP PUSH2 0x6BA SWAP2 SWAP1 PUSH2 0x6BE JUMP JUMPDEST POP SWAP1 JUMP JUMPDEST JUMPDEST DUP1 DUP3 GT ISZERO PUSH2 0x6D7 JUMPI PUSH1 0x0 DUP2 PUSH1 0x0 SWAP1 SSTORE POP PUSH1 0x1 ADD PUSH2 0x6BF JUMP JUMPDEST POP SWAP1 JUMP JUMPDEST PUSH1 0x0 DUP2 SWAP1 POP SWAP2 SWAP1 POP JUMP JUMPDEST PUSH2 0x6EE DUP2 PUSH2 0x6DB JUMP JUMPDEST DUP3 MSTORE POP POP JUMP JUMPDEST PUSH1 0x0 PUSH1 0x20 DUP3 ADD SWAP1 POP PUSH2 0x709 PUSH1 0x0 DUP4 ADD DUP5 PUSH2 0x6E5 JUMP JUMPDEST SWAP3 SWAP2 POP POP JUMP JUMPDEST PUSH1 0x0 DUP1 REVERT JUMPDEST PUSH1 0x0 PUSH20 0xFFFFFFFFFFFFFFFFFFFFFFFFFFFFFFFFFFFFFFFF DUP3 AND SWAP1 POP SWAP2 SWAP1 POP JUMP JUMPDEST PUSH1 0x0 PUSH2 0x73F DUP3 PUSH2 0x714 JUMP JUMPDEST SWAP1 POP SWAP2 SWAP1 POP JUMP JUMPDEST PUSH2 0x74F DUP2 PUSH2 0x734 JUMP JUMPDEST DUP2 EQ PUSH2 0x75A JUMPI PUSH1 0x0 DUP1 REVERT JUMPDEST POP JUMP JUMPDEST PUSH1 0x0 DUP2 CALLDATALOAD SWAP1 POP PUSH2 0x76C DUP2 PUSH2 0x746 JUMP JUMPDEST SWAP3 SWAP2 POP POP JUMP JUMPDEST PUSH1 0x0 PUSH1 0x20 DUP3 DUP5 SUB SLT ISZERO PUSH2 0x788 JUMPI PUSH2 0x787 PUSH2 0x70F JUMP JUMPDEST JUMPDEST PUSH1 0x0 PUSH2 0x796 DUP5 DUP3 DUP6 ADD PUSH2 0x75D JUMP JUMPDEST SWAP2 POP POP SWAP3 SWAP2 POP POP JUMP JUMPDEST PUSH2 0x7A8 DUP2 PUSH2 0x734 JUMP JUMPDEST DUP3 MSTORE POP POP JUMP JUMPDEST PUSH1 0x0 PUSH1 0x20 DUP3 ADD SWAP1 POP PUSH2 0x7C3 PUSH1 0x0 DUP4 ADD DUP5 PUSH2 0x79F JUMP JUMPDEST SWAP3 SWAP2 POP POP JUMP JUMPDEST PUSH2 0x7D2 DUP2 PUSH2 0x6DB JUMP JUMPDEST DUP2 EQ PUSH2 0x7DD JUMPI PUSH1 0x0 DUP1 REVERT JUMPDEST POP JUMP JUMPDEST PUSH1 0x0 DUP2 CALLDATALOAD SWAP1 POP PUSH2 0x7EF DUP2 PUSH2 0x7C9 JUMP JUMPDEST SWAP3 SWAP2 POP POP JUMP JUMPDEST PUSH1 0x0 PUSH1 0x20 DUP3 DUP5 SUB SLT ISZERO PUSH2 0x80B JUMPI PUSH2 0x80A PUSH2 0x70F JUMP JUMPDEST JUMPDEST PUSH1 0x0 PUSH2 0x819 DUP5 DUP3 DUP6 ADD PUSH2 0x7E0 JUMP JUMPDEST SWAP2 POP POP SWAP3 SWAP2 POP POP JUMP JUMPDEST PUSH32 0x4E487B7100000000000000000000000000000000000000000000000000000000 PUSH1 0x0 MSTORE PUSH1 0x32 PUSH1 0x4 MSTORE PUSH1 0x24 PUSH1 0x0 REVERT JUMPDEST PUSH32 0x4E487B7100000000000000000000000000000000000000000000000000000000 PUSH1 0x0 MSTORE PUSH1 0x11 PUSH1 0x4 MSTORE PUSH1 0x24 PUSH1 0x0 REVERT JUMPDEST PUSH1 0x0 PUSH2 0x88B DUP3 PUSH2 0x6DB JUMP JUMPDEST SWAP2 POP PUSH2 0x896 DUP4 PUSH2 0x6DB JUMP JUMPDEST SWAP3 POP DUP3 PUSH32 0xFFFFFFFFFFFFFFFFFFFFFFFFFFFFFFFFFFFFFFFFFFFFFFFFFFFFFFFFFFFFFFFF SUB DUP3 GT ISZERO PUSH2 0x8CB JUMPI PUSH2 0x8CA PUSH2 0x851 JUMP JUMPDEST JUMPDEST DUP3 DUP3 ADD SWAP1 POP SWAP3 SWAP2 POP POP JUMP JUMPDEST PUSH32 0x4E487B7100000000000000000000000000000000000000000000000000000000 PUSH1 0x0 MSTORE PUSH1 0x41 PUSH1 0x4 MSTORE PUSH1 0x24 PUSH1 0x0 REVERT JUMPDEST PUSH1 0x0 DUP3 DUP3 MSTORE PUSH1 0x20 DUP3 ADD SWAP1 POP SWAP3 SWAP2 POP POP JUMP JUMPDEST PUSH32 0x53456E64204661696C6564000000000000000000000000000000000000000000 PUSH1 0x0 DUP3 ADD MSTORE POP JUMP JUMPDEST PUSH1 0x0 PUSH2 0x94C PUSH1 0xB DUP4 PUSH2 0x905 JUMP JUMPDEST SWAP2 POP PUSH2 0x957 DUP3 PUSH2 0x916 JUMP JUMPDEST PUSH1 0x20 DUP3 ADD SWAP1 POP SWAP2 SWAP1 POP JUMP JUMPDEST PUSH1 0x0 PUSH1 0x20 DUP3 ADD SWAP1 POP DUP2 DUP2 SUB PUSH1 0x0 DUP4 ADD MSTORE PUSH2 0x97B DUP2 PUSH2 0x93F JUMP JUMPDEST SWAP1 POP SWAP2 SWAP1 POP JUMP JUMPDEST PUSH1 0x0 DUP2 SWAP1 POP SWAP3 SWAP2 POP POP JUMP JUMPDEST POP JUMP JUMPDEST PUSH1 0x0 PUSH2 0x99D PUSH1 0x0 DUP4 PUSH2 0x982 JUMP JUMPDEST SWAP2 POP PUSH2 0x9A8 DUP3 PUSH2 0x98D JUMP JUMPDEST PUSH1 0x0 DUP3 ADD SWAP1 POP SWAP2 SWAP1 POP JUMP JUMPDEST PUSH1 0x0 PUSH2 0x9BE DUP3 PUSH2 0x990 JUMP JUMPDEST SWAP2 POP DUP2 SWAP1 POP SWAP2 SWAP1 POP JUMP JUMPDEST PUSH32 0x63616C6C204661696C6564000000000000000000000000000000000000000000 PUSH1 0x0 DUP3 ADD MSTORE POP JUMP JUMPDEST PUSH1 0x0 PUSH2 0x9FE PUSH1 0xB DUP4 PUSH2 0x905 JUMP JUMPDEST SWAP2 POP PUSH2 0xA09 DUP3 PUSH2 0x9C8 JUMP JUMPDEST PUSH1 0x20 DUP3 ADD SWAP1 POP SWAP2 SWAP1 POP JUMP JUMPDEST PUSH1 0x0 PUSH1 0x20 DUP3 ADD SWAP1 POP DUP2 DUP2 SUB PUSH1 0x0 DUP4 ADD MSTORE PUSH2 0xA2D DUP2 PUSH2 0x9F1 JUMP JUMPDEST SWAP1 POP SWAP2 SWAP1 POP JUMP JUMPDEST PUSH32 0x646964276E742073656E6420656E6F7567682065746800000000000000000000 PUSH1 0x0 DUP3 ADD MSTORE POP JUMP JUMPDEST PUSH1 0x0 PUSH2 0xA6A PUSH1 0x16 DUP4 PUSH2 0x905 JUMP JUMPDEST SWAP2 POP PUSH2 0xA75 DUP3 PUSH2 0xA34 JUMP JUMPDEST PUSH1 0x20 DUP3 ADD SWAP1 POP SWAP2 SWAP1 POP JUMP JUMPDEST PUSH1 0x0 PUSH1 0x20 DUP3 ADD SWAP1 POP DUP2 DUP2 SUB PUSH1 0x0 DUP4 ADD MSTORE PUSH2 0xA99 DUP2 PUSH2 0xA5D JUMP JUMPDEST SWAP1 POP SWAP2 SWAP1 POP JUMP JUMPDEST PUSH1 0x0 PUSH2 0xAAB DUP3 PUSH2 0x6DB JUMP JUMPDEST SWAP2 POP PUSH2 0xAB6 DUP4 PUSH2 0x6DB JUMP JUMPDEST SWAP3 POP DUP2 PUSH32 0xFFFFFFFFFFFFFFFFFFFFFFFFFFFFFFFFFFFFFFFFFFFFFFFFFFFFFFFFFFFFFFFF DIV DUP4 GT DUP3 ISZERO ISZERO AND ISZERO PUSH2 0xAEF JUMPI PUSH2 0xAEE PUSH2 0x851 JUMP JUMPDEST JUMPDEST DUP3 DUP3 MUL SWAP1 POP SWAP3 SWAP2 POP POP JUMP JUMPDEST PUSH32 0x4E487B7100000000000000000000000000000000000000000000000000000000 PUSH1 0x0 MSTORE PUSH1 0x12 PUSH1 0x4 MSTORE PUSH1 0x24 PUSH1 0x0 REVERT JUMPDEST PUSH1 0x0 PUSH2 0xB34 DUP3 PUSH2 0x6DB JUMP JUMPDEST SWAP2 POP PUSH2 0xB3F DUP4 PUSH2 0x6DB JUMP JUMPDEST SWAP3 POP DUP3 PUSH2 0xB4F JUMPI PUSH2 0xB4E PUSH2 0xAFA JUMP JUMPDEST JUMPDEST DUP3 DUP3 DIV SWAP1 POP SWAP3 SWAP2 POP POP JUMP JUMPDEST PUSH1 0x0 PUSH10 0xFFFFFFFFFFFFFFFFFFFF DUP3 AND SWAP1 POP SWAP2 SWAP1 POP JUMP JUMPDEST PUSH2 0xB79 DUP2 PUSH2 0xB5A JUMP JUMPDEST DUP2 EQ PUSH2 0xB84 JUMPI PUSH1 0x0 DUP1 REVERT JUMPDEST POP JUMP JUMPDEST PUSH1 0x0 DUP2 MLOAD SWAP1 POP PUSH2 0xB96 DUP2 PUSH2 0xB70 JUMP JUMPDEST SWAP3 SWAP2 POP POP JUMP JUMPDEST PUSH1 0x0 DUP2 SWAP1 POP SWAP2 SWAP1 POP JUMP JUMPDEST PUSH2 0xBAF DUP2 PUSH2 0xB9C JUMP JUMPDEST DUP2 EQ PUSH2 0xBBA JUMPI PUSH1 0x0 DUP1 REVERT JUMPDEST POP JUMP JUMPDEST PUSH1 0x0 DUP2 MLOAD SWAP1 POP PUSH2 0xBCC DUP2 PUSH2 0xBA6 JUMP JUMPDEST SWAP3 SWAP2 POP POP JUMP JUMPDEST PUSH1 0x0 DUP2 MLOAD SWAP1 POP PUSH2 0xBE1 DUP2 PUSH2 0x7C9 JUMP JUMPDEST SWAP3 SWAP2 POP POP JUMP JUMPDEST PUSH1 0x0 DUP1 PUSH1 0x0 DUP1 PUSH1 0x0 PUSH1 0xA0 DUP7 DUP9 SUB SLT ISZERO PUSH2 0xC03 JUMPI PUSH2 0xC02 PUSH2 0x70F JUMP JUMPDEST JUMPDEST PUSH1 0x0 PUSH2 0xC11 DUP9 DUP3 DUP10 ADD PUSH2 0xB87 JUMP JUMPDEST SWAP6 POP POP PUSH1 0x20 PUSH2 0xC22 DUP9 DUP3 DUP10 ADD PUSH2 0xBBD JUMP JUMPDEST SWAP5 POP POP PUSH1 0x40 PUSH2 0xC33 DUP9 DUP3 DUP10 ADD PUSH2 0xBD2 JUMP JUMPDEST SWAP4 POP POP PUSH1 0x60 PUSH2 0xC44 DUP9 DUP3 DUP10 ADD PUSH2 0xBD2 JUMP JUMPDEST SWAP3 POP POP PUSH1 0x80 PUSH2 0xC55 DUP9 DUP3 DUP10 ADD PUSH2 0xB87 JUMP JUMPDEST SWAP2 POP POP SWAP3 SWAP6 POP SWAP3 SWAP6 SWAP1 SWAP4 POP JUMP JUMPDEST PUSH1 0x0 PUSH2 0xC6D DUP3 PUSH2 0xB9C JUMP JUMPDEST SWAP2 POP PUSH2 0xC78 DUP4 PUSH2 0xB9C JUMP JUMPDEST SWAP3 POP DUP3 PUSH32 0x7FFFFFFFFFFFFFFFFFFFFFFFFFFFFFFFFFFFFFFFFFFFFFFFFFFFFFFFFFFFFFFF DIV DUP3 GT PUSH1 0x0 DUP5 SGT PUSH1 0x0 DUP5 SGT AND AND ISZERO PUSH2 0xCB7 JUMPI PUSH2 0xCB6 PUSH2 0x851 JUMP JUMPDEST JUMPDEST DUP2 PUSH32 0x8000000000000000000000000000000000000000000000000000000000000000 SDIV DUP4 SLT PUSH1 0x0 DUP5 SLT PUSH1 0x0 DUP5 SGT AND AND ISZERO PUSH2 0xCF4 JUMPI PUSH2 0xCF3 PUSH2 0x851 JUMP JUMPDEST JUMPDEST DUP3 PUSH32 0x8000000000000000000000000000000000000000000000000000000000000000 SDIV DUP3 SLT PUSH1 0x0 DUP5 SGT PUSH1 0x0 DUP5 SLT AND AND ISZERO PUSH2 0xD31 JUMPI PUSH2 0xD30 PUSH2 0x851 JUMP JUMPDEST JUMPDEST DUP3 PUSH32 0x7FFFFFFFFFFFFFFFFFFFFFFFFFFFFFFFFFFFFFFFFFFFFFFFFFFFFFFFFFFFFFFF SDIV DUP3 SLT PUSH1 0x0 DUP5 SLT PUSH1 0x0 DUP5 SLT AND AND ISZERO PUSH2 0xD6E JUMPI PUSH2 0xD6D PUSH2 0x851 JUMP JUMPDEST JUMPDEST DUP3 DUP3 MUL SWAP1 POP SWAP3 SWAP2 POP POP JUMP INVALID LOG2 PUSH5 0x6970667358 0x22 SLT KECCAK256 0x29 0xC5 OR 0xE 0xC6 PUSH23 0xC72A7ED927F4F1CF9F2E1B2A7CC6DAE8E0D23E1EBD88FE 0xC1 PUSH3 0x146473 PUSH16 0x6C634300080800330000000000000000 "
				},
				"gasEstimates": {
					"creation": {
						"codeDepositCost": "700600",
						"executionCost": "47106",
						"totalCost": "747706"
					},
					"external": {
						"addressToAmountFunded(address)": "2836",
						"fund()": "infinite",
						"funders(uint256)": "5044",
						"minimumUsd()": "2407",
						"owner()": "2558",
						"withdraw()": "infinite"
					}
				},
				"methodIdentifiers": {
					"addressToAmountFunded(address)": "3e47d6f3",
					"fund()": "b60d4288",
					"funders(uint256)": "dc0d3dff",
					"minimumUsd()": "098de820",
					"owner()": "8da5cb5b",
					"withdraw()": "3ccfd60b"
				}
			},
			"storageLayout": {
				"storage": [
					{
						"astId": 57,
						"contract": "Fundme.sol:FundMe",
						"label": "minimumUsd",
						"offset": 0,
						"slot": "0",
						"type": "t_uint256"
					},
					{
						"astId": 60,
						"contract": "Fundme.sol:FundMe",
						"label": "funders",
						"offset": 0,
						"slot": "1",
						"type": "t_array(t_address)dyn_storage"
					},
					{
						"astId": 64,
						"contract": "Fundme.sol:FundMe",
						"label": "addressToAmountFunded",
						"offset": 0,
						"slot": "2",
						"type": "t_mapping(t_address,t_uint256)"
					},
					{
						"astId": 66,
						"contract": "Fundme.sol:FundMe",
						"label": "owner",
						"offset": 0,
						"slot": "3",
						"type": "t_address"
					}
				],
				"types": {
					"t_address": {
						"encoding": "inplace",
						"label": "address",
						"numberOfBytes": "20"
					},
					"t_array(t_address)dyn_storage": {
						"base": "t_address",
						"encoding": "dynamic_array",
						"label": "address[]",
						"numberOfBytes": "32"
					},
					"t_mapping(t_address,t_uint256)": {
						"encoding": "mapping",
						"key": "t_address",
						"label": "mapping(address => uint256)",
						"numberOfBytes": "32",
						"value": "t_uint256"
					},
					"t_uint256": {
						"encoding": "inplace",
						"label": "uint256",
						"numberOfBytes": "32"
					}
				}
			},
			"userdoc": {
				"kind": "user",
				"methods": {},
				"version": 1
			}
		}
	}
}