{
	"mapping.sol": {
		"maptest": {
			"abi": [
				{
					"inputs": [
						{
							"internalType": "string",
							"name": "",
							"type": "string"
						}
					],
					"name": "NametoFavnum",
					"outputs": [
						{
							"internalType": "uint256",
							"name": "",
							"type": "uint256"
						}
					],
					"stateMutability": "view",
					"type": "function"
				},
				{
					"inputs": [
						{
							"internalType": "string",
							"name": "_name",
							"type": "string"
						},
						{
							"internalType": "uint256",
							"name": "_favNum",
							"type": "uint256"
						}
					],
					"name": "addDetails",
					"outputs": [],
					"stateMutability": "nonpayable",
					"type": "function"
				},
				{
					"inputs": [
						{
							"internalType": "uint256",
							"name": "",
							"type": "uint256"
						}
					],
					"name": "favteller",
					"outputs": [
						{
							"internalType": "string",
							"name": "name",
							"type": "string"
						},
						{
							"internalType": "uint256",
							"name": "favNum",
							"type": "uint256"
						}
					],
					"stateMutability": "view",
					"type": "function"
				}
			],
			"devdoc": {
				"kind": "dev",
				"methods": {},
				"version": 1
			},
			"evm": {
				"assembly": "    /* \"mapping.sol\":62:450  contract maptest{... */\n  mstore(0x40, 0x80)\n  callvalue\n  dup1\n  iszero\n  tag_1\n  jumpi\n  0x00\n  dup1\n  revert\ntag_1:\n  pop\n  dataSize(sub_0)\n  dup1\n  dataOffset(sub_0)\n  0x00\n  codecopy\n  0x00\n  return\nstop\n\nsub_0: assembly {\n        /* \"mapping.sol\":62:450  contract maptest{... */\n      mstore(0x40, 0x80)\n      callvalue\n      dup1\n      iszero\n      tag_1\n      jumpi\n      0x00\n      dup1\n      revert\n    tag_1:\n      pop\n      jumpi(tag_2, lt(calldatasize, 0x04))\n      shr(0xe0, calldataload(0x00))\n      dup1\n      0x94775361\n      eq\n      tag_3\n      jumpi\n      dup1\n      0xe4b39209\n      eq\n      tag_4\n      jumpi\n      dup1\n      0xe5272332\n      eq\n      tag_5\n      jumpi\n    tag_2:\n      0x00\n      dup1\n      revert\n        /* \"mapping.sol\":165:193  favTeller[] public favteller */\n    tag_3:\n      tag_6\n      0x04\n      dup1\n      calldatasize\n      sub\n      dup2\n      add\n      swap1\n      tag_7\n      swap2\n      swap1\n      tag_8\n      jump\t// in\n    tag_7:\n      tag_9\n      jump\t// in\n    tag_6:\n      mload(0x40)\n      tag_10\n      swap3\n      swap2\n      swap1\n      tag_11\n      jump\t// in\n    tag_10:\n      mload(0x40)\n      dup1\n      swap2\n      sub\n      swap1\n      return\n        /* \"mapping.sol\":262:447  function addDetails(string memory _name,uint256 _favNum)public{... */\n    tag_4:\n      tag_12\n      0x04\n      dup1\n      calldatasize\n      sub\n      dup2\n      add\n      swap1\n      tag_13\n      swap2\n      swap1\n      tag_14\n      jump\t// in\n    tag_13:\n      tag_15\n      jump\t// in\n    tag_12:\n      stop\n        /* \"mapping.sol\":202:249  mapping (string => uint256) public NametoFavnum */\n    tag_5:\n      tag_16\n      0x04\n      dup1\n      calldatasize\n      sub\n      dup2\n      add\n      swap1\n      tag_17\n      swap2\n      swap1\n      tag_18\n      jump\t// in\n    tag_17:\n      tag_19\n      jump\t// in\n    tag_16:\n      mload(0x40)\n      tag_20\n      swap2\n      swap1\n      tag_21\n      jump\t// in\n    tag_20:\n      mload(0x40)\n      dup1\n      swap2\n      sub\n      swap1\n      return\n        /* \"mapping.sol\":165:193  favTeller[] public favteller */\n    tag_9:\n      0x00\n      dup2\n      dup2\n      sload\n      dup2\n      lt\n      tag_22\n      jumpi\n      0x00\n      dup1\n      revert\n    tag_22:\n      swap1\n      0x00\n      mstore\n      keccak256(0x00, 0x20)\n      swap1\n      0x02\n      mul\n      add\n      0x00\n      swap2\n      pop\n      swap1\n      pop\n      dup1\n      0x00\n      add\n      dup1\n      sload\n      tag_24\n      swap1\n      tag_25\n      jump\t// in\n    tag_24:\n      dup1\n      0x1f\n      add\n      0x20\n      dup1\n      swap2\n      div\n      mul\n      0x20\n      add\n      mload(0x40)\n      swap1\n      dup2\n      add\n      0x40\n      mstore\n      dup1\n      swap3\n      swap2\n      swap1\n      dup2\n      dup2\n      mstore\n      0x20\n      add\n      dup3\n      dup1\n      sload\n      tag_26\n      swap1\n      tag_25\n      jump\t// in\n    tag_26:\n      dup1\n      iszero\n      tag_27\n      jumpi\n      dup1\n      0x1f\n      lt\n      tag_28\n      jumpi\n      0x0100\n      dup1\n      dup4\n      sload\n      div\n      mul\n      dup4\n      mstore\n      swap2\n      0x20\n      add\n      swap2\n      jump(tag_27)\n    tag_28:\n      dup3\n      add\n      swap2\n      swap1\n      0x00\n      mstore\n      keccak256(0x00, 0x20)\n      swap1\n    tag_29:\n      dup2\n      sload\n      dup2\n      mstore\n      swap1\n      0x01\n      add\n      swap1\n      0x20\n      add\n      dup1\n      dup4\n      gt\n      tag_29\n      jumpi\n      dup3\n      swap1\n      sub\n      0x1f\n      and\n      dup3\n      add\n      swap2\n    tag_27:\n      pop\n      pop\n      pop\n      pop\n      pop\n      swap1\n      dup1\n      0x01\n      add\n      sload\n      swap1\n      pop\n      dup3\n      jump\t// out\n        /* \"mapping.sol\":262:447  function addDetails(string memory _name,uint256 _favNum)public{... */\n    tag_15:\n        /* \"mapping.sol\":345:354  favteller */\n      0x00\n        /* \"mapping.sol\":360:398  favTeller({name:_name,favNum:_favNum}) */\n      mload(0x40)\n      dup1\n      0x40\n      add\n      0x40\n      mstore\n      dup1\n        /* \"mapping.sol\":376:381  _name */\n      dup5\n        /* \"mapping.sol\":360:398  favTeller({name:_name,favNum:_favNum}) */\n      dup2\n      mstore\n      0x20\n      add\n        /* \"mapping.sol\":389:396  _favNum */\n      dup4\n        /* \"mapping.sol\":360:398  favTeller({name:_name,favNum:_favNum}) */\n      dup2\n      mstore\n      pop\n        /* \"mapping.sol\":345:399  favteller.push(favTeller({name:_name,favNum:_favNum})) */\n      swap1\n      dup1\n      0x01\n      dup2\n      sload\n      add\n      dup1\n      dup3\n      sstore\n      dup1\n      swap2\n      pop\n      pop\n      0x01\n      swap1\n      sub\n      swap1\n      0x00\n      mstore\n      keccak256(0x00, 0x20)\n      swap1\n      0x02\n      mul\n      add\n      0x00\n      swap1\n      swap2\n      swap1\n      swap2\n      swap1\n      swap2\n      pop\n      0x00\n      dup3\n      add\n      mload\n      dup2\n      0x00\n      add\n      swap1\n      dup2\n      tag_32\n      swap2\n      swap1\n      tag_33\n      jump\t// in\n    tag_32:\n      pop\n      0x20\n      dup3\n      add\n      mload\n      dup2\n      0x01\n      add\n      sstore\n      pop\n      pop\n        /* \"mapping.sol\":430:437  _favNum */\n      dup1\n        /* \"mapping.sol\":410:422  NametoFavnum */\n      0x01\n        /* \"mapping.sol\":423:428  _name */\n      dup4\n        /* \"mapping.sol\":410:429  NametoFavnum[_name] */\n      mload(0x40)\n      tag_34\n      swap2\n      swap1\n      tag_35\n      jump\t// in\n    tag_34:\n      swap1\n      dup2\n      mstore\n      0x20\n      add\n      mload(0x40)\n      dup1\n      swap2\n      sub\n      swap1\n      keccak256\n        /* \"mapping.sol\":410:437  NametoFavnum[_name]=_favNum */\n      dup2\n      swap1\n      sstore\n      pop\n        /* \"mapping.sol\":262:447  function addDetails(string memory _name,uint256 _favNum)public{... */\n      pop\n      pop\n      jump\t// out\n        /* \"mapping.sol\":202:249  mapping (string => uint256) public NametoFavnum */\n    tag_19:\n      0x01\n      dup2\n      dup1\n      mload\n      0x20\n      dup2\n      add\n      dup3\n      add\n      dup1\n      mload\n      dup5\n      dup3\n      mstore\n      0x20\n      dup4\n      add\n      0x20\n      dup6\n      add\n      keccak256\n      dup2\n      dup4\n      mstore\n      dup1\n      swap6\n      pop\n      pop\n      pop\n      pop\n      pop\n      pop\n      0x00\n      swap2\n      pop\n      swap1\n      pop\n      sload\n      dup2\n      jump\t// out\n        /* \"#utility.yul\":7:82   */\n    tag_36:\n        /* \"#utility.yul\":40:46   */\n      0x00\n        /* \"#utility.yul\":73:75   */\n      0x40\n        /* \"#utility.yul\":67:76   */\n      mload\n        /* \"#utility.yul\":57:76   */\n      swap1\n      pop\n        /* \"#utility.yul\":7:82   */\n      swap1\n      jump\t// out\n        /* \"#utility.yul\":88:205   */\n    tag_37:\n        /* \"#utility.yul\":197:198   */\n      0x00\n        /* \"#utility.yul\":194:195   */\n      dup1\n        /* \"#utility.yul\":187:199   */\n      revert\n        /* \"#utility.yul\":211:328   */\n    tag_38:\n        /* \"#utility.yul\":320:321   */\n      0x00\n        /* \"#utility.yul\":317:318   */\n      dup1\n        /* \"#utility.yul\":310:322   */\n      revert\n        /* \"#utility.yul\":334:411   */\n    tag_39:\n        /* \"#utility.yul\":371:378   */\n      0x00\n        /* \"#utility.yul\":400:405   */\n      dup2\n        /* \"#utility.yul\":389:405   */\n      swap1\n      pop\n        /* \"#utility.yul\":334:411   */\n      swap2\n      swap1\n      pop\n      jump\t// out\n        /* \"#utility.yul\":417:539   */\n    tag_40:\n        /* \"#utility.yul\":490:514   */\n      tag_81\n        /* \"#utility.yul\":508:513   */\n      dup2\n        /* \"#utility.yul\":490:514   */\n      tag_39\n      jump\t// in\n    tag_81:\n        /* \"#utility.yul\":483:488   */\n      dup2\n        /* \"#utility.yul\":480:515   */\n      eq\n        /* \"#utility.yul\":470:533   */\n      tag_82\n      jumpi\n        /* \"#utility.yul\":529:530   */\n      0x00\n        /* \"#utility.yul\":526:527   */\n      dup1\n        /* \"#utility.yul\":519:531   */\n      revert\n        /* \"#utility.yul\":470:533   */\n    tag_82:\n        /* \"#utility.yul\":417:539   */\n      pop\n      jump\t// out\n        /* \"#utility.yul\":545:684   */\n    tag_41:\n        /* \"#utility.yul\":591:596   */\n      0x00\n        /* \"#utility.yul\":629:635   */\n      dup2\n        /* \"#utility.yul\":616:636   */\n      calldataload\n        /* \"#utility.yul\":607:636   */\n      swap1\n      pop\n        /* \"#utility.yul\":645:678   */\n      tag_84\n        /* \"#utility.yul\":672:677   */\n      dup2\n        /* \"#utility.yul\":645:678   */\n      tag_40\n      jump\t// in\n    tag_84:\n        /* \"#utility.yul\":545:684   */\n      swap3\n      swap2\n      pop\n      pop\n      jump\t// out\n        /* \"#utility.yul\":690:1019   */\n    tag_8:\n        /* \"#utility.yul\":749:755   */\n      0x00\n        /* \"#utility.yul\":798:800   */\n      0x20\n        /* \"#utility.yul\":786:795   */\n      dup3\n        /* \"#utility.yul\":777:784   */\n      dup5\n        /* \"#utility.yul\":773:796   */\n      sub\n        /* \"#utility.yul\":769:801   */\n      slt\n        /* \"#utility.yul\":766:885   */\n      iszero\n      tag_86\n      jumpi\n        /* \"#utility.yul\":804:883   */\n      tag_87\n      tag_37\n      jump\t// in\n    tag_87:\n        /* \"#utility.yul\":766:885   */\n    tag_86:\n        /* \"#utility.yul\":924:925   */\n      0x00\n        /* \"#utility.yul\":949:1002   */\n      tag_88\n        /* \"#utility.yul\":994:1001   */\n      dup5\n        /* \"#utility.yul\":985:991   */\n      dup3\n        /* \"#utility.yul\":974:983   */\n      dup6\n        /* \"#utility.yul\":970:992   */\n      add\n        /* \"#utility.yul\":949:1002   */\n      tag_41\n      jump\t// in\n    tag_88:\n        /* \"#utility.yul\":939:1002   */\n      swap2\n      pop\n        /* \"#utility.yul\":895:1012   */\n      pop\n        /* \"#utility.yul\":690:1019   */\n      swap3\n      swap2\n      pop\n      pop\n      jump\t// out\n        /* \"#utility.yul\":1025:1124   */\n    tag_42:\n        /* \"#utility.yul\":1077:1083   */\n      0x00\n        /* \"#utility.yul\":1111:1116   */\n      dup2\n        /* \"#utility.yul\":1105:1117   */\n      mload\n        /* \"#utility.yul\":1095:1117   */\n      swap1\n      pop\n        /* \"#utility.yul\":1025:1124   */\n      swap2\n      swap1\n      pop\n      jump\t// out\n        /* \"#utility.yul\":1130:1299   */\n    tag_43:\n        /* \"#utility.yul\":1214:1225   */\n      0x00\n        /* \"#utility.yul\":1248:1254   */\n      dup3\n        /* \"#utility.yul\":1243:1246   */\n      dup3\n        /* \"#utility.yul\":1236:1255   */\n      mstore\n        /* \"#utility.yul\":1288:1292   */\n      0x20\n        /* \"#utility.yul\":1283:1286   */\n      dup3\n        /* \"#utility.yul\":1279:1293   */\n      add\n        /* \"#utility.yul\":1264:1293   */\n      swap1\n      pop\n        /* \"#utility.yul\":1130:1299   */\n      swap3\n      swap2\n      pop\n      pop\n      jump\t// out\n        /* \"#utility.yul\":1305:1551   */\n    tag_44:\n        /* \"#utility.yul\":1386:1387   */\n      0x00\n        /* \"#utility.yul\":1396:1509   */\n    tag_92:\n        /* \"#utility.yul\":1410:1416   */\n      dup4\n        /* \"#utility.yul\":1407:1408   */\n      dup2\n        /* \"#utility.yul\":1404:1417   */\n      lt\n        /* \"#utility.yul\":1396:1509   */\n      iszero\n      tag_94\n      jumpi\n        /* \"#utility.yul\":1495:1496   */\n      dup1\n        /* \"#utility.yul\":1490:1493   */\n      dup3\n        /* \"#utility.yul\":1486:1497   */\n      add\n        /* \"#utility.yul\":1480:1498   */\n      mload\n        /* \"#utility.yul\":1476:1477   */\n      dup2\n        /* \"#utility.yul\":1471:1474   */\n      dup5\n        /* \"#utility.yul\":1467:1478   */\n      add\n        /* \"#utility.yul\":1460:1499   */\n      mstore\n        /* \"#utility.yul\":1432:1434   */\n      0x20\n        /* \"#utility.yul\":1429:1430   */\n      dup2\n        /* \"#utility.yul\":1425:1435   */\n      add\n        /* \"#utility.yul\":1420:1435   */\n      swap1\n      pop\n        /* \"#utility.yul\":1396:1509   */\n      jump(tag_92)\n    tag_94:\n        /* \"#utility.yul\":1543:1544   */\n      0x00\n        /* \"#utility.yul\":1534:1540   */\n      dup5\n        /* \"#utility.yul\":1529:1532   */\n      dup5\n        /* \"#utility.yul\":1525:1541   */\n      add\n        /* \"#utility.yul\":1518:1545   */\n      mstore\n        /* \"#utility.yul\":1367:1551   */\n      pop\n        /* \"#utility.yul\":1305:1551   */\n      pop\n      pop\n      pop\n      jump\t// out\n        /* \"#utility.yul\":1557:1659   */\n    tag_45:\n        /* \"#utility.yul\":1598:1604   */\n      0x00\n        /* \"#utility.yul\":1649:1651   */\n      0x1f\n        /* \"#utility.yul\":1645:1652   */\n      not\n        /* \"#utility.yul\":1640:1642   */\n      0x1f\n        /* \"#utility.yul\":1633:1638   */\n      dup4\n        /* \"#utility.yul\":1629:1643   */\n      add\n        /* \"#utility.yul\":1625:1653   */\n      and\n        /* \"#utility.yul\":1615:1653   */\n      swap1\n      pop\n        /* \"#utility.yul\":1557:1659   */\n      swap2\n      swap1\n      pop\n      jump\t// out\n        /* \"#utility.yul\":1665:2042   */\n    tag_46:\n        /* \"#utility.yul\":1753:1756   */\n      0x00\n        /* \"#utility.yul\":1781:1820   */\n      tag_97\n        /* \"#utility.yul\":1814:1819   */\n      dup3\n        /* \"#utility.yul\":1781:1820   */\n      tag_42\n      jump\t// in\n    tag_97:\n        /* \"#utility.yul\":1836:1907   */\n      tag_98\n        /* \"#utility.yul\":1900:1906   */\n      dup2\n        /* \"#utility.yul\":1895:1898   */\n      dup6\n        /* \"#utility.yul\":1836:1907   */\n      tag_43\n      jump\t// in\n    tag_98:\n        /* \"#utility.yul\":1829:1907   */\n      swap4\n      pop\n        /* \"#utility.yul\":1916:1981   */\n      tag_99\n        /* \"#utility.yul\":1974:1980   */\n      dup2\n        /* \"#utility.yul\":1969:1972   */\n      dup6\n        /* \"#utility.yul\":1962:1966   */\n      0x20\n        /* \"#utility.yul\":1955:1960   */\n      dup7\n        /* \"#utility.yul\":1951:1967   */\n      add\n        /* \"#utility.yul\":1916:1981   */\n      tag_44\n      jump\t// in\n    tag_99:\n        /* \"#utility.yul\":2006:2035   */\n      tag_100\n        /* \"#utility.yul\":2028:2034   */\n      dup2\n        /* \"#utility.yul\":2006:2035   */\n      tag_45\n      jump\t// in\n    tag_100:\n        /* \"#utility.yul\":2001:2004   */\n      dup5\n        /* \"#utility.yul\":1997:2036   */\n      add\n        /* \"#utility.yul\":1990:2036   */\n      swap2\n      pop\n        /* \"#utility.yul\":1757:2042   */\n      pop\n        /* \"#utility.yul\":1665:2042   */\n      swap3\n      swap2\n      pop\n      pop\n      jump\t// out\n        /* \"#utility.yul\":2048:2166   */\n    tag_47:\n        /* \"#utility.yul\":2135:2159   */\n      tag_102\n        /* \"#utility.yul\":2153:2158   */\n      dup2\n        /* \"#utility.yul\":2135:2159   */\n      tag_39\n      jump\t// in\n    tag_102:\n        /* \"#utility.yul\":2130:2133   */\n      dup3\n        /* \"#utility.yul\":2123:2160   */\n      mstore\n        /* \"#utility.yul\":2048:2166   */\n      pop\n      pop\n      jump\t// out\n        /* \"#utility.yul\":2172:2595   */\n    tag_11:\n        /* \"#utility.yul\":2313:2317   */\n      0x00\n        /* \"#utility.yul\":2351:2353   */\n      0x40\n        /* \"#utility.yul\":2340:2349   */\n      dup3\n        /* \"#utility.yul\":2336:2354   */\n      add\n        /* \"#utility.yul\":2328:2354   */\n      swap1\n      pop\n        /* \"#utility.yul\":2400:2409   */\n      dup2\n        /* \"#utility.yul\":2394:2398   */\n      dup2\n        /* \"#utility.yul\":2390:2410   */\n      sub\n        /* \"#utility.yul\":2386:2387   */\n      0x00\n        /* \"#utility.yul\":2375:2384   */\n      dup4\n        /* \"#utility.yul\":2371:2388   */\n      add\n        /* \"#utility.yul\":2364:2411   */\n      mstore\n        /* \"#utility.yul\":2428:2506   */\n      tag_104\n        /* \"#utility.yul\":2501:2505   */\n      dup2\n        /* \"#utility.yul\":2492:2498   */\n      dup6\n        /* \"#utility.yul\":2428:2506   */\n      tag_46\n      jump\t// in\n    tag_104:\n        /* \"#utility.yul\":2420:2506   */\n      swap1\n      pop\n        /* \"#utility.yul\":2516:2588   */\n      tag_105\n        /* \"#utility.yul\":2584:2586   */\n      0x20\n        /* \"#utility.yul\":2573:2582   */\n      dup4\n        /* \"#utility.yul\":2569:2587   */\n      add\n        /* \"#utility.yul\":2560:2566   */\n      dup5\n        /* \"#utility.yul\":2516:2588   */\n      tag_47\n      jump\t// in\n    tag_105:\n        /* \"#utility.yul\":2172:2595   */\n      swap4\n      swap3\n      pop\n      pop\n      pop\n      jump\t// out\n        /* \"#utility.yul\":2601:2718   */\n    tag_48:\n        /* \"#utility.yul\":2710:2711   */\n      0x00\n        /* \"#utility.yul\":2707:2708   */\n      dup1\n        /* \"#utility.yul\":2700:2712   */\n      revert\n        /* \"#utility.yul\":2724:2841   */\n    tag_49:\n        /* \"#utility.yul\":2833:2834   */\n      0x00\n        /* \"#utility.yul\":2830:2831   */\n      dup1\n        /* \"#utility.yul\":2823:2835   */\n      revert\n        /* \"#utility.yul\":2847:3027   */\n    tag_50:\n        /* \"#utility.yul\":2895:2972   */\n      0x4e487b7100000000000000000000000000000000000000000000000000000000\n        /* \"#utility.yul\":2892:2893   */\n      0x00\n        /* \"#utility.yul\":2885:2973   */\n      mstore\n        /* \"#utility.yul\":2992:2996   */\n      0x41\n        /* \"#utility.yul\":2989:2990   */\n      0x04\n        /* \"#utility.yul\":2982:2997   */\n      mstore\n        /* \"#utility.yul\":3016:3020   */\n      0x24\n        /* \"#utility.yul\":3013:3014   */\n      0x00\n        /* \"#utility.yul\":3006:3021   */\n      revert\n        /* \"#utility.yul\":3033:3314   */\n    tag_51:\n        /* \"#utility.yul\":3116:3143   */\n      tag_110\n        /* \"#utility.yul\":3138:3142   */\n      dup3\n        /* \"#utility.yul\":3116:3143   */\n      tag_45\n      jump\t// in\n    tag_110:\n        /* \"#utility.yul\":3108:3114   */\n      dup2\n        /* \"#utility.yul\":3104:3144   */\n      add\n        /* \"#utility.yul\":3246:3252   */\n      dup2\n        /* \"#utility.yul\":3234:3244   */\n      dup2\n        /* \"#utility.yul\":3231:3253   */\n      lt\n        /* \"#utility.yul\":3210:3228   */\n      0xffffffffffffffff\n        /* \"#utility.yul\":3198:3208   */\n      dup3\n        /* \"#utility.yul\":3195:3229   */\n      gt\n        /* \"#utility.yul\":3192:3254   */\n      or\n        /* \"#utility.yul\":3189:3277   */\n      iszero\n      tag_111\n      jumpi\n        /* \"#utility.yul\":3257:3275   */\n      tag_112\n      tag_50\n      jump\t// in\n    tag_112:\n        /* \"#utility.yul\":3189:3277   */\n    tag_111:\n        /* \"#utility.yul\":3297:3307   */\n      dup1\n        /* \"#utility.yul\":3293:3295   */\n      0x40\n        /* \"#utility.yul\":3286:3308   */\n      mstore\n        /* \"#utility.yul\":3076:3314   */\n      pop\n        /* \"#utility.yul\":3033:3314   */\n      pop\n      pop\n      jump\t// out\n        /* \"#utility.yul\":3320:3449   */\n    tag_52:\n        /* \"#utility.yul\":3354:3360   */\n      0x00\n        /* \"#utility.yul\":3381:3401   */\n      tag_114\n      tag_36\n      jump\t// in\n    tag_114:\n        /* \"#utility.yul\":3371:3401   */\n      swap1\n      pop\n        /* \"#utility.yul\":3410:3443   */\n      tag_115\n        /* \"#utility.yul\":3438:3442   */\n      dup3\n        /* \"#utility.yul\":3430:3436   */\n      dup3\n        /* \"#utility.yul\":3410:3443   */\n      tag_51\n      jump\t// in\n    tag_115:\n        /* \"#utility.yul\":3320:3449   */\n      swap2\n      swap1\n      pop\n      jump\t// out\n        /* \"#utility.yul\":3455:3763   */\n    tag_53:\n        /* \"#utility.yul\":3517:3521   */\n      0x00\n        /* \"#utility.yul\":3607:3625   */\n      0xffffffffffffffff\n        /* \"#utility.yul\":3599:3605   */\n      dup3\n        /* \"#utility.yul\":3596:3626   */\n      gt\n        /* \"#utility.yul\":3593:3649   */\n      iszero\n      tag_117\n      jumpi\n        /* \"#utility.yul\":3629:3647   */\n      tag_118\n      tag_50\n      jump\t// in\n    tag_118:\n        /* \"#utility.yul\":3593:3649   */\n    tag_117:\n        /* \"#utility.yul\":3667:3696   */\n      tag_119\n        /* \"#utility.yul\":3689:3695   */\n      dup3\n        /* \"#utility.yul\":3667:3696   */\n      tag_45\n      jump\t// in\n    tag_119:\n        /* \"#utility.yul\":3659:3696   */\n      swap1\n      pop\n        /* \"#utility.yul\":3751:3755   */\n      0x20\n        /* \"#utility.yul\":3745:3749   */\n      dup2\n        /* \"#utility.yul\":3741:3756   */\n      add\n        /* \"#utility.yul\":3733:3756   */\n      swap1\n      pop\n        /* \"#utility.yul\":3455:3763   */\n      swap2\n      swap1\n      pop\n      jump\t// out\n        /* \"#utility.yul\":3769:3915   */\n    tag_54:\n        /* \"#utility.yul\":3866:3872   */\n      dup3\n        /* \"#utility.yul\":3861:3864   */\n      dup2\n        /* \"#utility.yul\":3856:3859   */\n      dup4\n        /* \"#utility.yul\":3843:3873   */\n      calldatacopy\n        /* \"#utility.yul\":3907:3908   */\n      0x00\n        /* \"#utility.yul\":3898:3904   */\n      dup4\n        /* \"#utility.yul\":3893:3896   */\n      dup4\n        /* \"#utility.yul\":3889:3905   */\n      add\n        /* \"#utility.yul\":3882:3909   */\n      mstore\n        /* \"#utility.yul\":3769:3915   */\n      pop\n      pop\n      pop\n      jump\t// out\n        /* \"#utility.yul\":3921:4346   */\n    tag_55:\n        /* \"#utility.yul\":3999:4004   */\n      0x00\n        /* \"#utility.yul\":4024:4090   */\n      tag_122\n        /* \"#utility.yul\":4040:4089   */\n      tag_123\n        /* \"#utility.yul\":4082:4088   */\n      dup5\n        /* \"#utility.yul\":4040:4089   */\n      tag_53\n      jump\t// in\n    tag_123:\n        /* \"#utility.yul\":4024:4090   */\n      tag_52\n      jump\t// in\n    tag_122:\n        /* \"#utility.yul\":4015:4090   */\n      swap1\n      pop\n        /* \"#utility.yul\":4113:4119   */\n      dup3\n        /* \"#utility.yul\":4106:4111   */\n      dup2\n        /* \"#utility.yul\":4099:4120   */\n      mstore\n        /* \"#utility.yul\":4151:4155   */\n      0x20\n        /* \"#utility.yul\":4144:4149   */\n      dup2\n        /* \"#utility.yul\":4140:4156   */\n      add\n        /* \"#utility.yul\":4189:4192   */\n      dup5\n        /* \"#utility.yul\":4180:4186   */\n      dup5\n        /* \"#utility.yul\":4175:4178   */\n      dup5\n        /* \"#utility.yul\":4171:4187   */\n      add\n        /* \"#utility.yul\":4168:4193   */\n      gt\n        /* \"#utility.yul\":4165:4277   */\n      iszero\n      tag_124\n      jumpi\n        /* \"#utility.yul\":4196:4275   */\n      tag_125\n      tag_49\n      jump\t// in\n    tag_125:\n        /* \"#utility.yul\":4165:4277   */\n    tag_124:\n        /* \"#utility.yul\":4286:4340   */\n      tag_126\n        /* \"#utility.yul\":4333:4339   */\n      dup5\n        /* \"#utility.yul\":4328:4331   */\n      dup3\n        /* \"#utility.yul\":4323:4326   */\n      dup6\n        /* \"#utility.yul\":4286:4340   */\n      tag_54\n      jump\t// in\n    tag_126:\n        /* \"#utility.yul\":4005:4346   */\n      pop\n        /* \"#utility.yul\":3921:4346   */\n      swap4\n      swap3\n      pop\n      pop\n      pop\n      jump\t// out\n        /* \"#utility.yul\":4366:4706   */\n    tag_56:\n        /* \"#utility.yul\":4422:4427   */\n      0x00\n        /* \"#utility.yul\":4471:4474   */\n      dup3\n        /* \"#utility.yul\":4464:4468   */\n      0x1f\n        /* \"#utility.yul\":4456:4462   */\n      dup4\n        /* \"#utility.yul\":4452:4469   */\n      add\n        /* \"#utility.yul\":4448:4475   */\n      slt\n        /* \"#utility.yul\":4438:4560   */\n      tag_128\n      jumpi\n        /* \"#utility.yul\":4479:4558   */\n      tag_129\n      tag_48\n      jump\t// in\n    tag_129:\n        /* \"#utility.yul\":4438:4560   */\n    tag_128:\n        /* \"#utility.yul\":4596:4602   */\n      dup2\n        /* \"#utility.yul\":4583:4603   */\n      calldataload\n        /* \"#utility.yul\":4621:4700   */\n      tag_130\n        /* \"#utility.yul\":4696:4699   */\n      dup5\n        /* \"#utility.yul\":4688:4694   */\n      dup3\n        /* \"#utility.yul\":4681:4685   */\n      0x20\n        /* \"#utility.yul\":4673:4679   */\n      dup7\n        /* \"#utility.yul\":4669:4686   */\n      add\n        /* \"#utility.yul\":4621:4700   */\n      tag_55\n      jump\t// in\n    tag_130:\n        /* \"#utility.yul\":4612:4700   */\n      swap2\n      pop\n        /* \"#utility.yul\":4428:4706   */\n      pop\n        /* \"#utility.yul\":4366:4706   */\n      swap3\n      swap2\n      pop\n      pop\n      jump\t// out\n        /* \"#utility.yul\":4712:5366   */\n    tag_14:\n        /* \"#utility.yul\":4790:4796   */\n      0x00\n        /* \"#utility.yul\":4798:4804   */\n      dup1\n        /* \"#utility.yul\":4847:4849   */\n      0x40\n        /* \"#utility.yul\":4835:4844   */\n      dup4\n        /* \"#utility.yul\":4826:4833   */\n      dup6\n        /* \"#utility.yul\":4822:4845   */\n      sub\n        /* \"#utility.yul\":4818:4850   */\n      slt\n        /* \"#utility.yul\":4815:4934   */\n      iszero\n      tag_132\n      jumpi\n        /* \"#utility.yul\":4853:4932   */\n      tag_133\n      tag_37\n      jump\t// in\n    tag_133:\n        /* \"#utility.yul\":4815:4934   */\n    tag_132:\n        /* \"#utility.yul\":5001:5002   */\n      0x00\n        /* \"#utility.yul\":4990:4999   */\n      dup4\n        /* \"#utility.yul\":4986:5003   */\n      add\n        /* \"#utility.yul\":4973:5004   */\n      calldataload\n        /* \"#utility.yul\":5031:5049   */\n      0xffffffffffffffff\n        /* \"#utility.yul\":5023:5029   */\n      dup2\n        /* \"#utility.yul\":5020:5050   */\n      gt\n        /* \"#utility.yul\":5017:5134   */\n      iszero\n      tag_134\n      jumpi\n        /* \"#utility.yul\":5053:5132   */\n      tag_135\n      tag_38\n      jump\t// in\n    tag_135:\n        /* \"#utility.yul\":5017:5134   */\n    tag_134:\n        /* \"#utility.yul\":5158:5221   */\n      tag_136\n        /* \"#utility.yul\":5213:5220   */\n      dup6\n        /* \"#utility.yul\":5204:5210   */\n      dup3\n        /* \"#utility.yul\":5193:5202   */\n      dup7\n        /* \"#utility.yul\":5189:5211   */\n      add\n        /* \"#utility.yul\":5158:5221   */\n      tag_56\n      jump\t// in\n    tag_136:\n        /* \"#utility.yul\":5148:5221   */\n      swap3\n      pop\n        /* \"#utility.yul\":4944:5231   */\n      pop\n        /* \"#utility.yul\":5270:5272   */\n      0x20\n        /* \"#utility.yul\":5296:5349   */\n      tag_137\n        /* \"#utility.yul\":5341:5348   */\n      dup6\n        /* \"#utility.yul\":5332:5338   */\n      dup3\n        /* \"#utility.yul\":5321:5330   */\n      dup7\n        /* \"#utility.yul\":5317:5339   */\n      add\n        /* \"#utility.yul\":5296:5349   */\n      tag_41\n      jump\t// in\n    tag_137:\n        /* \"#utility.yul\":5286:5349   */\n      swap2\n      pop\n        /* \"#utility.yul\":5241:5359   */\n      pop\n        /* \"#utility.yul\":4712:5366   */\n      swap3\n      pop\n      swap3\n      swap1\n      pop\n      jump\t// out\n        /* \"#utility.yul\":5372:5881   */\n    tag_18:\n        /* \"#utility.yul\":5441:5447   */\n      0x00\n        /* \"#utility.yul\":5490:5492   */\n      0x20\n        /* \"#utility.yul\":5478:5487   */\n      dup3\n        /* \"#utility.yul\":5469:5476   */\n      dup5\n        /* \"#utility.yul\":5465:5488   */\n      sub\n        /* \"#utility.yul\":5461:5493   */\n      slt\n        /* \"#utility.yul\":5458:5577   */\n      iszero\n      tag_139\n      jumpi\n        /* \"#utility.yul\":5496:5575   */\n      tag_140\n      tag_37\n      jump\t// in\n    tag_140:\n        /* \"#utility.yul\":5458:5577   */\n    tag_139:\n        /* \"#utility.yul\":5644:5645   */\n      0x00\n        /* \"#utility.yul\":5633:5642   */\n      dup3\n        /* \"#utility.yul\":5629:5646   */\n      add\n        /* \"#utility.yul\":5616:5647   */\n      calldataload\n        /* \"#utility.yul\":5674:5692   */\n      0xffffffffffffffff\n        /* \"#utility.yul\":5666:5672   */\n      dup2\n        /* \"#utility.yul\":5663:5693   */\n      gt\n        /* \"#utility.yul\":5660:5777   */\n      iszero\n      tag_141\n      jumpi\n        /* \"#utility.yul\":5696:5775   */\n      tag_142\n      tag_38\n      jump\t// in\n    tag_142:\n        /* \"#utility.yul\":5660:5777   */\n    tag_141:\n        /* \"#utility.yul\":5801:5864   */\n      tag_143\n        /* \"#utility.yul\":5856:5863   */\n      dup5\n        /* \"#utility.yul\":5847:5853   */\n      dup3\n        /* \"#utility.yul\":5836:5845   */\n      dup6\n        /* \"#utility.yul\":5832:5854   */\n      add\n        /* \"#utility.yul\":5801:5864   */\n      tag_56\n      jump\t// in\n    tag_143:\n        /* \"#utility.yul\":5791:5864   */\n      swap2\n      pop\n        /* \"#utility.yul\":5587:5874   */\n      pop\n        /* \"#utility.yul\":5372:5881   */\n      swap3\n      swap2\n      pop\n      pop\n      jump\t// out\n        /* \"#utility.yul\":5887:6109   */\n    tag_21:\n        /* \"#utility.yul\":5980:5984   */\n      0x00\n        /* \"#utility.yul\":6018:6020   */\n      0x20\n        /* \"#utility.yul\":6007:6016   */\n      dup3\n        /* \"#utility.yul\":6003:6021   */\n      add\n        /* \"#utility.yul\":5995:6021   */\n      swap1\n      pop\n        /* \"#utility.yul\":6031:6102   */\n      tag_145\n        /* \"#utility.yul\":6099:6100   */\n      0x00\n        /* \"#utility.yul\":6088:6097   */\n      dup4\n        /* \"#utility.yul\":6084:6101   */\n      add\n        /* \"#utility.yul\":6075:6081   */\n      dup5\n        /* \"#utility.yul\":6031:6102   */\n      tag_47\n      jump\t// in\n    tag_145:\n        /* \"#utility.yul\":5887:6109   */\n      swap3\n      swap2\n      pop\n      pop\n      jump\t// out\n        /* \"#utility.yul\":6115:6295   */\n    tag_57:\n        /* \"#utility.yul\":6163:6240   */\n      0x4e487b7100000000000000000000000000000000000000000000000000000000\n        /* \"#utility.yul\":6160:6161   */\n      0x00\n        /* \"#utility.yul\":6153:6241   */\n      mstore\n        /* \"#utility.yul\":6260:6264   */\n      0x22\n        /* \"#utility.yul\":6257:6258   */\n      0x04\n        /* \"#utility.yul\":6250:6265   */\n      mstore\n        /* \"#utility.yul\":6284:6288   */\n      0x24\n        /* \"#utility.yul\":6281:6282   */\n      0x00\n        /* \"#utility.yul\":6274:6289   */\n      revert\n        /* \"#utility.yul\":6301:6621   */\n    tag_25:\n        /* \"#utility.yul\":6345:6351   */\n      0x00\n        /* \"#utility.yul\":6382:6383   */\n      0x02\n        /* \"#utility.yul\":6376:6380   */\n      dup3\n        /* \"#utility.yul\":6372:6384   */\n      div\n        /* \"#utility.yul\":6362:6384   */\n      swap1\n      pop\n        /* \"#utility.yul\":6429:6430   */\n      0x01\n        /* \"#utility.yul\":6423:6427   */\n      dup3\n        /* \"#utility.yul\":6419:6431   */\n      and\n        /* \"#utility.yul\":6450:6468   */\n      dup1\n        /* \"#utility.yul\":6440:6521   */\n      tag_148\n      jumpi\n        /* \"#utility.yul\":6506:6510   */\n      0x7f\n        /* \"#utility.yul\":6498:6504   */\n      dup3\n        /* \"#utility.yul\":6494:6511   */\n      and\n        /* \"#utility.yul\":6484:6511   */\n      swap2\n      pop\n        /* \"#utility.yul\":6440:6521   */\n    tag_148:\n        /* \"#utility.yul\":6568:6570   */\n      0x20\n        /* \"#utility.yul\":6560:6566   */\n      dup3\n        /* \"#utility.yul\":6557:6571   */\n      lt\n        /* \"#utility.yul\":6537:6555   */\n      dup2\n        /* \"#utility.yul\":6534:6572   */\n      sub\n        /* \"#utility.yul\":6531:6615   */\n      tag_149\n      jumpi\n        /* \"#utility.yul\":6587:6605   */\n      tag_150\n      tag_57\n      jump\t// in\n    tag_150:\n        /* \"#utility.yul\":6531:6615   */\n    tag_149:\n        /* \"#utility.yul\":6352:6621   */\n      pop\n        /* \"#utility.yul\":6301:6621   */\n      swap2\n      swap1\n      pop\n      jump\t// out\n        /* \"#utility.yul\":6627:6768   */\n    tag_58:\n        /* \"#utility.yul\":6676:6680   */\n      0x00\n        /* \"#utility.yul\":6699:6702   */\n      dup2\n        /* \"#utility.yul\":6691:6702   */\n      swap1\n      pop\n        /* \"#utility.yul\":6722:6725   */\n      dup2\n        /* \"#utility.yul\":6719:6720   */\n      0x00\n        /* \"#utility.yul\":6712:6726   */\n      mstore\n        /* \"#utility.yul\":6756:6760   */\n      0x20\n        /* \"#utility.yul\":6753:6754   */\n      0x00\n        /* \"#utility.yul\":6743:6761   */\n      keccak256\n        /* \"#utility.yul\":6735:6761   */\n      swap1\n      pop\n        /* \"#utility.yul\":6627:6768   */\n      swap2\n      swap1\n      pop\n      jump\t// out\n        /* \"#utility.yul\":6774:6867   */\n    tag_59:\n        /* \"#utility.yul\":6811:6817   */\n      0x00\n        /* \"#utility.yul\":6858:6860   */\n      0x20\n        /* \"#utility.yul\":6853:6855   */\n      0x1f\n        /* \"#utility.yul\":6846:6851   */\n      dup4\n        /* \"#utility.yul\":6842:6856   */\n      add\n        /* \"#utility.yul\":6838:6861   */\n      div\n        /* \"#utility.yul\":6828:6861   */\n      swap1\n      pop\n        /* \"#utility.yul\":6774:6867   */\n      swap2\n      swap1\n      pop\n      jump\t// out\n        /* \"#utility.yul\":6873:6980   */\n    tag_60:\n        /* \"#utility.yul\":6917:6925   */\n      0x00\n        /* \"#utility.yul\":6967:6972   */\n      dup3\n        /* \"#utility.yul\":6961:6965   */\n      dup3\n        /* \"#utility.yul\":6957:6973   */\n      shl\n        /* \"#utility.yul\":6936:6973   */\n      swap1\n      pop\n        /* \"#utility.yul\":6873:6980   */\n      swap3\n      swap2\n      pop\n      pop\n      jump\t// out\n        /* \"#utility.yul\":6986:7379   */\n    tag_61:\n        /* \"#utility.yul\":7055:7061   */\n      0x00\n        /* \"#utility.yul\":7105:7106   */\n      0x08\n        /* \"#utility.yul\":7093:7103   */\n      dup4\n        /* \"#utility.yul\":7089:7107   */\n      mul\n        /* \"#utility.yul\":7128:7225   */\n      tag_155\n        /* \"#utility.yul\":7158:7224   */\n      0xffffffffffffffffffffffffffffffffffffffffffffffffffffffffffffffff\n        /* \"#utility.yul\":7147:7156   */\n      dup3\n        /* \"#utility.yul\":7128:7225   */\n      tag_60\n      jump\t// in\n    tag_155:\n        /* \"#utility.yul\":7246:7285   */\n      tag_156\n        /* \"#utility.yul\":7276:7284   */\n      dup7\n        /* \"#utility.yul\":7265:7274   */\n      dup4\n        /* \"#utility.yul\":7246:7285   */\n      tag_60\n      jump\t// in\n    tag_156:\n        /* \"#utility.yul\":7234:7285   */\n      swap6\n      pop\n        /* \"#utility.yul\":7318:7322   */\n      dup1\n        /* \"#utility.yul\":7314:7323   */\n      not\n        /* \"#utility.yul\":7307:7312   */\n      dup5\n        /* \"#utility.yul\":7303:7324   */\n      and\n        /* \"#utility.yul\":7294:7324   */\n      swap4\n      pop\n        /* \"#utility.yul\":7367:7371   */\n      dup1\n        /* \"#utility.yul\":7357:7365   */\n      dup7\n        /* \"#utility.yul\":7353:7372   */\n      and\n        /* \"#utility.yul\":7346:7351   */\n      dup5\n        /* \"#utility.yul\":7343:7373   */\n      or\n        /* \"#utility.yul\":7333:7373   */\n      swap3\n      pop\n        /* \"#utility.yul\":7062:7379   */\n      pop\n      pop\n        /* \"#utility.yul\":6986:7379   */\n      swap4\n      swap3\n      pop\n      pop\n      pop\n      jump\t// out\n        /* \"#utility.yul\":7385:7445   */\n    tag_62:\n        /* \"#utility.yul\":7413:7416   */\n      0x00\n        /* \"#utility.yul\":7434:7439   */\n      dup2\n        /* \"#utility.yul\":7427:7439   */\n      swap1\n      pop\n        /* \"#utility.yul\":7385:7445   */\n      swap2\n      swap1\n      pop\n      jump\t// out\n        /* \"#utility.yul\":7451:7593   */\n    tag_63:\n        /* \"#utility.yul\":7501:7510   */\n      0x00\n        /* \"#utility.yul\":7534:7587   */\n      tag_159\n        /* \"#utility.yul\":7552:7586   */\n      tag_160\n        /* \"#utility.yul\":7561:7585   */\n      tag_161\n        /* \"#utility.yul\":7579:7584   */\n      dup5\n        /* \"#utility.yul\":7561:7585   */\n      tag_39\n      jump\t// in\n    tag_161:\n        /* \"#utility.yul\":7552:7586   */\n      tag_62\n      jump\t// in\n    tag_160:\n        /* \"#utility.yul\":7534:7587   */\n      tag_39\n      jump\t// in\n    tag_159:\n        /* \"#utility.yul\":7521:7587   */\n      swap1\n      pop\n        /* \"#utility.yul\":7451:7593   */\n      swap2\n      swap1\n      pop\n      jump\t// out\n        /* \"#utility.yul\":7599:7674   */\n    tag_64:\n        /* \"#utility.yul\":7642:7645   */\n      0x00\n        /* \"#utility.yul\":7663:7668   */\n      dup2\n        /* \"#utility.yul\":7656:7668   */\n      swap1\n      pop\n        /* \"#utility.yul\":7599:7674   */\n      swap2\n      swap1\n      pop\n      jump\t// out\n        /* \"#utility.yul\":7680:7949   */\n    tag_65:\n        /* \"#utility.yul\":7790:7829   */\n      tag_164\n        /* \"#utility.yul\":7821:7828   */\n      dup4\n        /* \"#utility.yul\":7790:7829   */\n      tag_63\n      jump\t// in\n    tag_164:\n        /* \"#utility.yul\":7851:7942   */\n      tag_165\n        /* \"#utility.yul\":7900:7941   */\n      tag_166\n        /* \"#utility.yul\":7924:7940   */\n      dup3\n        /* \"#utility.yul\":7900:7941   */\n      tag_64\n      jump\t// in\n    tag_166:\n        /* \"#utility.yul\":7892:7898   */\n      dup5\n        /* \"#utility.yul\":7885:7889   */\n      dup5\n        /* \"#utility.yul\":7879:7890   */\n      sload\n        /* \"#utility.yul\":7851:7942   */\n      tag_61\n      jump\t// in\n    tag_165:\n        /* \"#utility.yul\":7845:7849   */\n      dup3\n        /* \"#utility.yul\":7838:7943   */\n      sstore\n        /* \"#utility.yul\":7756:7949   */\n      pop\n        /* \"#utility.yul\":7680:7949   */\n      pop\n      pop\n      pop\n      jump\t// out\n        /* \"#utility.yul\":7955:8028   */\n    tag_66:\n        /* \"#utility.yul\":8000:8003   */\n      0x00\n        /* \"#utility.yul\":7955:8028   */\n      swap1\n      jump\t// out\n        /* \"#utility.yul\":8034:8223   */\n    tag_67:\n        /* \"#utility.yul\":8111:8143   */\n      tag_169\n      tag_66\n      jump\t// in\n    tag_169:\n        /* \"#utility.yul\":8152:8217   */\n      tag_170\n        /* \"#utility.yul\":8210:8216   */\n      dup2\n        /* \"#utility.yul\":8202:8208   */\n      dup5\n        /* \"#utility.yul\":8196:8200   */\n      dup5\n        /* \"#utility.yul\":8152:8217   */\n      tag_65\n      jump\t// in\n    tag_170:\n        /* \"#utility.yul\":8087:8223   */\n      pop\n        /* \"#utility.yul\":8034:8223   */\n      pop\n      pop\n      jump\t// out\n        /* \"#utility.yul\":8229:8415   */\n    tag_68:\n        /* \"#utility.yul\":8289:8409   */\n    tag_172:\n        /* \"#utility.yul\":8306:8309   */\n      dup2\n        /* \"#utility.yul\":8299:8304   */\n      dup2\n        /* \"#utility.yul\":8296:8310   */\n      lt\n        /* \"#utility.yul\":8289:8409   */\n      iszero\n      tag_174\n      jumpi\n        /* \"#utility.yul\":8360:8399   */\n      tag_175\n        /* \"#utility.yul\":8397:8398   */\n      0x00\n        /* \"#utility.yul\":8390:8395   */\n      dup3\n        /* \"#utility.yul\":8360:8399   */\n      tag_67\n      jump\t// in\n    tag_175:\n        /* \"#utility.yul\":8333:8334   */\n      0x01\n        /* \"#utility.yul\":8326:8331   */\n      dup2\n        /* \"#utility.yul\":8322:8335   */\n      add\n        /* \"#utility.yul\":8313:8335   */\n      swap1\n      pop\n        /* \"#utility.yul\":8289:8409   */\n      jump(tag_172)\n    tag_174:\n        /* \"#utility.yul\":8229:8415   */\n      pop\n      pop\n      jump\t// out\n        /* \"#utility.yul\":8421:8964   */\n    tag_69:\n        /* \"#utility.yul\":8522:8524   */\n      0x1f\n        /* \"#utility.yul\":8517:8520   */\n      dup3\n        /* \"#utility.yul\":8514:8525   */\n      gt\n        /* \"#utility.yul\":8511:8957   */\n      iszero\n      tag_177\n      jumpi\n        /* \"#utility.yul\":8556:8594   */\n      tag_178\n        /* \"#utility.yul\":8588:8593   */\n      dup2\n        /* \"#utility.yul\":8556:8594   */\n      tag_58\n      jump\t// in\n    tag_178:\n        /* \"#utility.yul\":8640:8669   */\n      tag_179\n        /* \"#utility.yul\":8658:8668   */\n      dup5\n        /* \"#utility.yul\":8640:8669   */\n      tag_59\n      jump\t// in\n    tag_179:\n        /* \"#utility.yul\":8630:8638   */\n      dup2\n        /* \"#utility.yul\":8626:8670   */\n      add\n        /* \"#utility.yul\":8823:8825   */\n      0x20\n        /* \"#utility.yul\":8811:8821   */\n      dup6\n        /* \"#utility.yul\":8808:8826   */\n      lt\n        /* \"#utility.yul\":8805:8854   */\n      iszero\n      tag_180\n      jumpi\n        /* \"#utility.yul\":8844:8852   */\n      dup2\n        /* \"#utility.yul\":8829:8852   */\n      swap1\n      pop\n        /* \"#utility.yul\":8805:8854   */\n    tag_180:\n        /* \"#utility.yul\":8867:8947   */\n      tag_181\n        /* \"#utility.yul\":8923:8945   */\n      tag_182\n        /* \"#utility.yul\":8941:8944   */\n      dup6\n        /* \"#utility.yul\":8923:8945   */\n      tag_59\n      jump\t// in\n    tag_182:\n        /* \"#utility.yul\":8913:8921   */\n      dup4\n        /* \"#utility.yul\":8909:8946   */\n      add\n        /* \"#utility.yul\":8896:8907   */\n      dup3\n        /* \"#utility.yul\":8867:8947   */\n      tag_68\n      jump\t// in\n    tag_181:\n        /* \"#utility.yul\":8526:8957   */\n      pop\n      pop\n        /* \"#utility.yul\":8511:8957   */\n    tag_177:\n        /* \"#utility.yul\":8421:8964   */\n      pop\n      pop\n      pop\n      jump\t// out\n        /* \"#utility.yul\":8970:9087   */\n    tag_70:\n        /* \"#utility.yul\":9024:9032   */\n      0x00\n        /* \"#utility.yul\":9074:9079   */\n      dup3\n        /* \"#utility.yul\":9068:9072   */\n      dup3\n        /* \"#utility.yul\":9064:9080   */\n      shr\n        /* \"#utility.yul\":9043:9080   */\n      swap1\n      pop\n        /* \"#utility.yul\":8970:9087   */\n      swap3\n      swap2\n      pop\n      pop\n      jump\t// out\n        /* \"#utility.yul\":9093:9262   */\n    tag_71:\n        /* \"#utility.yul\":9137:9143   */\n      0x00\n        /* \"#utility.yul\":9170:9221   */\n      tag_185\n        /* \"#utility.yul\":9218:9219   */\n      0x00\n        /* \"#utility.yul\":9214:9220   */\n      not\n        /* \"#utility.yul\":9206:9211   */\n      dup5\n        /* \"#utility.yul\":9203:9204   */\n      0x08\n        /* \"#utility.yul\":9199:9212   */\n      mul\n        /* \"#utility.yul\":9170:9221   */\n      tag_70\n      jump\t// in\n    tag_185:\n        /* \"#utility.yul\":9166:9222   */\n      not\n        /* \"#utility.yul\":9251:9255   */\n      dup1\n        /* \"#utility.yul\":9245:9249   */\n      dup4\n        /* \"#utility.yul\":9241:9256   */\n      and\n        /* \"#utility.yul\":9231:9256   */\n      swap2\n      pop\n        /* \"#utility.yul\":9144:9262   */\n      pop\n        /* \"#utility.yul\":9093:9262   */\n      swap3\n      swap2\n      pop\n      pop\n      jump\t// out\n        /* \"#utility.yul\":9267:9562   */\n    tag_72:\n        /* \"#utility.yul\":9343:9347   */\n      0x00\n        /* \"#utility.yul\":9489:9518   */\n      tag_187\n        /* \"#utility.yul\":9514:9517   */\n      dup4\n        /* \"#utility.yul\":9508:9512   */\n      dup4\n        /* \"#utility.yul\":9489:9518   */\n      tag_71\n      jump\t// in\n    tag_187:\n        /* \"#utility.yul\":9481:9518   */\n      swap2\n      pop\n        /* \"#utility.yul\":9551:9554   */\n      dup3\n        /* \"#utility.yul\":9548:9549   */\n      0x02\n        /* \"#utility.yul\":9544:9555   */\n      mul\n        /* \"#utility.yul\":9538:9542   */\n      dup3\n        /* \"#utility.yul\":9535:9556   */\n      or\n        /* \"#utility.yul\":9527:9556   */\n      swap1\n      pop\n        /* \"#utility.yul\":9267:9562   */\n      swap3\n      swap2\n      pop\n      pop\n      jump\t// out\n        /* \"#utility.yul\":9567:10962   */\n    tag_33:\n        /* \"#utility.yul\":9684:9721   */\n      tag_189\n        /* \"#utility.yul\":9717:9720   */\n      dup3\n        /* \"#utility.yul\":9684:9721   */\n      tag_42\n      jump\t// in\n    tag_189:\n        /* \"#utility.yul\":9786:9804   */\n      0xffffffffffffffff\n        /* \"#utility.yul\":9778:9784   */\n      dup2\n        /* \"#utility.yul\":9775:9805   */\n      gt\n        /* \"#utility.yul\":9772:9828   */\n      iszero\n      tag_190\n      jumpi\n        /* \"#utility.yul\":9808:9826   */\n      tag_191\n      tag_50\n      jump\t// in\n    tag_191:\n        /* \"#utility.yul\":9772:9828   */\n    tag_190:\n        /* \"#utility.yul\":9852:9890   */\n      tag_192\n        /* \"#utility.yul\":9884:9888   */\n      dup3\n        /* \"#utility.yul\":9878:9889   */\n      sload\n        /* \"#utility.yul\":9852:9890   */\n      tag_25\n      jump\t// in\n    tag_192:\n        /* \"#utility.yul\":9937:10004   */\n      tag_193\n        /* \"#utility.yul\":9997:10003   */\n      dup3\n        /* \"#utility.yul\":9989:9995   */\n      dup3\n        /* \"#utility.yul\":9983:9987   */\n      dup6\n        /* \"#utility.yul\":9937:10004   */\n      tag_69\n      jump\t// in\n    tag_193:\n        /* \"#utility.yul\":10031:10032   */\n      0x00\n        /* \"#utility.yul\":10055:10059   */\n      0x20\n        /* \"#utility.yul\":10042:10059   */\n      swap1\n      pop\n        /* \"#utility.yul\":10087:10089   */\n      0x1f\n        /* \"#utility.yul\":10079:10085   */\n      dup4\n        /* \"#utility.yul\":10076:10090   */\n      gt\n        /* \"#utility.yul\":10104:10105   */\n      0x01\n        /* \"#utility.yul\":10099:10717   */\n      dup2\n      eq\n      tag_195\n      jumpi\n        /* \"#utility.yul\":10761:10762   */\n      0x00\n        /* \"#utility.yul\":10778:10784   */\n      dup5\n        /* \"#utility.yul\":10775:10852   */\n      iszero\n      tag_196\n      jumpi\n        /* \"#utility.yul\":10827:10836   */\n      dup3\n        /* \"#utility.yul\":10822:10825   */\n      dup8\n        /* \"#utility.yul\":10818:10837   */\n      add\n        /* \"#utility.yul\":10812:10838   */\n      mload\n        /* \"#utility.yul\":10803:10838   */\n      swap1\n      pop\n        /* \"#utility.yul\":10775:10852   */\n    tag_196:\n        /* \"#utility.yul\":10878:10945   */\n      tag_197\n        /* \"#utility.yul\":10938:10944   */\n      dup6\n        /* \"#utility.yul\":10931:10936   */\n      dup3\n        /* \"#utility.yul\":10878:10945   */\n      tag_72\n      jump\t// in\n    tag_197:\n        /* \"#utility.yul\":10872:10876   */\n      dup7\n        /* \"#utility.yul\":10865:10946   */\n      sstore\n        /* \"#utility.yul\":10734:10956   */\n      pop\n        /* \"#utility.yul\":10069:10956   */\n      jump(tag_194)\n        /* \"#utility.yul\":10099:10717   */\n    tag_195:\n        /* \"#utility.yul\":10151:10155   */\n      0x1f\n        /* \"#utility.yul\":10147:10156   */\n      not\n        /* \"#utility.yul\":10139:10145   */\n      dup5\n        /* \"#utility.yul\":10135:10157   */\n      and\n        /* \"#utility.yul\":10185:10222   */\n      tag_198\n        /* \"#utility.yul\":10217:10221   */\n      dup7\n        /* \"#utility.yul\":10185:10222   */\n      tag_58\n      jump\t// in\n    tag_198:\n        /* \"#utility.yul\":10244:10245   */\n      0x00\n        /* \"#utility.yul\":10258:10466   */\n    tag_199:\n        /* \"#utility.yul\":10272:10279   */\n      dup3\n        /* \"#utility.yul\":10269:10270   */\n      dup2\n        /* \"#utility.yul\":10266:10280   */\n      lt\n        /* \"#utility.yul\":10258:10466   */\n      iszero\n      tag_201\n      jumpi\n        /* \"#utility.yul\":10351:10360   */\n      dup5\n        /* \"#utility.yul\":10346:10349   */\n      dup10\n        /* \"#utility.yul\":10342:10361   */\n      add\n        /* \"#utility.yul\":10336:10362   */\n      mload\n        /* \"#utility.yul\":10328:10334   */\n      dup3\n        /* \"#utility.yul\":10321:10363   */\n      sstore\n        /* \"#utility.yul\":10402:10403   */\n      0x01\n        /* \"#utility.yul\":10394:10400   */\n      dup3\n        /* \"#utility.yul\":10390:10404   */\n      add\n        /* \"#utility.yul\":10380:10404   */\n      swap2\n      pop\n        /* \"#utility.yul\":10449:10451   */\n      0x20\n        /* \"#utility.yul\":10438:10447   */\n      dup6\n        /* \"#utility.yul\":10434:10452   */\n      add\n        /* \"#utility.yul\":10421:10452   */\n      swap5\n      pop\n        /* \"#utility.yul\":10295:10299   */\n      0x20\n        /* \"#utility.yul\":10292:10293   */\n      dup2\n        /* \"#utility.yul\":10288:10300   */\n      add\n        /* \"#utility.yul\":10283:10300   */\n      swap1\n      pop\n        /* \"#utility.yul\":10258:10466   */\n      jump(tag_199)\n    tag_201:\n        /* \"#utility.yul\":10494:10500   */\n      dup7\n        /* \"#utility.yul\":10485:10492   */\n      dup4\n        /* \"#utility.yul\":10482:10501   */\n      lt\n        /* \"#utility.yul\":10479:10658   */\n      iszero\n      tag_202\n      jumpi\n        /* \"#utility.yul\":10552:10561   */\n      dup5\n        /* \"#utility.yul\":10547:10550   */\n      dup10\n        /* \"#utility.yul\":10543:10562   */\n      add\n        /* \"#utility.yul\":10537:10563   */\n      mload\n        /* \"#utility.yul\":10595:10643   */\n      tag_203\n        /* \"#utility.yul\":10637:10641   */\n      0x1f\n        /* \"#utility.yul\":10629:10635   */\n      dup10\n        /* \"#utility.yul\":10625:10642   */\n      and\n        /* \"#utility.yul\":10614:10623   */\n      dup3\n        /* \"#utility.yul\":10595:10643   */\n      tag_71\n      jump\t// in\n    tag_203:\n        /* \"#utility.yul\":10587:10593   */\n      dup4\n        /* \"#utility.yul\":10580:10644   */\n      sstore\n        /* \"#utility.yul\":10502:10658   */\n      pop\n        /* \"#utility.yul\":10479:10658   */\n    tag_202:\n        /* \"#utility.yul\":10704:10705   */\n      0x01\n        /* \"#utility.yul\":10700:10701   */\n      0x02\n        /* \"#utility.yul\":10692:10698   */\n      dup9\n        /* \"#utility.yul\":10688:10702   */\n      mul\n        /* \"#utility.yul\":10684:10706   */\n      add\n        /* \"#utility.yul\":10678:10682   */\n      dup9\n        /* \"#utility.yul\":10671:10707   */\n      sstore\n        /* \"#utility.yul\":10106:10717   */\n      pop\n      pop\n      pop\n        /* \"#utility.yul\":10069:10956   */\n    tag_194:\n      pop\n        /* \"#utility.yul\":9659:10962   */\n      pop\n      pop\n      pop\n        /* \"#utility.yul\":9567:10962   */\n      pop\n      pop\n      jump\t// out\n        /* \"#utility.yul\":10968:11116   */\n    tag_73:\n        /* \"#utility.yul\":11070:11081   */\n      0x00\n        /* \"#utility.yul\":11107:11110   */\n      dup2\n        /* \"#utility.yul\":11092:11110   */\n      swap1\n      pop\n        /* \"#utility.yul\":10968:11116   */\n      swap3\n      swap2\n      pop\n      pop\n      jump\t// out\n        /* \"#utility.yul\":11122:11512   */\n    tag_74:\n        /* \"#utility.yul\":11228:11231   */\n      0x00\n        /* \"#utility.yul\":11256:11295   */\n      tag_206\n        /* \"#utility.yul\":11289:11294   */\n      dup3\n        /* \"#utility.yul\":11256:11295   */\n      tag_42\n      jump\t// in\n    tag_206:\n        /* \"#utility.yul\":11311:11400   */\n      tag_207\n        /* \"#utility.yul\":11393:11399   */\n      dup2\n        /* \"#utility.yul\":11388:11391   */\n      dup6\n        /* \"#utility.yul\":11311:11400   */\n      tag_73\n      jump\t// in\n    tag_207:\n        /* \"#utility.yul\":11304:11400   */\n      swap4\n      pop\n        /* \"#utility.yul\":11409:11474   */\n      tag_208\n        /* \"#utility.yul\":11467:11473   */\n      dup2\n        /* \"#utility.yul\":11462:11465   */\n      dup6\n        /* \"#utility.yul\":11455:11459   */\n      0x20\n        /* \"#utility.yul\":11448:11453   */\n      dup7\n        /* \"#utility.yul\":11444:11460   */\n      add\n        /* \"#utility.yul\":11409:11474   */\n      tag_44\n      jump\t// in\n    tag_208:\n        /* \"#utility.yul\":11499:11505   */\n      dup1\n        /* \"#utility.yul\":11494:11497   */\n      dup5\n        /* \"#utility.yul\":11490:11506   */\n      add\n        /* \"#utility.yul\":11483:11506   */\n      swap2\n      pop\n        /* \"#utility.yul\":11232:11512   */\n      pop\n        /* \"#utility.yul\":11122:11512   */\n      swap3\n      swap2\n      pop\n      pop\n      jump\t// out\n        /* \"#utility.yul\":11518:11793   */\n    tag_35:\n        /* \"#utility.yul\":11650:11653   */\n      0x00\n        /* \"#utility.yul\":11672:11767   */\n      tag_210\n        /* \"#utility.yul\":11763:11766   */\n      dup3\n        /* \"#utility.yul\":11754:11760   */\n      dup5\n        /* \"#utility.yul\":11672:11767   */\n      tag_74\n      jump\t// in\n    tag_210:\n        /* \"#utility.yul\":11665:11767   */\n      swap2\n      pop\n        /* \"#utility.yul\":11784:11787   */\n      dup2\n        /* \"#utility.yul\":11777:11787   */\n      swap1\n      pop\n        /* \"#utility.yul\":11518:11793   */\n      swap3\n      swap2\n      pop\n      pop\n      jump\t// out\n\n    auxdata: 0xa2646970667358221220428bd4d65dca43b3cfc3146c34671039c90f0c07bea21c0808525752464073eb64736f6c63430008160033\n}\n",
				"bytecode": {
					"linkReferences": {},
					"object": "608060405234801561000f575f80fd5b5061088f8061001d5f395ff3fe608060405234801561000f575f80fd5b506004361061003f575f3560e01c80639477536114610043578063e4b3920914610074578063e527233214610090575b5f80fd5b61005d60048036038101906100589190610268565b6100c0565b60405161006b92919061032c565b60405180910390f35b61008e60048036038101906100899190610486565b610174565b005b6100aa60048036038101906100a591906104e0565b6101f7565b6040516100b79190610527565b60405180910390f35b5f81815481106100ce575f80fd5b905f5260205f2090600202015f91509050805f0180546100ed9061056d565b80601f01602080910402602001604051908101604052809291908181526020018280546101199061056d565b80156101645780601f1061013b57610100808354040283529160200191610164565b820191905f5260205f20905b81548152906001019060200180831161014757829003601f168201915b5050505050908060010154905082565b5f604051806040016040528084815260200183815250908060018154018082558091505060019003905f5260205f2090600202015f909190919091505f820151815f0190816101c3919061073a565b50602082015181600101555050806001836040516101e19190610843565b9081526020016040518091039020819055505050565b6001818051602081018201805184825260208301602085012081835280955050505050505f915090505481565b5f604051905090565b5f80fd5b5f80fd5b5f819050919050565b61024781610235565b8114610251575f80fd5b50565b5f813590506102628161023e565b92915050565b5f6020828403121561027d5761027c61022d565b5b5f61028a84828501610254565b91505092915050565b5f81519050919050565b5f82825260208201905092915050565b5f5b838110156102ca5780820151818401526020810190506102af565b5f8484015250505050565b5f601f19601f8301169050919050565b5f6102ef82610293565b6102f9818561029d565b93506103098185602086016102ad565b610312816102d5565b840191505092915050565b61032681610235565b82525050565b5f6040820190508181035f83015261034481856102e5565b9050610353602083018461031d565b9392505050565b5f80fd5b5f80fd5b7f4e487b71000000000000000000000000000000000000000000000000000000005f52604160045260245ffd5b610398826102d5565b810181811067ffffffffffffffff821117156103b7576103b6610362565b5b80604052505050565b5f6103c9610224565b90506103d5828261038f565b919050565b5f67ffffffffffffffff8211156103f4576103f3610362565b5b6103fd826102d5565b9050602081019050919050565b828183375f83830152505050565b5f61042a610425846103da565b6103c0565b9050828152602081018484840111156104465761044561035e565b5b61045184828561040a565b509392505050565b5f82601f83011261046d5761046c61035a565b5b813561047d848260208601610418565b91505092915050565b5f806040838503121561049c5761049b61022d565b5b5f83013567ffffffffffffffff8111156104b9576104b8610231565b5b6104c585828601610459565b92505060206104d685828601610254565b9150509250929050565b5f602082840312156104f5576104f461022d565b5b5f82013567ffffffffffffffff81111561051257610511610231565b5b61051e84828501610459565b91505092915050565b5f60208201905061053a5f83018461031d565b92915050565b7f4e487b71000000000000000000000000000000000000000000000000000000005f52602260045260245ffd5b5f600282049050600182168061058457607f821691505b60208210810361059757610596610540565b5b50919050565b5f819050815f5260205f209050919050565b5f6020601f8301049050919050565b5f82821b905092915050565b5f600883026105f97fffffffffffffffffffffffffffffffffffffffffffffffffffffffffffffffff826105be565b61060386836105be565b95508019841693508086168417925050509392505050565b5f819050919050565b5f61063e61063961063484610235565b61061b565b610235565b9050919050565b5f819050919050565b61065783610624565b61066b61066382610645565b8484546105ca565b825550505050565b5f90565b61067f610673565b61068a81848461064e565b505050565b5b818110156106ad576106a25f82610677565b600181019050610690565b5050565b601f8211156106f2576106c38161059d565b6106cc846105af565b810160208510156106db578190505b6106ef6106e7856105af565b83018261068f565b50505b505050565b5f82821c905092915050565b5f6107125f19846008026106f7565b1980831691505092915050565b5f61072a8383610703565b9150826002028217905092915050565b61074382610293565b67ffffffffffffffff81111561075c5761075b610362565b5b610766825461056d565b6107718282856106b1565b5f60209050601f8311600181146107a2575f8415610790578287015190505b61079a858261071f565b865550610801565b601f1984166107b08661059d565b5f5b828110156107d7578489015182556001820191506020850194506020810190506107b2565b868310156107f457848901516107f0601f891682610703565b8355505b6001600288020188555050505b505050505050565b5f81905092915050565b5f61081d82610293565b6108278185610809565b93506108378185602086016102ad565b80840191505092915050565b5f61084e8284610813565b91508190509291505056fea2646970667358221220428bd4d65dca43b3cfc3146c34671039c90f0c07bea21c0808525752464073eb64736f6c63430008160033",
					"opcodes": "PUSH1 0x80 PUSH1 0x40 MSTORE CALLVALUE DUP1 ISZERO PUSH2 0xF JUMPI PUSH0 DUP1 REVERT JUMPDEST POP PUSH2 0x88F DUP1 PUSH2 0x1D PUSH0 CODECOPY PUSH0 RETURN INVALID PUSH1 0x80 PUSH1 0x40 MSTORE CALLVALUE DUP1 ISZERO PUSH2 0xF JUMPI PUSH0 DUP1 REVERT JUMPDEST POP PUSH1 0x4 CALLDATASIZE LT PUSH2 0x3F JUMPI PUSH0 CALLDATALOAD PUSH1 0xE0 SHR DUP1 PUSH4 0x94775361 EQ PUSH2 0x43 JUMPI DUP1 PUSH4 0xE4B39209 EQ PUSH2 0x74 JUMPI DUP1 PUSH4 0xE5272332 EQ PUSH2 0x90 JUMPI JUMPDEST PUSH0 DUP1 REVERT JUMPDEST PUSH2 0x5D PUSH1 0x4 DUP1 CALLDATASIZE SUB DUP2 ADD SWAP1 PUSH2 0x58 SWAP2 SWAP1 PUSH2 0x268 JUMP JUMPDEST PUSH2 0xC0 JUMP JUMPDEST PUSH1 0x40 MLOAD PUSH2 0x6B SWAP3 SWAP2 SWAP1 PUSH2 0x32C JUMP JUMPDEST PUSH1 0x40 MLOAD DUP1 SWAP2 SUB SWAP1 RETURN JUMPDEST PUSH2 0x8E PUSH1 0x4 DUP1 CALLDATASIZE SUB DUP2 ADD SWAP1 PUSH2 0x89 SWAP2 SWAP1 PUSH2 0x486 JUMP JUMPDEST PUSH2 0x174 JUMP JUMPDEST STOP JUMPDEST PUSH2 0xAA PUSH1 0x4 DUP1 CALLDATASIZE SUB DUP2 ADD SWAP1 PUSH2 0xA5 SWAP2 SWAP1 PUSH2 0x4E0 JUMP JUMPDEST PUSH2 0x1F7 JUMP JUMPDEST PUSH1 0x40 MLOAD PUSH2 0xB7 SWAP2 SWAP1 PUSH2 0x527 JUMP JUMPDEST PUSH1 0x40 MLOAD DUP1 SWAP2 SUB SWAP1 RETURN JUMPDEST PUSH0 DUP2 DUP2 SLOAD DUP2 LT PUSH2 0xCE JUMPI PUSH0 DUP1 REVERT JUMPDEST SWAP1 PUSH0 MSTORE PUSH1 0x20 PUSH0 KECCAK256 SWAP1 PUSH1 0x2 MUL ADD PUSH0 SWAP2 POP SWAP1 POP DUP1 PUSH0 ADD DUP1 SLOAD PUSH2 0xED SWAP1 PUSH2 0x56D JUMP JUMPDEST DUP1 PUSH1 0x1F ADD PUSH1 0x20 DUP1 SWAP2 DIV MUL PUSH1 0x20 ADD PUSH1 0x40 MLOAD SWAP1 DUP2 ADD PUSH1 0x40 MSTORE DUP1 SWAP3 SWAP2 SWAP1 DUP2 DUP2 MSTORE PUSH1 0x20 ADD DUP3 DUP1 SLOAD PUSH2 0x119 SWAP1 PUSH2 0x56D JUMP JUMPDEST DUP1 ISZERO PUSH2 0x164 JUMPI DUP1 PUSH1 0x1F LT PUSH2 0x13B JUMPI PUSH2 0x100 DUP1 DUP4 SLOAD DIV MUL DUP4 MSTORE SWAP2 PUSH1 0x20 ADD SWAP2 PUSH2 0x164 JUMP JUMPDEST DUP3 ADD SWAP2 SWAP1 PUSH0 MSTORE PUSH1 0x20 PUSH0 KECCAK256 SWAP1 JUMPDEST DUP2 SLOAD DUP2 MSTORE SWAP1 PUSH1 0x1 ADD SWAP1 PUSH1 0x20 ADD DUP1 DUP4 GT PUSH2 0x147 JUMPI DUP3 SWAP1 SUB PUSH1 0x1F AND DUP3 ADD SWAP2 JUMPDEST POP POP POP POP POP SWAP1 DUP1 PUSH1 0x1 ADD SLOAD SWAP1 POP DUP3 JUMP JUMPDEST PUSH0 PUSH1 0x40 MLOAD DUP1 PUSH1 0x40 ADD PUSH1 0x40 MSTORE DUP1 DUP5 DUP2 MSTORE PUSH1 0x20 ADD DUP4 DUP2 MSTORE POP SWAP1 DUP1 PUSH1 0x1 DUP2 SLOAD ADD DUP1 DUP3 SSTORE DUP1 SWAP2 POP POP PUSH1 0x1 SWAP1 SUB SWAP1 PUSH0 MSTORE PUSH1 0x20 PUSH0 KECCAK256 SWAP1 PUSH1 0x2 MUL ADD PUSH0 SWAP1 SWAP2 SWAP1 SWAP2 SWAP1 SWAP2 POP PUSH0 DUP3 ADD MLOAD DUP2 PUSH0 ADD SWAP1 DUP2 PUSH2 0x1C3 SWAP2 SWAP1 PUSH2 0x73A JUMP JUMPDEST POP PUSH1 0x20 DUP3 ADD MLOAD DUP2 PUSH1 0x1 ADD SSTORE POP POP DUP1 PUSH1 0x1 DUP4 PUSH1 0x40 MLOAD PUSH2 0x1E1 SWAP2 SWAP1 PUSH2 0x843 JUMP JUMPDEST SWAP1 DUP2 MSTORE PUSH1 0x20 ADD PUSH1 0x40 MLOAD DUP1 SWAP2 SUB SWAP1 KECCAK256 DUP2 SWAP1 SSTORE POP POP POP JUMP JUMPDEST PUSH1 0x1 DUP2 DUP1 MLOAD PUSH1 0x20 DUP2 ADD DUP3 ADD DUP1 MLOAD DUP5 DUP3 MSTORE PUSH1 0x20 DUP4 ADD PUSH1 0x20 DUP6 ADD KECCAK256 DUP2 DUP4 MSTORE DUP1 SWAP6 POP POP POP POP POP POP PUSH0 SWAP2 POP SWAP1 POP SLOAD DUP2 JUMP JUMPDEST PUSH0 PUSH1 0x40 MLOAD SWAP1 POP SWAP1 JUMP JUMPDEST PUSH0 DUP1 REVERT JUMPDEST PUSH0 DUP1 REVERT JUMPDEST PUSH0 DUP2 SWAP1 POP SWAP2 SWAP1 POP JUMP JUMPDEST PUSH2 0x247 DUP2 PUSH2 0x235 JUMP JUMPDEST DUP2 EQ PUSH2 0x251 JUMPI PUSH0 DUP1 REVERT JUMPDEST POP JUMP JUMPDEST PUSH0 DUP2 CALLDATALOAD SWAP1 POP PUSH2 0x262 DUP2 PUSH2 0x23E JUMP JUMPDEST SWAP3 SWAP2 POP POP JUMP JUMPDEST PUSH0 PUSH1 0x20 DUP3 DUP5 SUB SLT ISZERO PUSH2 0x27D JUMPI PUSH2 0x27C PUSH2 0x22D JUMP JUMPDEST JUMPDEST PUSH0 PUSH2 0x28A DUP5 DUP3 DUP6 ADD PUSH2 0x254 JUMP JUMPDEST SWAP2 POP POP SWAP3 SWAP2 POP POP JUMP JUMPDEST PUSH0 DUP2 MLOAD SWAP1 POP SWAP2 SWAP1 POP JUMP JUMPDEST PUSH0 DUP3 DUP3 MSTORE PUSH1 0x20 DUP3 ADD SWAP1 POP SWAP3 SWAP2 POP POP JUMP JUMPDEST PUSH0 JUMPDEST DUP4 DUP2 LT ISZERO PUSH2 0x2CA JUMPI DUP1 DUP3 ADD MLOAD DUP2 DUP5 ADD MSTORE PUSH1 0x20 DUP2 ADD SWAP1 POP PUSH2 0x2AF JUMP JUMPDEST PUSH0 DUP5 DUP5 ADD MSTORE POP POP POP POP JUMP JUMPDEST PUSH0 PUSH1 0x1F NOT PUSH1 0x1F DUP4 ADD AND SWAP1 POP SWAP2 SWAP1 POP JUMP JUMPDEST PUSH0 PUSH2 0x2EF DUP3 PUSH2 0x293 JUMP JUMPDEST PUSH2 0x2F9 DUP2 DUP6 PUSH2 0x29D JUMP JUMPDEST SWAP4 POP PUSH2 0x309 DUP2 DUP6 PUSH1 0x20 DUP7 ADD PUSH2 0x2AD JUMP JUMPDEST PUSH2 0x312 DUP2 PUSH2 0x2D5 JUMP JUMPDEST DUP5 ADD SWAP2 POP POP SWAP3 SWAP2 POP POP JUMP JUMPDEST PUSH2 0x326 DUP2 PUSH2 0x235 JUMP JUMPDEST DUP3 MSTORE POP POP JUMP JUMPDEST PUSH0 PUSH1 0x40 DUP3 ADD SWAP1 POP DUP2 DUP2 SUB PUSH0 DUP4 ADD MSTORE PUSH2 0x344 DUP2 DUP6 PUSH2 0x2E5 JUMP JUMPDEST SWAP1 POP PUSH2 0x353 PUSH1 0x20 DUP4 ADD DUP5 PUSH2 0x31D JUMP JUMPDEST SWAP4 SWAP3 POP POP POP JUMP JUMPDEST PUSH0 DUP1 REVERT JUMPDEST PUSH0 DUP1 REVERT JUMPDEST PUSH32 0x4E487B7100000000000000000000000000000000000000000000000000000000 PUSH0 MSTORE PUSH1 0x41 PUSH1 0x4 MSTORE PUSH1 0x24 PUSH0 REVERT JUMPDEST PUSH2 0x398 DUP3 PUSH2 0x2D5 JUMP JUMPDEST DUP2 ADD DUP2 DUP2 LT PUSH8 0xFFFFFFFFFFFFFFFF DUP3 GT OR ISZERO PUSH2 0x3B7 JUMPI PUSH2 0x3B6 PUSH2 0x362 JUMP JUMPDEST JUMPDEST DUP1 PUSH1 0x40 MSTORE POP POP POP JUMP JUMPDEST PUSH0 PUSH2 0x3C9 PUSH2 0x224 JUMP JUMPDEST SWAP1 POP PUSH2 0x3D5 DUP3 DUP3 PUSH2 0x38F JUMP JUMPDEST SWAP2 SWAP1 POP JUMP JUMPDEST PUSH0 PUSH8 0xFFFFFFFFFFFFFFFF DUP3 GT ISZERO PUSH2 0x3F4 JUMPI PUSH2 0x3F3 PUSH2 0x362 JUMP JUMPDEST JUMPDEST PUSH2 0x3FD DUP3 PUSH2 0x2D5 JUMP JUMPDEST SWAP1 POP PUSH1 0x20 DUP2 ADD SWAP1 POP SWAP2 SWAP1 POP JUMP JUMPDEST DUP3 DUP2 DUP4 CALLDATACOPY PUSH0 DUP4 DUP4 ADD MSTORE POP POP POP JUMP JUMPDEST PUSH0 PUSH2 0x42A PUSH2 0x425 DUP5 PUSH2 0x3DA JUMP JUMPDEST PUSH2 0x3C0 JUMP JUMPDEST SWAP1 POP DUP3 DUP2 MSTORE PUSH1 0x20 DUP2 ADD DUP5 DUP5 DUP5 ADD GT ISZERO PUSH2 0x446 JUMPI PUSH2 0x445 PUSH2 0x35E JUMP JUMPDEST JUMPDEST PUSH2 0x451 DUP5 DUP3 DUP6 PUSH2 0x40A JUMP JUMPDEST POP SWAP4 SWAP3 POP POP POP JUMP JUMPDEST PUSH0 DUP3 PUSH1 0x1F DUP4 ADD SLT PUSH2 0x46D JUMPI PUSH2 0x46C PUSH2 0x35A JUMP JUMPDEST JUMPDEST DUP2 CALLDATALOAD PUSH2 0x47D DUP5 DUP3 PUSH1 0x20 DUP7 ADD PUSH2 0x418 JUMP JUMPDEST SWAP2 POP POP SWAP3 SWAP2 POP POP JUMP JUMPDEST PUSH0 DUP1 PUSH1 0x40 DUP4 DUP6 SUB SLT ISZERO PUSH2 0x49C JUMPI PUSH2 0x49B PUSH2 0x22D JUMP JUMPDEST JUMPDEST PUSH0 DUP4 ADD CALLDATALOAD PUSH8 0xFFFFFFFFFFFFFFFF DUP2 GT ISZERO PUSH2 0x4B9 JUMPI PUSH2 0x4B8 PUSH2 0x231 JUMP JUMPDEST JUMPDEST PUSH2 0x4C5 DUP6 DUP3 DUP7 ADD PUSH2 0x459 JUMP JUMPDEST SWAP3 POP POP PUSH1 0x20 PUSH2 0x4D6 DUP6 DUP3 DUP7 ADD PUSH2 0x254 JUMP JUMPDEST SWAP2 POP POP SWAP3 POP SWAP3 SWAP1 POP JUMP JUMPDEST PUSH0 PUSH1 0x20 DUP3 DUP5 SUB SLT ISZERO PUSH2 0x4F5 JUMPI PUSH2 0x4F4 PUSH2 0x22D JUMP JUMPDEST JUMPDEST PUSH0 DUP3 ADD CALLDATALOAD PUSH8 0xFFFFFFFFFFFFFFFF DUP2 GT ISZERO PUSH2 0x512 JUMPI PUSH2 0x511 PUSH2 0x231 JUMP JUMPDEST JUMPDEST PUSH2 0x51E DUP5 DUP3 DUP6 ADD PUSH2 0x459 JUMP JUMPDEST SWAP2 POP POP SWAP3 SWAP2 POP POP JUMP JUMPDEST PUSH0 PUSH1 0x20 DUP3 ADD SWAP1 POP PUSH2 0x53A PUSH0 DUP4 ADD DUP5 PUSH2 0x31D JUMP JUMPDEST SWAP3 SWAP2 POP POP JUMP JUMPDEST PUSH32 0x4E487B7100000000000000000000000000000000000000000000000000000000 PUSH0 MSTORE PUSH1 0x22 PUSH1 0x4 MSTORE PUSH1 0x24 PUSH0 REVERT JUMPDEST PUSH0 PUSH1 0x2 DUP3 DIV SWAP1 POP PUSH1 0x1 DUP3 AND DUP1 PUSH2 0x584 JUMPI PUSH1 0x7F DUP3 AND SWAP2 POP JUMPDEST PUSH1 0x20 DUP3 LT DUP2 SUB PUSH2 0x597 JUMPI PUSH2 0x596 PUSH2 0x540 JUMP JUMPDEST JUMPDEST POP SWAP2 SWAP1 POP JUMP JUMPDEST PUSH0 DUP2 SWAP1 POP DUP2 PUSH0 MSTORE PUSH1 0x20 PUSH0 KECCAK256 SWAP1 POP SWAP2 SWAP1 POP JUMP JUMPDEST PUSH0 PUSH1 0x20 PUSH1 0x1F DUP4 ADD DIV SWAP1 POP SWAP2 SWAP1 POP JUMP JUMPDEST PUSH0 DUP3 DUP3 SHL SWAP1 POP SWAP3 SWAP2 POP POP JUMP JUMPDEST PUSH0 PUSH1 0x8 DUP4 MUL PUSH2 0x5F9 PUSH32 0xFFFFFFFFFFFFFFFFFFFFFFFFFFFFFFFFFFFFFFFFFFFFFFFFFFFFFFFFFFFFFFFF DUP3 PUSH2 0x5BE JUMP JUMPDEST PUSH2 0x603 DUP7 DUP4 PUSH2 0x5BE JUMP JUMPDEST SWAP6 POP DUP1 NOT DUP5 AND SWAP4 POP DUP1 DUP7 AND DUP5 OR SWAP3 POP POP POP SWAP4 SWAP3 POP POP POP JUMP JUMPDEST PUSH0 DUP2 SWAP1 POP SWAP2 SWAP1 POP JUMP JUMPDEST PUSH0 PUSH2 0x63E PUSH2 0x639 PUSH2 0x634 DUP5 PUSH2 0x235 JUMP JUMPDEST PUSH2 0x61B JUMP JUMPDEST PUSH2 0x235 JUMP JUMPDEST SWAP1 POP SWAP2 SWAP1 POP JUMP JUMPDEST PUSH0 DUP2 SWAP1 POP SWAP2 SWAP1 POP JUMP JUMPDEST PUSH2 0x657 DUP4 PUSH2 0x624 JUMP JUMPDEST PUSH2 0x66B PUSH2 0x663 DUP3 PUSH2 0x645 JUMP JUMPDEST DUP5 DUP5 SLOAD PUSH2 0x5CA JUMP JUMPDEST DUP3 SSTORE POP POP POP POP JUMP JUMPDEST PUSH0 SWAP1 JUMP JUMPDEST PUSH2 0x67F PUSH2 0x673 JUMP JUMPDEST PUSH2 0x68A DUP2 DUP5 DUP5 PUSH2 0x64E JUMP JUMPDEST POP POP POP JUMP JUMPDEST JUMPDEST DUP2 DUP2 LT ISZERO PUSH2 0x6AD JUMPI PUSH2 0x6A2 PUSH0 DUP3 PUSH2 0x677 JUMP JUMPDEST PUSH1 0x1 DUP2 ADD SWAP1 POP PUSH2 0x690 JUMP JUMPDEST POP POP JUMP JUMPDEST PUSH1 0x1F DUP3 GT ISZERO PUSH2 0x6F2 JUMPI PUSH2 0x6C3 DUP2 PUSH2 0x59D JUMP JUMPDEST PUSH2 0x6CC DUP5 PUSH2 0x5AF JUMP JUMPDEST DUP2 ADD PUSH1 0x20 DUP6 LT ISZERO PUSH2 0x6DB JUMPI DUP2 SWAP1 POP JUMPDEST PUSH2 0x6EF PUSH2 0x6E7 DUP6 PUSH2 0x5AF JUMP JUMPDEST DUP4 ADD DUP3 PUSH2 0x68F JUMP JUMPDEST POP POP JUMPDEST POP POP POP JUMP JUMPDEST PUSH0 DUP3 DUP3 SHR SWAP1 POP SWAP3 SWAP2 POP POP JUMP JUMPDEST PUSH0 PUSH2 0x712 PUSH0 NOT DUP5 PUSH1 0x8 MUL PUSH2 0x6F7 JUMP JUMPDEST NOT DUP1 DUP4 AND SWAP2 POP POP SWAP3 SWAP2 POP POP JUMP JUMPDEST PUSH0 PUSH2 0x72A DUP4 DUP4 PUSH2 0x703 JUMP JUMPDEST SWAP2 POP DUP3 PUSH1 0x2 MUL DUP3 OR SWAP1 POP SWAP3 SWAP2 POP POP JUMP JUMPDEST PUSH2 0x743 DUP3 PUSH2 0x293 JUMP JUMPDEST PUSH8 0xFFFFFFFFFFFFFFFF DUP2 GT ISZERO PUSH2 0x75C JUMPI PUSH2 0x75B PUSH2 0x362 JUMP JUMPDEST JUMPDEST PUSH2 0x766 DUP3 SLOAD PUSH2 0x56D JUMP JUMPDEST PUSH2 0x771 DUP3 DUP3 DUP6 PUSH2 0x6B1 JUMP JUMPDEST PUSH0 PUSH1 0x20 SWAP1 POP PUSH1 0x1F DUP4 GT PUSH1 0x1 DUP2 EQ PUSH2 0x7A2 JUMPI PUSH0 DUP5 ISZERO PUSH2 0x790 JUMPI DUP3 DUP8 ADD MLOAD SWAP1 POP JUMPDEST PUSH2 0x79A DUP6 DUP3 PUSH2 0x71F JUMP JUMPDEST DUP7 SSTORE POP PUSH2 0x801 JUMP JUMPDEST PUSH1 0x1F NOT DUP5 AND PUSH2 0x7B0 DUP7 PUSH2 0x59D JUMP JUMPDEST PUSH0 JUMPDEST DUP3 DUP2 LT ISZERO PUSH2 0x7D7 JUMPI DUP5 DUP10 ADD MLOAD DUP3 SSTORE PUSH1 0x1 DUP3 ADD SWAP2 POP PUSH1 0x20 DUP6 ADD SWAP5 POP PUSH1 0x20 DUP2 ADD SWAP1 POP PUSH2 0x7B2 JUMP JUMPDEST DUP7 DUP4 LT ISZERO PUSH2 0x7F4 JUMPI DUP5 DUP10 ADD MLOAD PUSH2 0x7F0 PUSH1 0x1F DUP10 AND DUP3 PUSH2 0x703 JUMP JUMPDEST DUP4 SSTORE POP JUMPDEST PUSH1 0x1 PUSH1 0x2 DUP9 MUL ADD DUP9 SSTORE POP POP POP JUMPDEST POP POP POP POP POP POP JUMP JUMPDEST PUSH0 DUP2 SWAP1 POP SWAP3 SWAP2 POP POP JUMP JUMPDEST PUSH0 PUSH2 0x81D DUP3 PUSH2 0x293 JUMP JUMPDEST PUSH2 0x827 DUP2 DUP6 PUSH2 0x809 JUMP JUMPDEST SWAP4 POP PUSH2 0x837 DUP2 DUP6 PUSH1 0x20 DUP7 ADD PUSH2 0x2AD JUMP JUMPDEST DUP1 DUP5 ADD SWAP2 POP POP SWAP3 SWAP2 POP POP JUMP JUMPDEST PUSH0 PUSH2 0x84E DUP3 DUP5 PUSH2 0x813 JUMP JUMPDEST SWAP2 POP DUP2 SWAP1 POP SWAP3 SWAP2 POP POP JUMP INVALID LOG2 PUSH5 0x6970667358 0x22 SLT KECCAK256 TIMESTAMP DUP12 0xD4 0xD6 0x5D 0xCA NUMBER 0xB3 0xCF 0xC3 EQ PUSH13 0x34671039C90F0C07BEA21C0808 MSTORE JUMPI MSTORE CHAINID BLOCKHASH PUSH20 0xEB64736F6C634300081600330000000000000000 "
				},
				"gasEstimates": {
					"creation": {
						"codeDepositCost": "438200",
						"executionCost": "472",
						"totalCost": "438672"
					},
					"external": {
						"NametoFavnum(string)": "infinite",
						"addDetails(string,uint256)": "infinite",
						"favteller(uint256)": "infinite"
					}
				},
				"methodIdentifiers": {
					"NametoFavnum(string)": "e5272332",
					"addDetails(string,uint256)": "e4b39209",
					"favteller(uint256)": "94775361"
				}
			},
			"storageLayout": {
				"storage": [
					{
						"astId": 36,
						"contract": "mapping.sol:maptest",
						"label": "favteller",
						"offset": 0,
						"slot": "0",
						"type": "t_array(t_struct(favTeller)32_storage)dyn_storage"
					},
					{
						"astId": 40,
						"contract": "mapping.sol:maptest",
						"label": "NametoFavnum",
						"offset": 0,
						"slot": "1",
						"type": "t_mapping(t_string_memory_ptr,t_uint256)"
					}
				],
				"types": {
					"t_array(t_struct(favTeller)32_storage)dyn_storage": {
						"base": "t_struct(favTeller)32_storage",
						"encoding": "dynamic_array",
						"label": "struct maptest.favTeller[]",
						"numberOfBytes": "32"
					},
					"t_mapping(t_string_memory_ptr,t_uint256)": {
						"encoding": "mapping",
						"key": "t_string_memory_ptr",
						"label": "mapping(string => uint256)",
						"numberOfBytes": "32",
						"value": "t_uint256"
					},
					"t_string_memory_ptr": {
						"encoding": "bytes",
						"label": "string",
						"numberOfBytes": "32"
					},
					"t_string_storage": {
						"encoding": "bytes",
						"label": "string",
						"numberOfBytes": "32"
					},
					"t_struct(favTeller)32_storage": {
						"encoding": "inplace",
						"label": "struct maptest.favTeller",
						"members": [
							{
								"astId": 29,
								"contract": "mapping.sol:maptest",
								"label": "name",
								"offset": 0,
								"slot": "0",
								"type": "t_string_storage"
							},
							{
								"astId": 31,
								"contract": "mapping.sol:maptest",
								"label": "favNum",
								"offset": 0,
								"slot": "1",
								"type": "t_uint256"
							}
						],
						"numberOfBytes": "64"
					},
					"t_uint256": {
						"encoding": "inplace",
						"label": "uint256",
						"numberOfBytes": "32"
					}
				}
			},
			"userdoc": {
				"kind": "user",
				"methods": {},
				"version": 1
			}
		}
	}
}