{
	"data": {
		"bytecode": {
			"linkReferences": {},
			"object": "6080604052602a5f5560025f546100169190610060565b600155348015610024575f80fd5b506100a1565b5f819050919050565b7f4e487b71000000000000000000000000000000000000000000000000000000005f52601160045260245ffd5b5f61006a8261002a565b91506100758361002a565b92508282026100838161002a565b9150828204841483151761009a57610099610033565b5b5092915050565b61018a806100ae5f395ff3fe608060405234801561000f575f80fd5b506004361061003f575f3560e01c8063088cd3b21461004357806328e00f58146100615780634f2be91f1461007f575b5f80fd5b61004b61009d565b60405161005891906100db565b60405180910390f35b6100696100a2565b60405161007691906100db565b60405180910390f35b6100876100a8565b60405161009491906100db565b60405180910390f35b5f5481565b60015481565b5f60015f546100b79190610121565b5f819055505f54905090565b5f819050919050565b6100d5816100c3565b82525050565b5f6020820190506100ee5f8301846100cc565b92915050565b7f4e487b71000000000000000000000000000000000000000000000000000000005f52601160045260245ffd5b5f61012b826100c3565b9150610136836100c3565b925082820190508082111561014e5761014d6100f4565b5b9291505056fea2646970667358221220301ab52a4e4bac7dcd93e0cae21a59d9f2f7c42a0d3dfcb51a34b32758d3a04864736f6c63430008160033",
			"opcodes": "PUSH1 0x80 PUSH1 0x40 MSTORE PUSH1 0x2A PUSH0 SSTORE PUSH1 0x2 PUSH0 SLOAD PUSH2 0x16 SWAP2 SWAP1 PUSH2 0x60 JUMP JUMPDEST PUSH1 0x1 SSTORE CALLVALUE DUP1 ISZERO PUSH2 0x24 JUMPI PUSH0 DUP1 REVERT JUMPDEST POP PUSH2 0xA1 JUMP JUMPDEST PUSH0 DUP2 SWAP1 POP SWAP2 SWAP1 POP JUMP JUMPDEST PUSH32 0x4E487B7100000000000000000000000000000000000000000000000000000000 PUSH0 MSTORE PUSH1 0x11 PUSH1 0x4 MSTORE PUSH1 0x24 PUSH0 REVERT JUMPDEST PUSH0 PUSH2 0x6A DUP3 PUSH2 0x2A JUMP JUMPDEST SWAP2 POP PUSH2 0x75 DUP4 PUSH2 0x2A JUMP JUMPDEST SWAP3 POP DUP3 DUP3 MUL PUSH2 0x83 DUP2 PUSH2 0x2A JUMP JUMPDEST SWAP2 POP DUP3 DUP3 DIV DUP5 EQ DUP4 ISZERO OR PUSH2 0x9A JUMPI PUSH2 0x99 PUSH2 0x33 JUMP JUMPDEST JUMPDEST POP SWAP3 SWAP2 POP POP JUMP JUMPDEST PUSH2 0x18A DUP1 PUSH2 0xAE PUSH0 CODECOPY PUSH0 RETURN INVALID PUSH1 0x80 PUSH1 0x40 MSTORE CALLVALUE DUP1 ISZERO PUSH2 0xF JUMPI PUSH0 DUP1 REVERT JUMPDEST POP PUSH1 0x4 CALLDATASIZE LT PUSH2 0x3F JUMPI PUSH0 CALLDATALOAD PUSH1 0xE0 SHR DUP1 PUSH4 0x88CD3B2 EQ PUSH2 0x43 JUMPI DUP1 PUSH4 0x28E00F58 EQ PUSH2 0x61 JUMPI DUP1 PUSH4 0x4F2BE91F EQ PUSH2 0x7F JUMPI JUMPDEST PUSH0 DUP1 REVERT JUMPDEST PUSH2 0x4B PUSH2 0x9D JUMP JUMPDEST PUSH1 0x40 MLOAD PUSH2 0x58 SWAP2 SWAP1 PUSH2 0xDB JUMP JUMPDEST PUSH1 0x40 MLOAD DUP1 SWAP2 SUB SWAP1 RETURN JUMPDEST PUSH2 0x69 PUSH2 0xA2 JUMP JUMPDEST PUSH1 0x40 MLOAD PUSH2 0x76 SWAP2 SWAP1 PUSH2 0xDB JUMP JUMPDEST PUSH1 0x40 MLOAD DUP1 SWAP2 SUB SWAP1 RETURN JUMPDEST PUSH2 0x87 PUSH2 0xA8 JUMP JUMPDEST PUSH1 0x40 MLOAD PUSH2 0x94 SWAP2 SWAP1 PUSH2 0xDB JUMP JUMPDEST PUSH1 0x40 MLOAD DUP1 SWAP2 SUB SWAP1 RETURN JUMPDEST PUSH0 SLOAD DUP2 JUMP JUMPDEST PUSH1 0x1 SLOAD DUP2 JUMP JUMPDEST PUSH0 PUSH1 0x1 PUSH0 SLOAD PUSH2 0xB7 SWAP2 SWAP1 PUSH2 0x121 JUMP JUMPDEST PUSH0 DUP2 SWAP1 SSTORE POP PUSH0 SLOAD SWAP1 POP SWAP1 JUMP JUMPDEST PUSH0 DUP2 SWAP1 POP SWAP2 SWAP1 POP JUMP JUMPDEST PUSH2 0xD5 DUP2 PUSH2 0xC3 JUMP JUMPDEST DUP3 MSTORE POP POP JUMP JUMPDEST PUSH0 PUSH1 0x20 DUP3 ADD SWAP1 POP PUSH2 0xEE PUSH0 DUP4 ADD DUP5 PUSH2 0xCC JUMP JUMPDEST SWAP3 SWAP2 POP POP JUMP JUMPDEST PUSH32 0x4E487B7100000000000000000000000000000000000000000000000000000000 PUSH0 MSTORE PUSH1 0x11 PUSH1 0x4 MSTORE PUSH1 0x24 PUSH0 REVERT JUMPDEST PUSH0 PUSH2 0x12B DUP3 PUSH2 0xC3 JUMP JUMPDEST SWAP2 POP PUSH2 0x136 DUP4 PUSH2 0xC3 JUMP JUMPDEST SWAP3 POP DUP3 DUP3 ADD SWAP1 POP DUP1 DUP3 GT ISZERO PUSH2 0x14E JUMPI PUSH2 0x14D PUSH2 0xF4 JUMP JUMPDEST JUMPDEST SWAP3 SWAP2 POP POP JUMP INVALID LOG2 PUSH5 0x6970667358 0x22 SLT KECCAK256 ADDRESS BYTE 0xB5 0x2A 0x4E 0x4B 0xAC PUSH30 0xCD93E0CAE21A59D9F2F7C42A0D3DFCB51A34B32758D3A04864736F6C6343 STOP ADDMOD AND STOP CALLER "
		},
		"gasEstimates": {
			"creation": {
				"codeDepositCost": "78800",
				"executionCost": "infinite",
				"totalCost": "infinite"
			},
			"external": {
				"add()": "infinite",
				"doubleConstant()": "2425",
				"my_constant()": "2402"
			}
		},
		"methodIdentifiers": {
			"add()": "4f2be91f",
			"doubleConstant()": "28e00f58",
			"my_constant()": "088cd3b2"
		}
	},
	"abi": [
		{
			"inputs": [],
			"name": "add",
			"outputs": [
				{
					"internalType": "uint256",
					"name": "",
					"type": "uint256"
				}
			],
			"stateMutability": "nonpayable",
			"type": "function"
		},
		{
			"inputs": [],
			"name": "doubleConstant",
			"outputs": [
				{
					"internalType": "uint256",
					"name": "",
					"type": "uint256"
				}
			],
			"stateMutability": "view",
			"type": "function"
		},
		{
			"inputs": [],
			"name": "my_constant",
			"outputs": [
				{
					"internalType": "uint256",
					"name": "",
					"type": "uint256"
				}
			],
			"stateMutability": "view",
			"type": "function"
		}
	]
}